:100000000C9415190C9455190C9455190C945519F8
:100010000C9455190C9455190C9455190C945519A8
:100020000C9455190C9455190C9455190C94551998
:100030000C9455190C9455190C9455190C94551988
:100040000C9455190C94D0A40C9455190C94551972
:100050000C9455190C94ADA00C9455190C94CBFA32
:100060000C9455190C9404580C94FA570C94551987
:100070000C9455190C9455190C9455190C94551948
:100080000C94DB4E0C9455190C9455190C9455197D
:100090000C9455190C9455190C9455190C94551928
:1000A0000C9455190C9455190C94AD4E0C9455198B
:1000B0000C9455190C9455190C9455190C94551908
:1000C0000C9455190C9455190C9455190C945519F8
:1000D0000C9455190C9455190C9455190C945519E8
:1000E0000C945519084AD73B3BCE016E84BCBFFD2A
:1000F000C12F3D6C74319ABD56833DDA3D00C77FF8
:1001000011BED9E4BB4C3E916BAAAABE0000008090
:100110003F05A84CCDB2D44EB93836A9020C50B91F
:10012000918688083CA6AAAA2ABE000000803F004B
:100130000D9421140D94830A4E414E494E49545951
:10014000494E46CDCCCC3D0AD7233C17B7D13877A2
:10015000CC2B329595E6241FB14F0A0000204100B8
:1001600000C84200401C4620BCBE4CCA1B0E5AAE02
:10017000C59D7400407A10F35A00A0724E18090011
:1001800010A5D4E80000E87648170000E40B5402FC
:100190000000CA9A3B000000E1F505000080969837
:1001A00000000040420F000000A086010000001087
:1001B0002700000000E803000000006400000000C9
:1001C000000A00000000000100000000002C76D8AA
:1001D00088DC674F0823DFC1DFAE59E1B1B796E590
:1001E000E3E453C63AE651997696E8E6C28426EBF4
:1001F000898C9B62ED407C6FFCEFBC9C9F40F2BA07
:10020000A56FA5F490055A2AF75C936B6CF9676D9E
:10021000C11BFCE0E40D47FEF520E6B500D0ED90F3
:100220002E0300943577050080841E080000204EC0
:100230000A000000C80C333333330F986E12831159
:1002400041EF8D2114893BE65516CFFEE6DB18D130
:10025000844B381BF77C1D901DA4BBE42420328402
:10026000725E228100C9F124ECA1E53D27434F4D88
:100270004D554E49434154494F4E004452595255F1
:100280004E004552524F525300494E464F0045438F
:10029000484F0053544F505045442E20005072692F
:1002A0006E7465722073746F707065642064756518
:1002B00020746F206572726F72732E2046697820E9
:1002C000746865206572726F7220616E6420757348
:1002D00065204D39393920746F20726573746172ED
:1002E000742E202854656D70657261747572652076
:1002F00069732072657365742E2053657420697468
:100300002061667465722072657374617274696EBF
:1003100067290A004E6F20436865636B73756D2013
:1003200077697468206C696E65206E756D626572A0
:100330002C204C617374204C696E653A20004E6F1E
:1003400020436865636B73756D2077697468206CF2
:10035000696E65206E756D6265722C204C617374D8
:10036000204C696E653A2000636865636B73756D38
:10037000206D69736D617463682C204C6173742007
:100380004C696E653A20004C696E65204E756D6251
:100390006572206973206E6F74204C617374204CF9
:1003A000696E65204E756D6265722B312C204C6133
:1003B0007374204C696E653A20004D313130005322
:1003C000657269616C20737461747573206D6973F3
:1003D0006D617463680A005344207265616420652E
:1003E00072726F720A00746F6F206D756368206996
:1003F0006E6163746976652074696D65202D206374
:10040000757272656E7420636F6D6D616E643A20F3
:10041000002121204B494C4C206361757365642099
:1004200062792000627573793A2070617573656432
:1004300020666F7220696E7075740A006275737938
:100440003A2070617573656420666F7220757365FC
:10045000720A00627573793A2070726F6365737304
:10046000696E670A004D656469612052656D6F763B
:100470006564004D6564696120496E7365727465D9
:100480006400506C6561736520526573657400503B
:1004900052494E5445522048414C5445440025533E
:1004A0003A20255300706F7765726F6666004B497E
:1004B0004C4C45442E20005072696E746572206861
:1004C000616C7465642E206B696C6C2829206361F3
:1004D0006C6C6564210A006563686F3A004572724E
:1004E0006F723A004F4646004F4E0042696C696E8B
:1004F000656172204C6576656C696E67204772692C
:10050000643A0A004F46460A004661646520486521
:10051000696768742000426564204C6576656C6983
:100520006E6720004661696C656420746F20656E9B
:1005300061626C6520426564204C6576656C696E0D
:10054000670A00496E76616C6964206D6573682E78
:100550000A0050726F62696E6720506F696E740096
:1005600025532025692F2569002E0A002F0050727F
:100570006F62696E67206D65736820706F696E7455
:100580002000202844525952554E29004732392024
:100590004175746F20426564204C6576656C696EA8
:1005A00067003F20284C2C522C462C4229206F7586
:1005B00074206F6620626F756E64732E0A003F2888
:1005C00056296572626F7365206C6576656C20696B
:1005D0006D706C61757369626C652028302D3429EB
:1005E0002E0A00426164205A2076616C75650A000B
:1005F0004E6F2062696C696E656172206772696412
:100600000A004163637572616379204465637265B2
:100610006173696E67210044656372656173696E19
:100620006720416363757261637920446574656313
:100630007465642E0A004732385A0041636375724C
:100640006163793A2000206F6620004469642000CD
:100650004733342061626F727465642E0A0041630F
:1006600063757261637920416368696576656400CA
:100670005461726765742061636375726163792088
:1006800061636869657665642E0A00313A323D25FA
:1006900073000A5A322D5A313D0050726F62696EF2
:1006A00067204661696C65640050726F62696E67AD
:1006B000206661696C65640A0047333420497465BB
:1006C000726174696F6E3A202569000A47333420DD
:1006D000497465726174696F6E3A20003F28412940
:1006E0006D706C696669636174696F6E206F757493
:1006F000206F6620626F756E64732028302E352D52
:10070000322E30292E0A003F285429617267657401
:10071000206163637572616379206F7574206F6601
:1007200020626F756E64732028302E30312D312E8B
:1007300030292E0A003F2849297465726174696F57
:100740006E206F7574206F6620626F756E64732003
:1007500028312D3330292E0A0020204D343232200A
:1007600053005A204175746F2D416C69676E0020EB
:10077000440020204D32303020530020284469733B
:1007800061626C6564293A0046696C616D656E74DE
:100790002073657474696E67730020204D323031A8
:1007A0002058004D617820416363656C6572617407
:1007B000696F6E2028756E6974732F73322900205B
:1007C000204D3230332058004D61782066656564D5
:1007D00072617465732028756E6974732F732900B4
:1007E00020520020204D3230342050004163636598
:1007F0006C65726174696F6E2028756E6974732FF1
:100800007332292028503C7072696E742D616363C5
:10081000656C3E20523C726574726163742D616335
:1008200063656C3E20543C74726176656C2D616327
:1008300063656C3E2900204A0020540020530020AC
:10084000204D323035204200416476616E6365642C
:100850002028423C6D696E5F7365676D656E745FDD
:1008600074696D655F75733E20533C6D696E5F669C
:10087000656564726174653E20543C6D696E5F7499
:10088000726176656C5F66656564726174653E2051
:100890004A3C6A756E635F6465763E2900204400B9
:1008A00020490020204D333031205000486F7465BE
:1008B0006E64205049440020440020490020204D0F
:1008C00033303420500042656420504944003B20BE
:1008D0000020496E76616C69642065787472756475
:1008E00065722000536C6565702E2E2E005A2050C4
:1008F000726F62652050617374204265640A005A09
:100900002050726F626520506173742042656400EC
:100910004732384C3000205A3A200020593A200003
:1009200042656420583A20004D65736820706F69F5
:100930006E74206F7574206F662072616E67650A31
:1009400000436C69636B20746F20526573756D652D
:100950002E2E2E004E6F204D6F76652E00456E6454
:100960002066696C65206C6973740A00426567696A
:100970006E2066696C65206C6973740A004E6F2086
:100980006D656469610A00706175736500286E6F3A
:100990002066696C65290043757272656E74206605
:1009A000696C653A20004E6F742053442070726960
:1009B0006E74696E670A005344207072696E7469C0
:1009C0006E67206279746520002E0A0044656C65AC
:1009D00074696F6E206661696C65642C2046696C71
:1009E000653A200046696C652064656C65746564D1
:1009F0003A002569730025696D2025697300256912
:100A0000682025696D2025697300256964202569A2
:100A1000682025696D20256973002569792025697D
:100A200064202569682025696D202569730050724E
:100A3000696E742074696D653A20006F6B006F6693
:100A400066008E02890282027B026D024445425595
:100A5000473A004D3131322053687574646F776EB8
:100A6000004D3131332053004672616E6B656E6804
:100A7000616F206933204F46462E002F2F004D31E5
:100A8000343520533C696E6465783E206F75742060
:100A90006F662072616E67652028302D31290A004B
:100AA0003F4A206F7574206F662072616E67652003
:100AB00028302E303120746F20302E33290A002048
:100AC000580020204D61783A2000200020204D69F8
:100AD0006E3A2000203B200020204D32313120533F
:100AE00000536F667420656E6473746F70730025B5
:100AF0000A0046523A0020466C6F773A20003A20AE
:100B00000020536572766F2000206F7574206F6629
:100B10002072616E67650A00536572766F2000422D
:100B200061627973746570205A0050726F6265203B
:100B30004F6666736574205A0050726F6265204F6D
:100B40006666736574205A0064697300656E0043BD
:100B5000290A0061626C656420286D696E207465E5
:100B60006D702000436F6C642065787472756465E5
:100B7000732061726520004D34323120696E636FDD
:100B8000727265637420706172616D657465722044
:100B900075736167650A004D65736820706F696ED3
:100BA00074206F7574206F662072616E67650A002D
:100BB0004F666673657473204170706C696564007C
:100BC0004572723A20546F6F206661722100546F33
:100BD0006F206661722066726F6D20726566657245
:100BE000656E636520706F696E740A0045455052EA
:100BF0004F4D204F4B0A00290A0020746F20003F00
:100C00005A206F7574206F662072616E67652028A8
:100C100000290A0020746F20003F59206F7574204E
:100C20006F662072616E676520282D00290A0020FA
:100C3000746F20003F58206F7574206F66207261BA
:100C40006E676520282D003F285929206F75742074
:100C50006F6620626F756E64732E0A003F285829F4
:100C6000206F7574206F6620626F756E64732E0A34
:100C70000020696E64657820696E76616C69642015
:100C800028312E2E32292E0A003F28532920507257
:100C90006F62652D706F736974696F6E003F2853C2
:100CA000292069732072657175697265642E0A0066
:100CB0004D383400446F6E65207072696E74696ED1
:100CC000672066696C650A004D3737004D33310087
:100CD000496E76616C6964206578747275646572BA
:100CE0000A0020204D323036205800486F6D6520B4
:100CF0006F6666736574004361703A00434F4E46F9
:100D000049475F4558504F5254004D45415450415A
:100D1000434B00434F4F4C45525F54454D50455255
:100D20004154555245004348414D4245525F544558
:100D30004D50455241545552450042414259535439
:100D4000455050494E470041524353004D4F54497E
:100D50004F4E5F4D4F44455300544845524D414C12
:100D60005F50524F54454354494F4E0045585445E7
:100D70004E4445445F4D323000435553544F4D5F10
:100D80004649524D574152455F55504C4F414400E2
:100D90004C464E5F5752495445004C4F4E475F46B4
:100DA000494C454E414D45004155544F5245504FD9
:100DB00052545F53445F5354415455530053445F5E
:100DC000575249544500524550454154004D554CE9
:100DD00054495F564F4C554D45005344434152448E
:100DE0000050524F4D50545F535550504F52540085
:100DF000484F53545F414354494F4E5F434F4D4D0D
:100E0000414E445300454D455247454E43595F506E
:100E1000415253455200434153455F4C4947485462
:100E20005F4252494748544E45535300544F474739
:100E30004C455F4C494748545300534F4654574123
:100E400052455F504F574552004255494C445F5000
:100E5000455243454E54004C4556454C494E475F1C
:100E600044415441005A5F50524F42450052554E42
:100E70004F5554004155544F4C4556454C00505227
:100E8000494E545F4A4F420050524F4752455353C8
:100E9000004155544F5245504F52545F54454D50A8
:100EA000004155544F5245504F52545F504F5300DC
:100EB000564F4C554D455452494300454550524FAD
:100EC0004D0042494E4152595F46494C455F54528C
:100ED000414E534645520053455249414C5F584F8D
:100EE0004E5F584F4646004649524D574152455F66
:100EF0004E414D453A4D61726C696E206275676670
:100F000069782D322E312E7820284D6172202031C3
:100F100020323032332030373A35353A33302920D9
:100F2000534F555243455F434F44455F55524C3AEA
:100F30006769746875622E636F6D2F4D61726C699D
:100F40006E4669726D776172652F4D61726C696E64
:100F50002050524F544F434F4C5F56455253494FC8
:100F60004E3A312E30204D414348494E455F545949
:100F700050453A4672616E6B656E68616F206933E9
:100F80002045585452554445525F434F554E543AAC
:100F90003120555549443A63656465326132662DA6
:100FA000343161322D343734382D396231322D638A
:100FB00035356336326633363766660047322F473B
:100FC000332062616420706172616D657465727353
:100FD0000A00203B0020204D3835312058005A2D82
:100FE00050726F6265204F66667365740020573AD1
:100FF00000436F6F6C696E672E2E2E0045312025E1
:10100000530020573A0042656420436F6F6C696E4D
:10101000672E2E2E004265642048656174696E67F4
:101020002E2E2E0023646566696E65204445464178
:10103000554C545F0000626564004B6420004B69AE
:1010400020004B7020002066696E6973686564211A
:101050002050757420746865206C617374204B7027
:101060002C204B6920616E64204B6420636F6E738B
:1010700074616E74732066726F6D2062656C6F7739
:1010800020696E746F20436F6E6669677572617454
:10109000696F6E2E680A00504944204175746F7460
:1010A000756E6500206661696C6564212074696DE8
:1010B000656F75740A00504944204175746F7475EA
:1010C0006E6500206661696C6564212054656D70F1
:1010D0006572617475726520746F6F2068696768E6
:1010E0000A00504944204175746F74756E65005054
:1010F0004944204379636C65730025532025692F8B
:10110000256900204B643A2000204B693A200020DA
:101110004B703A200020436C61737369632050491F
:1011200044200A00204E6F206F76657273686F6FDF
:10113000740A002054753A2000204B753A20002094
:101140006D61783A2000206D696E3A200020643A83
:10115000200020626961733A200048656174696EFD
:10116000672E2E2E002073746172740A0050494459
:10117000204175746F74756E6500206661696C65D9
:1011800064212054656D7065726174757265207498
:101190006F6F20686967680A005049442041757480
:1011A0006F74756E6500504944204175746F747595
:1011B0006E6500206661696C65642120426164206F
:1011C0006865617465722069640A00504944204171
:1011D00075746F74756E65004572723A2075746629
:1011E0003820666F6E74206E6F7420696E69746942
:1011F000616C697A65642E004572723A2075746676
:101200003820666F6E74206E6F7420696E69746921
:10121000616C697A65642E004572723A2075746655
:101220003820666F6E74206E6F7420696E69746901
:10123000616C697A65642E002000200020003A006D
:101240003A002568753A25303268750025303268D5
:10125000753A25303268750025303268752725309B
:1012600032687500256875642025303268753A2526
:10127000303268750042656400456E636C6F73754B
:10128000726500450020002500202020202020201D
:10129000002020202000657272001FE02010201026
:1012A0002010102010202010201030300840048022
:1012B00003001FE03FF03FF03FF01FE01FE03FF072
:1012C0003FF03FF00FC0078003003FFFF038007091
:1012D00030FC3020FC102078102030102C00D02E54
:1012E00031D02F7BD02F7BD02E31D02C00D020308E
:1012F0001020781020FC1030FC303800703FFFF0D8
:101300003FFFF03800703186302387102787902FF9
:1013100087D02F03D0203010207810207810203074
:10132000102F03D02F87D027879023871031863046
:101330003800703FFFF01FFFF81FFFF80410400255
:1013400008200208200410400820801041001041AD
:10135000000820800410400000001FFFF81FFFF865
:1013600063616E63656C005072696E742041626FD8
:1013700072746564004D32350050617573696E6733
:101380002E2E2E00726573756D65004D323400454A
:101390004550524F4D2056657273696F6E204572ED
:1013A000726F7200454550524F4D20496E6465780A
:1013B000204572726F7200454550524F4D20435286
:1013C00043204572726F72003F0049676E6F72650D
:1013D00000526573657400496E697469616C697A5D
:1013E0006520454550524F4D0050726F6265205A3E
:1013F000204F66667365740046696C2E20446961EF
:101400002E004F6666004F6E004520696E206D6DA0
:101410005E330020082046616374002008204D617F
:1014200078002008204D696E004D696E205472616D
:1014300076656C205370656564004D696E20566555
:101440006C6F63697479004D61782040205370653A
:101450006564004D6178204520416363656C004DF3
:101460006178204020416363656C00547261766549
:101470006C20416363656C00526574726163742013
:10148000416363656C00416363656C005A20507270
:101490006F62652057697A6172640050726F62658D
:1014A000205A204F66667365740050726F62652023
:1014B00059204F66667365740050726F62652058DC
:1014C000204F666673657400402073746570732FD7
:1014D0006D6D00416476616E63656420536574745C
:1014E000696E6773003F0043616E63656C00496E0F
:1014F0006974004D34323800496E697469616C69F1
:101500007A6520454550524F4D0046696C616D65C6
:101510006E740054656D7065726174757265005308
:10152000746570732F6D6D0050726F6265204F6629
:101530006673657473004A756E6374696F6E2044D8
:10154000657600416363656C65726174696F6E00F6
:101550004D617820537065656420286D6D2F732967
:101560000053657420486F6D65204F66667365741F
:101570007300436F6E66696775726174696F6E00A0
:10158000000C0F00FE07022503BB017FFE08FE08CA
:10159000FE05080806000040F0C888889878100505
:1015A0000808060000C0F88888888888F8050505BE
:1015B0000600012030F830200508080600002070E1
:1015C000F820202020E00509090600FF2070A8A8C7
:1015D000B888887020070505070001D86C366CD8DC
:1015E0000509090600FFF8A88888888888A8F805F2
:1015F0000A0A0600FE205050505088A8A8887003A0
:10160000030306000340A040FFFFFFFFFFFFFFFFB3
:10161000FFFFFFFFFFFFFFFFFFFFFFFFFFFF0000D8
:10162000000605FF01070706020080808080800019
:1016300080030303060105A0A0A00506060600001E
:1016400050F85050F8500509090600FF2070A8A076
:101650007028A87020050707060000C8C8102040A1
:10166000989805070706000040A0A040A8906801D0
:1016700003030602058080800309090601FF20405C
:10168000408080804040200309090601FF804040DF
:1016900020202040408005070706000020A8702079
:1016A00070A8200505050600012020F8202002036F
:1016B000030601FFC04080050101060003F8020295
:1016C00002060100C0C00507070600000810102030
:1016D000404080050707060000708898A8C88870F9
:1016E00003070706010040C040404040E0050707EF
:1016F000060000708808102040F805070706000063
:10170000F8081030088870050707060000103050F0
:1017100090F81010050707060000F880F008088808
:1017200070050707060000304080F08888700507C4
:1017300007060000F8081010202020050707060003
:101740000070888870888870050707060000708818
:101750008878081060020505060100C0C000C0C0FE
:101760000206060601FFC0C000C040800305050652
:1017700001012040804020050303060002F800F824
:10178000030505060101804020408005070706008B
:1017900000708810202000200507070600007088D0
:1017A000B8A8B88070050707060000708888F88818
:1017B0008888050707060000F04848704848F0058B
:1017C000070706000070888080808870050707067C
:1017D0000000F04848484848F0050707060000F8B0
:1017E0008080F08080F8050707060000F88080F010
:1017F00080808005070706000070888080988870C8
:10180000050707060000888888F888888803070786
:10181000060100E04040404040E0050707060000A8
:10182000381010101090600507070600008890A07F
:10183000C0A0908805070706000080808080808017
:10184000F805070706000088D8A888888888050753
:10185000070600008888C8A898888805070706003A
:101860000070888888888870050707060000F0885F
:1018700088F080808005070706000070888888A8A7
:101880009068050707060000F08888F0A09088059A
:101890000707060000708880700888700507070633
:1018A0000000F820202020202005070706000088DF
:1018B00088888888887005070706000088888888D7
:1018C00050502005070706000088888888A8A8507F
:1018D00005070706000088885020508888050707FC
:1018E00006000088885020202020050707060000F9
:1018F000F80810204080F80309090601FFE0808005
:101900008080808080E0050707060000804040203E
:101910001010080309090601FFE0202020202020E4
:1019200020E005030306000520508805010106009C
:10193000FEF80303030601058040200505050600A7
:101940000070087888780507070600008080F08816
:101950008888F005050506000070808088700507FE
:1019600007060000080878888888780505050600BD
:10197000007088F08070050707060000304840E0DE
:101980004040400507070600FE7088888878087088
:101990000507070600008080F0888888880307070D
:1019A0000601004000C0404040E00409090601FE75
:1019B000100030101010109060050707060000801E
:1019C000808890E09088030707060100C0404040EF
:1019D0004040E0050505060000D0A8A8A8A8050518
:1019E00005060000B0C88888880505050600007057
:1019F000888888700507070600FEF0888888F080D0
:101A0000800507070600FE7888888878080805059D
:101A100005060000B0C88080800505050600007836
:101A2000807008F00507070600002020F82020201D
:101A300018050505060000888888986805050506CC
:101A4000000088888850200505050600008888A8C1
:101A5000A850050505060000885020508805070796
:101A60000600FE8888885020408005050506000095
:101A7000F8102040F80309090601FF20404040808B
:101A8000404040200109090602FF8080808080805C
:101A90008080800309090601FF80404040204040CB
:101AA000408005030306000248A890FF414253000E
:101AB000504C41003F004E65787420436F726E6554
:101AC0007200446F6E65004E6578740053746F72D7
:101AD000652053657474696E6773004C6F61642090
:101AE00053657474696E6773004265642054726153
:101AF0006D6D696E670050726F6265205A204F6687
:101B0000667365740046616465204865696768743A
:101B1000004F6666004F6E00426564204C65766536
:101B20006C696E67004C6576656C204265640047A1
:101B300032394E00473239004175746F20486F6D5D
:101B400065004D6F74696F6E0053572D4D6F64655E
:101B50000053746F77004465706C6F790053656C47
:101B6000662D546573740052657365740042656434
:101B7000004E6F7A7A6C650046616E205370656521
:101B80006400436F6E66696775726174696F6E0099
:101B9000526573746F72652044656661756C747309
:101BA000004C6F61642053657474696E67730053F1
:101BB000746F72652053657474696E677300507238
:101BC0006568656174202420436F6E6600424C5442
:101BD0006F7563680050726F6265205A204F6666A9
:101BE00073657400416476616E6365642053657447
:101BF00074696E6773004D61696E003F00426163F6
:101C00006B0053746F70004E6F204D656469610006
:101C10005072696E742066726F6D204D65646961E3
:101C2000004368616E6765204D65646961004D32EF
:101C30003100436F6E66696775726174696F6E001B
:101C400054656D7065726174757265004D6F74696D
:101C50006F6E00526573756D65205072696E740009
:101C600054756E650053746F70205072696E740005
:101C70005061757365205072696E7400496E666FAD
:101C80002053637265656E003F0053746172742067
:101C90005072696E740043616E63656C00507269C6
:101CA0006E740043616E6E6F7420656E7465722091
:101CB0007375626469723A200002202E2E004D6115
:101CC000696E002100486F74656E6420746F6F2028
:101CD000636F6C64004261636B0050726F63656593
:101CE00064004D6F76652045787472756465720086
:101CF0004D6F74696F6E0044697361626C65205347
:101D000074657070657273004D38340042656420EC
:101D10004C6576656C696E67005A2050726F62651B
:101D20002057697A6172640053746F77205A2D507E
:101D3000726F6265004D343032004465706C6F79AB
:101D4000205A2D50726F6265004D3430310041755C
:101D5000746F205A2D416C69676E0047333400411F
:101D600075746F20486F6D65004D61696E00436149
:101D70006E63656C00446F6E65004D6F7665202460
:101D80006D6D00302E303235004D6F766520302E6F
:101D9000316D6D004D6F766520316D6D0050726F45
:101DA0006265205A204F6666736574005A004D6F55
:101DB0007665204E6F7A7A6C6520746F2042656478
:101DC000004D6F76696E6720746F2050726F626984
:101DD0006E6720506F7300486F6D696E67205859A9
:101DE0005A004732380050726568656174202420BB
:101DF0004265640050726568656174202420456EF8
:101E0000640054656D706572617475726500B01A16
:101E1000AC1A436F6F6C646F776E005072656865C3
:101E2000617420240046616E205370656564004231
:101E30006564004E6F7A7A6C65004D61696E005082
:101E4000726F6265205A204F666673657400466C37
:101E50006F770046616E205370656564004265646B
:101E6000004E6F7A7A6C65005370656564004D6151
:101E7000696E006F70656E00545249474745524580
:101E800044003A20007A5F6D696E00795F6D696E7B
:101E900000785F6D696E005265706F7274696E676D
:101EA00020656E6473746F70207374617475730A47
:101EB0000020746F6F206C6F6E6720657874727588
:101EC00073696F6E2070726576656E7465640A0062
:101ED00020636F6C6420657874727573696F6E200F
:101EE00070726576656E7465640A00486F6D652072
:101EF0002573204669727374000000000000000022
:101F000000000000005761726E696E673A20486FEA
:101F10006D696E672042756D702044697669736FD4
:101F200072203C20310A0002020400003E430000FF
:101F30003E43000016430000A0400000A040000007
:101F4000004053544F505045442E20005072696E4B
:101F50007465722073746F70706564206475652099
:101F6000746F206572726F72732E204669782074C8
:101F70006865206572726F7220616E64207573658A
:101F8000204D39393920746F207265737461727411
:101F90002E202854656D70657261747572652069B4
:101FA000732072657365742E2053657420697420E4
:101FB00061667465722072657374617274696E67AC
:101FC000290A00206572726F72202D207265737469
:101FD0006172742077697468204D3939390A00427A
:101FE0004C546F7563680021212053544F50206377
:101FF000616C6C65642062656361757365206F66F2
:10200000200000003E4300003E4300001643000055
:102010000000000000000000000053657474696E49
:1020200067732053746F72656400290A0020627917
:102030007465733B20637263200053657474696E2A
:1020400067732053746F726564202800486172645E
:10205000636F6465642044656661756C74205365C4
:102060007474696E6773204C6F6164656400202826
:102070006D6D2900203B204C6576656C696E67208C
:102080000020204D3432302053004175746F2042BF
:102090006564204C6576656C696E6700204600209B
:1020A000420020480020204D3134352053004D613E
:1020B00074657269616C2068656174757020706107
:1020C00072616D657465727300204A00202047328A
:1020D00039205720490020204D3134392043203BFE
:1020E00020556E69747320696E2043656C73697541
:1020F000730A0054656D7065726174757265205560
:102100006E697473002020473231203B004C696EA9
:1021100065617220556E69747300454550524F4D8C
:10212000206461746173697A65206572726F722EC2
:102130000A00290A002062797465733B2063726388
:1021400020002073746F7265642073657474696E07
:102150006773207265747269657665642028002053
:102160002863616C63756C6174656429210A0020C1
:10217000213D2000454550524F4D20435243206D94
:1021800069736D61746368202D202873746F7265A4
:10219000642920002053697A653A2000496E6465FD
:1021A000783A200000002F4400002F440000C8426D
:1021B00000401C460000A0420000A0420000C843AE
:1021C0000000C042B80B0000B80B00006400000023
:1021D00010270000204D61726C696E3D563837291A
:1021E0000A00454550524F4D2076657273696F6EF7
:1021F000206D69736D617463682028454550524FA6
:102200004D3D0020436F756E7420583A004265645E
:10221000004531004500626564002C2073797374B9
:10222000656D2073746F70706564212048656174FA
:1022300065725F49443A20004572723A204D415818
:1022400054454D50004D415854454D5020747269CD
:102250006767657265640048656174696E672046EA
:1022600061696C65640048656174696E67206661C8
:10227000696C6564004572723A204D494E54454D73
:1022800050004D494E54454D502074726967676542
:1022900072656400544845524D414C2052554E41A0
:1022A00057415900546865726D616C2052756E61BA
:1022B00077617900202F002042403A0020403A0008
:1022C0007C3C3E5E2B3D3F2F5B5D3B2C2A225C001D
:1022D0004D6564696120496E6974204661696C00CE
:1022E00053442063617264206F6B0A006F70656EE7
:1022F000526F6F74206661696C65640A00766F6C5A
:10230000756D652E696E6974206661696C65640A15
:10231000004E6F20534420636172640A00534420CE
:10232000636172642072656C65617365640A000A9A
:102330004D3234004D3233202573002E0A006F7069
:10234000656E206661696C65642C2046696C653A2F
:10235000200046696C652073656C65637465640A6A
:10236000002053697A653A200046696C65206F70D9
:10237000656E65643A2000454E4420535542524FE5
:102380005554494E450A002220706F730022207078
:102390006172656E743A2200535542524F5554494A
:1023A0004E452043414C4C207461726765743A225B
:1023B0000053756263616C6C204F766572666C6F5A
:1023C00077004578636565646564206D61782053A6
:1023D0005542524F5554494E452064657074683AD1
:1023E0000057726974696E6720746F2066696C6546
:1023F0003A2000667265736800646F696E6700203A
:1024000066696C653A20004E6F7720002F61757405
:102410006F25632E67006D61726C696E66772E6F33
:102420007267006275676669782D322E312E7800EA
:102430001FFFFFFFFFFFFF600000000001FF4000E3
:1024400000000000FF8000000000007F83CF00003C
:102450000C303F87FF80000C301F867980000C0015
:102460000F8C30C7838C30E78C30CFC7CC31F38CE6
:1024700030DCECEC33B98C30D86C6C33198C30D048
:102480006C0C33198C30D86C0C33198C30DC6C0E1E
:102490003B198C30CF7C079F198C30C77C038F1978
:1024A00040000000000002600000000000061FFF66
:1024B000FFFFFFFFF870012C0190012701B00122FE
:1024C00001C0011D01F00118011002130130020EBC
:1024D000016002090190020401C002FF000003FA3A
:1024E000004003F5008003F000D003EB002004E679
:1024F000007004E100E004DC004005D700C005D214
:10250000004006CD00D006C8008007C3003008BEDA
:1025100000F008B900C009B400B00AAF00B00BAABF
:1025200000D00CA500000EA000500F9B00C010961C
:10253000005012910000148C00C0158700B0178263
:1025400000B0197D00D01B7800001E730040206E83
:102550000090226900F024640040275F0090295A0F
:1025600000E02B5500102E500020304B001032465A
:1025700000E033410090353C0010373700703832AE
:1025800000A0392D00B03A2800A03B2300603C1E7B
:1025900000103D1900903D1400103E0F00703E0ADF
:1025A00000C03E0500003F0000403FFBFF803FF6BB
:1025B000FFC03FF1FF2020506C616E6E6572427566
:1025C0006666657242797465733A200020467265CA
:1025D00065204D656D6F72793A200020436F6D70F4
:1025E000696C65643A204D617220203120323032AE
:1025F000330A00204C617374205570646174656403
:102600003A20323032332D30322D3234207C20418A
:102610007574686F723A202862792043726F737301
:1026200066697265290A004D61726C696E20627577
:10263000676669782D322E312E780A0020536F6636
:1026400074776172652052657365740A0020576162
:10265000746368646F672052657365740A00204272
:10266000726F776E206F75742052657365740A00FF
:102670002045787465726E616C2052657365740ACA
:1026800000506F77657255700A0073746172740A36
:10269000004732385859004D31303031006F6B00EF
:1026A0006572726F722077726974696E6720746FD9
:1026B0002066696C650A00446F6E652073617669F7
:1026C0006E672066696C652E0A004D323900456ED2
:1026D0006473746F70730025532025632025632075
:1026E000256320256300205A3A0020593A002058DB
:1026F0003A00656E6473746F7073206869743A2071
:102700000000000A0B02090C0D0E0807030401006B
:1027100000000000000000000000000000000000B9
:102720000000000000000000000000000012111076
:102730000000000000000000000000000000000099
:102740000000000000000024F404D9201BC40C5C2D
:102750000E9804C4095F0265077101F405F900FBD6
:1027600004B30048048700C10369005803550003FF
:10277000034500BE023A008402310053022A0029B8
:1027800002250004022000E4011C00C8011900AF6A
:1027900001170098011400840113007101100061F9
:1027A00001100051010E0043010D0036010B002BFA
:1027B000010B0020010B00150109000C01090003A9
:1027C000010800FB000800F3000800EB000700E42C
:1027D000000600DE000600D8000600D2000600CC8D
:1027E000000500C7000500C2000500BD000400B9D7
:1027F000000400B5000400B1000400AD000400A90D
:10280000000400A5000300A20003009F0004009B39
:10281000000300980003009500020093000300905D
:102820000003008D0002008B000300880002008678
:1028300000020084000300810002007F0002007D8E
:102840000002007B000200790002007700010076A0
:102850000002007400020072000100710002006FAB
:102860000002006D0001006C0002006A00010069B6
:1028700000020067000100660001006500010064BD
:102880000002006200010061000100600001005FC1
:102890000002005D0001005C0001005B0001005AC5
:1028A00000010059000100580001005700010056C6
:1028B00000010055000100540001005300000053C6
:1028C0000001005200010051000100500001004FC2
:1028D0000001004E0000004E0001004D0001004CC0
:1028E0000001004B0000004B0001004A00010049BC
:1028F00000010048000000480001004700010046B8
:1029000000000046000100450000004500010044B1
:1029100000010043000000430001004200000042AB
:102920000001004100000041000100400001003FA3
:102930000000003F0001003E0000003E0001003D9D
:102940000000003D0001003C0000003C0000003C95
:102950000001003B0000003B0001003A0000003A8B
:102960000001003900000039000100380000003883
:102970000000003800010037000000370001003679
:102980000000003600000036000100350000003570
:102990000000003500010034000000340000003465
:1029A000000100330000003300000033000100325A
:1029B0000000003200000032000100310000003150
:1029C0000000003100010030000000300000003045
:1029D0000001002F0000002F0000002F0000002F3A
:1029E0000001002E0000002E0000002E0001002D2E
:1029F0000000002D0000002D0000002D0001002C23
:102A00000000002C0000002C0000002C0001002B16
:102A10000000002B0000002B0000002B0001002A0A
:102A20000000002A0000002A0000002A00010029FE
:102A300000000029000000290000002900000029F2
:102A400000010028000000280000002800000028E5
:102A500000000028000100270000002700000027D8
:102A600000000027000000270001002600000026CB
:102A700000000026000000260000002600010025BE
:102A800000000025000000250000002500000025B2
:102A900000000025000100240000002400000024A4
:102AA0000000002400000024000100230000002397
:102AB000000000230000002300000023000000238A
:102AC000000000230001002200000022000000227C
:102AD000000000220000002200000022000100216E
:102AE0000000002100000021000000210000002162
:102AF0000000002100000021000100200000002053
:102B00000000002000000020000000200000002045
:102B100000000020000000200001001F0000001F36
:102B20000000001F0000001F0000001F0000001F29
:102B30000000001F0001001E0000001E0000001E1B
:102B40000000001E00000024F4D43050C38E20C2C8
:102B5000A24017828B7011127A910D816CD90AA84C
:102B600061E108C7586607615143061E4B5D05C108
:102B700045A7041A411104093D98037139310340F6
:102B800036DB0265339102D4305402802E1D02637D
:102B90002CEE01752AC501B028A001102781018FF4
:102BA0002564012B244B01E0223401AC211F018D4F
:102BB000200D01801FFC00841EED00971DDF00B872
:102BC0001CD200E61BC600201BBC00641AB200B277
:102BD00019A8000A19A0006A189900D1179100409D
:102BE000178B00B516840031167E00B31579003AB4
:102BF000157300C7146F0058146A00EE136600883E
:102C000013630025135E00C7125B006C125700159A
:102C1000125400C111510070114F0021114B00D608
:102C20001049008D1047004610440002104200C0B9
:102C30000F4000800F3E00420F3C00060F3B00CBD0
:102C40000E3800930E37005C0E3500270E3400F36B
:102C50000D3200C10D3100900D3000600D2E00329C
:102C60000D2D00050D2C00D90C2B00AE0C29008574
:102C70000C29005C0C2700350C27000E0C2600E800
:102C80000B2400C40B2400A00B23007D0B23005A4F
:102C90000B2100390B2100180B2000F80A1F00D966
:102CA0000A1E00BB0A1E009D0A1D00800A1D00634B
:102CB0000A1C00470A1B002C0A1B00110A1A00F705
:102CC000091A00DD091900C4091900AB091900929D
:102CD0000917007B091800630917004C0916003614
:102CE000091600200916000A091500F5081500E06C
:102CF000081400CC081400B8081400A408140090AC
:102D00000813007D0812006B0813005808120046D3
:102D100008120034081100230811001208110001E4
:102D2000081100F0071000E0071000D0071000C0E5
:102D3000071000B0070F00A107100091070E0083D5
:102D4000070F0074070F0065070E0057070E0049B4
:102D5000070E003B070D002E070E0020070D001385
:102D6000070D0006070D00F9060C00ED060D00E04A
:102D7000060C00D4060C00C8060C00BC060C00B003
:102D8000060C00A4060B0099060C008D060B0082B1
:102D9000060B0077060B006C060B0061060A005755
:102DA000060B004C060A0042060A0038060A002EEE
:102DB000060A0024060A001A060A0010060900077F
:102DC000060A00FD050900F4050900EB050900E20B
:102DD000050900D9050900D0050900C7050900BE8D
:102DE000050900B5050800AD050800A50509009C0A
:102DF000050800940508008C050800840508007C7F
:102E0000050800740508006C050700650508005DED
:102E1000050700560508004E050700470507004056
:102E200005080038050700310507002A05070023BB
:102E30000507001C050600160507000F050700081A
:102E400005060002050700FB040600F5040700EE76
:102E5000040600E8040600E2040700DB040600D5CF
:102E6000040600CF040600C9040600C3040600BD22
:102E7000040600B7040600B1040500AC040600A671
:102E8000040600A00405009B0406009504050090BC
:102E90000406008A04050085040500800406007A03
:102EA00004050075040500700405006B0405006648
:102EB000040500610405005C040500570405005288
:102EC0000405004D04050048040500430405003EC8
:102ED0000404003A04050035040500300404002C05
:102EE00004050027040400230405001E0404001A3E
:102EF00004040016040500110404000D0404000974
:102F00000405000404040000040400FC030400F8A9
:102F1000030400F4030400F0030400EC030400E8DD
:102F2000030400E4030400E0030400DC030400D80D
:102F3000030400D4030400D0030400CC030400C83D
:102F4000030300C50303005D2E0000891D00001D62
:102F50001100004C090000DB0400007C020000416D
:102F6000010000A10000004D6F766520246D6D000A
:102F7000302E303235004D6F766520302E316D6D3C
:102F8000004D6F766520316D6D004D6F7665203197
:102F9000306D6D004D6F76652041786973004D6F1F
:102FA0007665202A004D6F766520400020002000C5
:102FB0002000486F6D696E67204661696C6564002A
:102FC000FFFFFF50726F62696E67204661696C6532
:102FD000640A0050726F62696E67204661696C65B1
:102FE0006400205A3A200020593A200042656420AB
:102FF000583A200043616E6E6F74206F70656E20CA
:103000007375626469722000220A00556E6B6E6FE0
:10301000776E20636F6D6D616E643A2022002045EB
:1030200000205A0020590020204D393220580053EA
:10303000746570732070657220756E697400DB0FA3
:10304000C93F45BCDA3F8FB30240FCF0274056949D
:103050006140FE4B9B4084A5D840E0231841346A70
:103060005641E859974164DBD5416E271742B4B702
:103070005542CE1A9742C8AED542B5885A43D406B7
:1030800084BFA65FA7BF7443E0BF10B11AC01C2C59
:1030900058C0E8F697C0B849D6C04E4E17C124D3E1
:1030A00055C1802497C1A0B5D5C1121A17C244AE2C
:1030B00055C2781797C26CACD5C267885AC32074C2
:1030C0006F6F206C6F6E6720657874727573696FAF
:1030D0006E2070726576656E7465640A0020636F99
:1030E0006C6420657874727573696F6E2070726598
:1030F00076656E7465640A006F6B0A0052657365CD
:103100006E643A200020453A00205A3A0020593A8D
:1031100000583A0000002200250028002B002E0055
:103120003100340002010000050108010B0100001C
:103130002100240027002A002D0030003300010167
:103140000000040107010A01050505050705080837
:103150000808020202020A0A080804040404010121
:103160000101010101010303030303030303040736
:1031700007070C0C0C0C0C0C0C0C020202020606CD
:103180000606060606060B0B0B0B0B0B0B0B0102C0
:103190001020200808102040102040800201020169
:1031A0000804020101020408102040808040201021
:1031B000080402018004020180402010080402017A
:1031C00008040201010204081020408001020408E2
:1031D000102040804572726F722077726974696E38
:1031E0006720746F20454550524F4D210A004672AA
:1031F000616E6B656E68616F206933205265616432
:10320000792E005072696E74696E672E2E2E0050F2
:1032100072696E7420506175736564002F2F61634D
:1032200074696F6E3A009A00980011241FBECFEFA8
:10323000D1E2DEBFCDBF00E00CBF84B78093531551
:1032400014BE0FB6F894A8958091600088618093B1
:103250006000109260000FBE13E0A0E0B2E0EAED63
:10326000F5E402E00BBF02C007900D92A43AB1074B
:10327000D9F725E1A4EAB3E001C01D92A335B20756
:10328000E1F719E1C4E1D9E100E006C021970109A5
:10329000802FFE010F94811FC331D10780E0080702
:1032A000A9F70F94E50B0D94DC220C9400008F928B
:1032B0009F92AF92BF92CF92DF92EF92FF926B01FB
:1032C0007C0120E030E0A9010F94BA1887FD6BC0A3
:1032D0006DEB77E386E095E3A70196010F949C1FC1
:1032E0006B017C0120E030E040E251E40F941F19B3
:1032F00020E030E040E251E40F941F194B015C01E3
:1033000020E030E0A901C701B6010F94BA1820E00F
:1033100030E040EA50E487FF04C020E030E040EABB
:1033200050ECC501B4010F949C1F20E030E040E256
:1033300051E40F9478200F94E0209B018BE237FF3B
:1033400005C022273327261B370B8DE28093B1055A
:10335000C90164E670E00F946E1FCB01EAE0F0E073
:10336000BF010F946E1F805D8093B205C901BF013C
:103370000F946E1F282FCB01BF010F946E1F805D2D
:103380008093B3058EE28093B405205D2093B5054C
:1033900081EB95E0FF90EF90DF90CF90BF90AF90E2
:1033A0009F908F9008956DEB77E386E095EB94CF37
:1033B0008F929F92AF92BF92CF92DF92EF92FF9245
:1033C000CF936B017C0120E030E0A9010F94BA1883
:1033D00087FDD6C06DEB77E386E095E3A701960104
:1033E0000F949C1F6B017C0120E030E0A9010F9439
:1033F000BA1887FFCAC0C701B601905820E030E074
:1034000040E251E40F941F1920E030E048EC52E410
:103410000F941F1920E030E040EA50E40F949C1F05
:1034200020E030E040E251E40F9478200F94E02057
:103430006B017C0160E280E4C81682E4D8068FE06C
:10344000E806F1048CF0C701B60120E432E44FE055
:1034500050E00F94061FCA01B9012AE030E040E0B5
:1034600050E00F94061F605D6093AE0560E280EA55
:10347000C81686E8D80681E0E806F1048CF0C7019A
:10348000B60120EA36E841E050E00F94061FCA0179
:10349000B9012AE030E040E050E00F94061F605D83
:1034A0006093AF0560E280E1C81687E2D806E104C8
:1034B000F1048CF0C701B60120E137E240E050E0B2
:1034C0000F94061FCA01B9012AE030E040E050E045
:1034D0000F94061F605D6093B00560E288EEC81629
:1034E00083E0D806E104F1048CF0C701B60128EEB0
:1034F00033E040E050E00F94061FCA01B9012AE012
:1035000030E040E050E00F94061F605D6093B1052D
:10351000C701B60124E630E040E050E00F94061FFA
:103520008AE0882E912CA12CB12CCA01B901A501E9
:1035300094010F94061F605D6093B2058EE2809344
:10354000B305C701B601A50194010F94061FC62F4C
:10355000CA01B901A50194010F94061F605D609333
:10356000B405C05DC093B5058EEA95E0CF91FF909C
:10357000EF90DF90CF90BF90AF909F908F90089585
:103580006DEB77E386E095EB29CF20E030E040E279
:1035900051E4C701B60136CF8F929F92AF92BF928E
:1035A000CF92DF92EF92FF92CF936B017C0120E0EC
:1035B00030E0A9010F94BA1887FD93C06DEB77E353
:1035C00086E095E3A70196010F949C1F6B017C0197
:1035D00020E030E040E251E40F941F1920E030E099
:1035E0004AE754E40F941F194B015C0120E030E0DE
:1035F000A901C701B6010F94BA1820E030E040EAF3
:1036000050E487FF04C020E030E040EA50ECC50100
:10361000B4010F949C1F20E030E040E251E40F948D
:1036200078200F94E0206B017C01C114D104E104E7
:10363000F10409F45BC0F7FE59C0F094E094D09413
:10364000C094C11CD11CE11CF11C8DE28093B0051B
:10365000C701B60128EE33E040E050E00F94061FAA
:103660008AE0882E912CA12CB12CCA01B901A501A8
:1036700094010F94061F605D6093B1058EE2809304
:10368000B205C701B60124E630E040E050E00F94F7
:10369000061FCA01B901A50194010F94061F605DC0
:1036A0006093B305C701B601A50194010F94061FED
:1036B000C62FCA01B901A50194010F94061F605DD0
:1036C0006093B405C05DC093B50580EB95E0CF91E4
:1036D000FF90EF90DF90CF90BF90AF909F908F9032
:1036E00008956DEB77E386E095EB6CCF80E2AECF8B
:1036F000CF93DF93EC01CB01BA010F94C01820E007
:1037000030E048EC52E40F947820688379838A8310
:103710009B83DF91CF910895CF93DF93EC01CB0191
:10372000BA010F94C01820E030E048EC52E40F9446
:103730007820688379838A839B83DF91CF91089572
:103740000F94C01820E030E048EC52E40F94782049
:103750002FCECF93DF93EC01CB01BA010F94C018A9
:1037600020E030E040E251E40F94782068837983D0
:103770008A839B83DF91CF9108950F94C01820E036
:1037800030E040E251E40F94782091CDCF93DF9365
:10379000EC01CB01BA010F94C0182AE037ED43E2E7
:1037A0005DE30F9478200F94E520688379838A8302
:1037B0009B83DF91CF910895CF93DF93EC01CB01F1
:1037C000BA010F94C0182AE037ED43E25DE30F948D
:1037D0007820688379838A839B83DF91CF910895D2
:1037E000CF93DF93EC01CB01BA010F94C01868832B
:1037F00079838A839B83DF91CF910895CF93DF9361
:10380000EC01CB01BA010F94C0180F94E02079832A
:103810006883DF91CF910895CF93DF93EC01CB01C3
:10382000BA010F94C01820E030E04AE754E40F9446
:103830007820688379838A839B83DF91CF91089571
:103840000F94C01820E030E04AE754E40F94782049
:10385000A3CEFC0184910895FC0180810895FC01B0
:10386000A081B1811C92A281B3818C918F5F8C93D6
:103870000280F381E02D90818CE0989F800D1124CF
:10388000E2E2F3E113AE84AF0895009751F0FC013A
:1038900080E09191992331F0907C9038D1F38F5F43
:1038A000F8CF80E00895119800C09091020187FD43
:1038B0009095917090930001119A00C000C01198EA
:1038C00000C09091020186FD909591709093000147
:1038D000119A00C000C0119800C09091020185FDAE
:1038E0009095917090930001119A00C000C01198BA
:1038F00000C09091020184FD909591709093000119
:10390000119A00C000C0119800C09091020183FD7F
:103910009095917090930001119A00C000C0119889
:1039200000C09091020182FD9095917090930001EA
:10393000119A00C000C0119800C09091020181FD51
:103940009095917090930001119A00C000C0119859
:1039500000C080910201817080930001119A00C023
:1039600000C0089590E080E00895CF93DF93C09168
:103970004D12D0914E1281E0CE31D105E4F020E01D
:1039800030E040E05FE36091491270914A1280910B
:103990004B1290914C120F949C1F0F94E0206C1BC3
:1039A0007D0B77FF03C071956195710981E06330EC
:1039B00071050CF080E0DF91CF910895CF93DF93F4
:1039C000DB01F9019C919130C1F0943080F094506A
:1039D0009C938830D1F480819181009771F0019798
:1039E00091838083480F591FEA01188206C08C35E5
:1039F00039F49C5F9C93943041F4DF91CF9108950A
:103A00008B3339F781E08C93F8CF20813181B90174
:103A10006F5F7F4F71836083420F531FEA0188837A
:103A2000808191818F3591056CF7E7CF0F931F93BC
:103A300081E00091751410917614209177143091E3
:103A400078144091711450917214609173147091B4
:103A50007414041715072607370708F480E01F9130
:103A60000F91089590E080E008952091FA0483304A
:103A700021F425FD0CC024FD0CC030E0A90102C0DA
:103A8000559547958A95E2F7CA018170089581E0BE
:103A9000089580E008958091160584FD0BC0809103
:103AA000180587FD07C090911905937081E019F4FE
:103AB00080E0089581E008952FEB280F2A3108F067
:103AC00047C0E22FF0E08091160590911705A09174
:103AD0001805B091190504C0B695A79597958795D7
:103AE0002A95D2F780FD02C081700895E450FB4F03
:103AF000E081EE2341F18091C6079091C707E80F5E
:103B0000F92FF11D808190ED980F9A3030F08E32B0
:103B100051F4818180538A3098F4F093F004E0935B
:103B2000EF0481E008958D3211F08B3249F48181E8
:103B300090ED980F9A3088F38E3211F48281EACF9B
:103B4000F0E0E0E0EACF1092F0041092EF04E9CF49
:103B500080E00895B1DF882341F081E02091EF04F7
:103B60003091F004232B09F480E008952091B704EC
:103B70003091B804280F391F3093B8042093B7044C
:103B80002091410630914206280F391F309342069A
:103B9000209341062091C8053091C905820F931FDB
:103BA0009093C9058093C805089580E090E0A0E84F
:103BB000B0E480936F1190937011A0937111B09342
:103BC000721184ED92E00E9411BA80E090E0A0EFC3
:103BD000B1E48093671190936811A0936911B09339
:103BE0006A1180936B1190936C11A0936D11B09337
:103BF0006E11E091AA05EE0FFF0BEC54FD4F808192
:103C000091818330910549F184309105D9F1029772
:103C100061F480E090E0A0E2B3E4809367119093B8
:103C20006811A0936911B0936A118CEB92E00E9425
:103C300011BA10926F1110927011109271111092AE
:103C4000721184ED92E00E9411BA8091AA058F5FF3
:103C50008430ECF48093AA05089580E090E0A0E21F
:103C6000B3E48093671190936811A0936911B093A6
:103C70006A1180936B1190936C11A0936D11B093A6
:103C80006E11D3CF80E090E0A0E2B3E4F2CF1092C7
:103C9000AA050895CF93DF9300D01F92CDB7DEB76A
:103CA0000F94E5200F94BE1869837A838B839C83DD
:103CB000CE0101960E9450C10F900F900F900F906F
:103CC000DF91CF9108950F94C0182AE037ED43E2B9
:103CD0005DE30F947820DECFCF92DF92EF92FF92D8
:103CE000CF93DF9300D01F92CDB7DEB76B017C017D
:103CF00020E030E0A9010F94BA1887FD1BC06DEBDE
:103D000077E386E095E3A70196010F949C1F6983F2
:103D10007A838B839C83CE0101960E9450C10F90C1
:103D20000F900F900F90DF91CF91FF90EF90DF9069
:103D3000CF9008956DEB77E386E095EBE4CF0F9499
:103D4000C0182AE037ED43E25DE30F947820C4CF3A
:103D50000F94C018C1CFCF92DF92EF92FF92CF9312
:103D6000DF9300D01F92CDB7DEB76B017C0120E05E
:103D700030E0A9010F94BA1887FD1BC06DEB77E303
:103D800086E095E3A70196010F949C1F69837A83CF
:103D90008B839C83CE0101960E94D3C10F900F901C
:103DA0000F900F90DF91CF91FF90EF90DF90CF9029
:103DB00008956DEB77E386E095EBE4CF0F94C018A0
:103DC00020E030E048EC52E40F947820C4CF0F9408
:103DD000C0180F94E020CB010C94B7C30C948AAAAE
:103DE0000C948AAA0C943CAA0C943CAA0C943CAA6D
:103DF0000C943CAA63E972E084E690E00E9428C635
:103E000070E060E08AE090E00E9428C66AEB72E011
:103E100084E690E00C9428C68111ECCF68E270E053
:103E200080E991E00C9428C60E949BA6F5CF0E94E1
:103E3000E9D8F2CF0E9438BDDDCFCF92DF92EF926A
:103E4000FF920F931F930E949FFA009128051091F3
:103E5000290520912A0530912B056B017C01C01AA0
:103E6000D10AE20AF30A9701860137FD11C02091B9
:103E700027052095209327056A547C4F8F4F9F4F2D
:103E8000609328057093290580932A0590932B054C
:103E900081E090912705911101C080E01F910F9161
:103EA000FF90EF90DF90CF900895CF93DF93C09174
:103EB0004D12D0914E12209729F1609149127091C4
:103EC0004A1280914B1290914C120F94E0206E5F39
:103ED0007F4F24976C177D07ACF47093380660937E
:103EE00037060E949FFA605A75418F4F9F4F60932B
:103EF000390670933A0680933B0690933C06DF9117
:103F0000CF9108951092390610923A0610923B060E
:103F100010923C06F4CFBF92CF92DF92EF92FF92C5
:103F20000F931F93CF93DF936B01E9014A3009F49C
:103F3000DFC0453109F08AC0DB011296ED91FC919A
:103F40001281C681D7818091020180958270809311
:103F5000000100C0000086E290E00197F0F7012F19
:103F60000295007F20E1B22EB10E88EF9CDC00C0EC
:103F7000000086E290E00197F0F7103208F0A5C04B
:103F8000812F807780688FDC802F8DDC00C000005F
:103F900086E290E00197F0F780E885DC80E083DC42
:103FA00000C0000086E290E00197F0F78AEF7BDC2A
:103FB00000C0000086E290E00197F0F77E01B0E1DA
:103FC000EB0EF11C8881807F6EDC89918295807F69
:103FD0006ADCCE15DF05B1F700C0000086E290E094
:103FE0000197F0F71F5F005F1B11BFCF80910201A7
:103FF000827080930001D6011296ED91FC91808130
:104000009281980F92832181921708F0EDC19481DB
:104010009F5F94839381890F821710F08FEF820F37
:104020008383458150E0440F551F70E060E0868136
:1040300097810F94882281E0DF91CF911F910F919A
:10404000FF90EF90DF90CF90BF900895FB01028129
:104050001381423309F4CAC108F4D2C1463409F4C9
:10406000BFC1473409F4C7C14B3329F789812B817C
:10407000D80112966C91129713964C91213009F445
:1040800004C2233009F0E5C138EF380F582F91E012
:10409000431708F490E041E0531708F040E031E0A6
:1040A000561708F430E0592F542B352319F4942374
:1040B00009F4C1CFFA8030E0F901E056FD4FD0801D
:1040C00024563D4FF901E080DDC180EE810F80680C
:1040D000807FE9DB812F8295807FE5DB00C00000D7
:1040E00086E290E00197F0F780E8DDDB80E857CFCB
:1040F00080910101826080930101809102018270B0
:104100008093000180910101816080930101809181
:104110000201817080930001099A119A8091020135
:10412000809582708093000100C0000086E290E0DC
:104130000197F0F788E790E0CEE9DFE0FE013197E4
:10414000F1F70197D9F788EFAEDB00C0000086E2F7
:1041500090E00197F0F780E2A6DB80E0A4DB00C0EE
:10416000000086E290E00197F0F780E09CDB80E8B9
:104170009ADB00C0000086E290E00197F0F780E053
:1041800092DB80E190DB00C0000086E290E00197C6
:10419000F0F7CE010197F1F7CE010197F1F7CE01CB
:1041A0000197F1F7CE010197F1F7CE010197F1F7F1
:1041B000CE010197F1F7CE010197F1F7CE010197FA
:1041C000F1F7CE010197F1F7CE010197F1F7CE019A
:1041D0000197F1F7CE010197F1F7CE010197F1F7C1
:1041E000CE010197F1F72197F1F780E25CDB80E4E3
:1041F0005ADB00C0000086E290E00197F0F780E211
:1042000052DB80E650DB00C0000086E290E00197C0
:10421000F0F7D0E0C0E08C2F8077806844DB8D2FF2
:1042200042DB00C0000086E290E00197F0F780E8F2
:104230003ADB80E038DB00C0000086E290E00197C6
:10424000F0F78AEF30DB00C0000086E290E00197D3
:10425000F0F790E2119800C0809102018170809384
:104260000001119A00C000C0119800C080910201A5
:10427000817080930001119A00C000C0119800C0A5
:1042800080910201817080930001119A00C000C0EA
:10429000119800C080910201817080930001119AF1
:1042A00000C000C0119800C080910201817080930D
:1042B0000001119A00C000C0119800C08091020155
:1042C000817080930001119A00C000C0119800C055
:1042D00080910201817080930001119A00C000C09A
:1042E000119800C080910201817080930001119AA1
:1042F00000C000C0119800C08091020181708093BD
:104300000001119A00C000C0119800C08091020104
:10431000817080930001119A00C000C0119800C004
:1043200080910201817080930001119A00C000C049
:10433000119800C080910201817080930001119A50
:1043400000C000C0119800C080910201817080936C
:104350000001119A00C000C0119800C080910201B4
:10436000817080930001119A00C000C0119800C0B4
:1043700080910201817080930001119A00C000C0F9
:10438000119800C080910201817080930001119A00
:1043900000C000C000C00000E6E2F0E03197F0F796
:1043A000915009F057CF88EF7EDA00C0000086E216
:1043B00090E00197F0F7CF5FD05FC03209F02BCFCC
:1043C00080E071DA80EC6FDA00C0000086E290E0F5
:1043D0000197F0F7809102018270809300012BCE4B
:1043E000F8018581888327CE80E026CEB901C801F7
:1043F0000E9415FB20CED80111968C9188831BCE8C
:10440000443191F0473109F016CE1882D801129646
:104410008C911297898315968C91159781508A8378
:1044200013968C918B8307CED80115964C911597D6
:1044300050E0440F551F70E060E016968D919C91FE
:104440000F948822F8011282808181508383148224
:10445000F2CD481708F4EFCD861708F4ECCDFA80BA
:10446000E12CD12C243070F426CEBE01C8010E946C
:1044700015FB898198819D0D98838E0D8983FF0C92
:1044800009F4D9CDF7FEF6CFF0CF58E0580F382F0A
:10449000FECDEF92FF920F931F93CF93DF93EC012A
:1044A0008B017A018A859B858617970731F0888171
:1044B00099810E9447FD1B870A87B70188819981EE
:1044C0000E9425F62E813F81820F932F911D9F839D
:1044D0008E8390E080E0DF91CF911F910F91FF904C
:1044E000EF9008959F92AF92BF92CF92DF92EF929A
:1044F000FF920F931F93CF93DF93EC018B01942EC8
:10450000A52E8A859B858617970731F0888199812A
:104510000E9447FD1B870A8788859985019649F582
:10452000BC800A818E81080FC880D980D60155963B
:10453000ED91FC91C6011995B80EE92CFA2C10E00A
:10454000F70121917F01211127C08E819F81810F69
:10455000911D9F838E8390E080E0DF91CF911F912A
:104560000F91FF90EF90DF90CF90BF90AF909F9012
:1045700008950E811F81692D7A2D888199810E946D
:1045800025F6800F912F911D288539852817390729
:1045900038F681E090E0E1CF4B2D602FC6010E94FC
:1045A0009FFD080F180FCCCFDF92EF92FF920F9371
:1045B0001F93CF93DF93EC01D62E1CAD0BAD7C0186
:1045C00084E0E80EF11CE98DFA8DC7011995412FA1
:1045D000480F2D2D602FC7010E949FFD9BAD890FB5
:1045E0008BAF81E090E0DF91CF911F910F91FF9011
:1045F000EF90DF900895CF93C0913C05CC2391F1CB
:104600004CE050E060E270E08EE295E00F9488228A
:1046100080E2C43628F08C2F64E60F94411F805D41
:104620008093B30590E2CA3040F02AE08C2F622FCD
:104630000F94411F0F94411F905D9093B4058C2FF0
:104640006AE00F94411F905D9093B50583E0E3EB22
:10465000F5E0A2E3B5E001900D928A95E1F785E2DD
:1046600080933505CF910895CF93809124058111D2
:1046700054C010925D1310925E1310925F1310924B
:104680002B1310922A1310922D1310922C131092A8
:104690002F1381E080932E1382E2809330131092C7
:1046A000351310923413E9E4F3E127E533E18FEF9A
:1046B00081932E173F07E1F7C1E0C093461326EA26
:1046C0003BED30933C1320933B13C0933D1310926A
:1046D0003E1310923F1390E49093401310924113B5
:1046E00025EA3BED309358132093571321E132E034
:1046F000309329132093281397E190934D1391E160
:1047000090934E1390E190934B1380934A138093B0
:1047100049130E9453FBC093240581E08093260532
:1047200088E392E19093DD118093DC111092DF1108
:104730001092DE11CF910895CF92DF92EF92FF9207
:104740000F931F93CF93DF93CDB7DEB72C970FB6A0
:10475000F894DEBF0FBECDBFF0905D13E0905E1306
:104760002091260521111DC048EF51E16E2D8F2D9E
:104770000E940AFE90E080E0F80EF0925D13E09255
:104780005E1399272C960FB6F894DEBF0FBECDBFEF
:10479000DF91CF911F910F91FF90EF90DF90CF901D
:1047A0000895C0902A13D0902B1326E233E13A8368
:1047B00029832F2D30E03C832B832E2D30E03E8348
:1047C0002D8318861F827A8769871C861B8602E7DD
:1047D00012E29E012F5F3F4F49E25CE1BC01C6013E
:1047E0000E942CEDB60186E293E10E9447FD8F8185
:1047F0009885C2CF8091EF049091F004009731F03A
:104800004AE050E070E060E00D94DB1660E070E09C
:10481000CB0108958091EF049091F004009731F05E
:104820004AE050E070E060E00D94AE1560E070E0AA
:10483000CB010895EFDF97FD0AC0ECDF6F3F7105F4
:104840008105910509F02CF4E5DF862F089580E0BD
:1048500008958FEF0895CF93C62F7CD9882311F048
:10486000CF91E8CF8C2FCF9108958091EF04909154
:10487000F004892B39F0DEDF91E0811101C090E076
:10488000892F089591E0FCCFCF93DF93C82FD62FC7
:1048900061D9882319F0DF91CF91E7CF8C2F0CD904
:1048A000811101C08D2FDF91CF910895B3DFCB012E
:1048B0000895CF93DF93EB014DD9882319F0DF9151
:1048C000CF91F4CFCE01DF91CF9108950F931F9335
:1048D000CF938091EF049091F004009709F1FC01CF
:1048E0008F01C1912C2F2F7DA1F0C53431F0C53639
:1048F00021F0C83511F0C83799F7F801108270E03F
:1049000060E00F945814F801C083CF911F910F916C
:10491000089570E060E0CF911F910F910D945814AD
:1049200060E070E0CB01F1CFCF92DF92EF92FF9287
:104930006A017B010FD9882329F0FF90EF90DF9067
:10494000CF90C4CFC701B601FF90EF90DF90CF901A
:1049500008954F925F926F927F92AF92BF92CF92E3
:10496000DF92EF92FF920F931F93CF9388E9A82EC7
:1049700082E0B82E9AECE92E95E0F92E07E611E1D7
:1049800027E7C22E21E1D22EC0E0F50181915F011F
:10499000E1D8882309F476C099DF2B013C018C2FE4
:1049A00064D8882309F464C0F801208131814281F0
:1049B0005381C301B2010F949C1FF701608371837F
:1049C00082839383CF5FF4E0EF0EF11C0C5F1F4FE7
:1049D00084E0C80ED11CC330C1F685E4BBD888235F
:1049E00009F45BC073DF6B017C0183E03ED8882350
:1049F00071F02091731130917411409175115091A3
:104A00007611C701B6010F949C1F6B017C01C09207
:104A1000D605D092D705E092D805F092D90540E0AE
:104A200050E0BA0186E480DF20E030E0A9010F9475
:104A3000C32118167CF44ADF20E030E040E752E45E
:104A40000F947820609320027093210280932202B9
:104A500090932302CF911F910F91FF90EF90DF90E1
:104A6000CF90BF90AF907F906F905F904F900895E0
:104A7000F6012081318142815381C301B2010F943B
:104A80009B1F9BCFF80180819181A281B381F701A7
:104A900080839183A283B38395CF8091731190918A
:104AA0007411A0917511B09176118093D6059093F1
:104AB000D705A093D805B093D905B1CFAF92BF92D7
:104AC000CF92DF92EF92FF920F931F93CF935C01EF
:104AD0006B018A0189559B4F7C01DC01CC91C7FF9A
:104AE0003DC0FB0111821082CF5FD701CC93CC3047
:104AF0000CF053C08CE08A9DF0018B9DF00D1124C9
:104B0000CF018C0F911DC7FD9A952091E5122817B2
:104B1000190609F00CF441C0F60120813181FC0135
:104B2000EE0FFF1FE80FF91FE356FD4E81819281C2
:104B3000820F931FD80111969C938E93808187FFDB
:104B40003DC061E08F77CF911F910F91FF90EF9063
:104B5000DF90CF90BF90AF900C9479F98CE08A9D54
:104B6000F0018B9DF00D1124CF018C0F911DC7FD1D
:104B70009A952091E5122817190609F00CF4B4CF84
:104B8000FC01EE0FFF1FE80FF91FE356FD4E808179
:104B900060E08F770E9479F9A7CFF601808191813B
:104BA00004968034FCE99F0710F480E49CE9D80166
:104BB00011969C938E938FEFF7018083CF911F9175
:104BC0000F91FF90EF90DF90CF90BF90AF9008953E
:104BD000CF93DF93CDB7DEB720E2488559856F814B
:104BE0008E810E94D2F5DF91CF9108950F931F938C
:104BF000522F20912013309121132817390731F1BA
:104C00001092E20590932113809320138B0130E0E2
:104C100020E00093A6071093A7072093A8073093DE
:104C2000A90740939F075093A0078952964421F407
:104C30001092AD0510929E0582E08093610281E0A2
:104C40008093B6071092AB051092A9051F910F91A2
:104C5000089520E040E070E060E089E296E4C6CF8D
:104C6000CF930E9438BD0E949BA6C82F882319F0BD
:104C700080E00E94ABA58C2FCFD8CF91EACF83EFF5
:104C800094E19093850780938407E3CFCF93DF93DC
:104C9000C0919E05CC23B1F0C150C0939E0589E020
:104CA000C89FE0011124C859DA4F6A817B812F81A6
:104CB0004E81888199819ADF88858093AD05DF9147
:104CC000CF910895DF91CF91C4CFE0919E05E6305A
:104CD00028F581E08E0F80939E054091A6075091A4
:104CE000A7076091A8077091A90720919F0790914D
:104CF000A0078091AD0539E0E39FF0011124E85948
:104D0000FA4FA0912013B0912113B183A083428365
:104D100053836483758326839783808708951092D5
:104D2000AD05B4CF2091A105211107C09093A00536
:104D300080939F0581E08093A105C7DF20E040E0DC
:104D400070E060E08BEE9FE251DF81E08093AD0583
:104D50000E94ADAAE4CF80939B0720E040E070E082
:104D600060E080EE9AE242CFCF93DF93CDB7DEB71B
:104D70008E81282F082E000C330B9091DB11921797
:104D8000130609F08CF48093DB119E01275F3F4FDF
:104D90004F8158856AE270E080EB91E10F948218B0
:104DA0001092AF111092AE11DF91CF9108950F9331
:104DB0001F93CF93DF938C016F3F19F41092DB1197
:104DC00060E02091DB11862F062E000C990B28172E
:104DD000190609F014F56093DB11C8010F94091846
:104DE000800F911FEC01C01BD10BCB32D1053CF0E1
:104DF0000197FC012491207C2038D1F3F3CFDD27EB
:104E0000AE01B80180EB91E10F942A18C055DE4E37
:104E100018821092AF111092AE11DF91CF911F91B5
:104E20000F91089589E793E17DDF81E08093AD05DF
:104E300060E08FE092E3BBDF85E793E19093850725
:104E40008093840708950F931F930E949FFA009107
:104E50006305109164052091650530916605601B1E
:104E6000710B820B930B97FD0EC086B186FB8827D2
:104E700080F991E08927349B8260079B02C0329BB6
:104E800084608093620580916205817090916205D3
:104E900091FD826090916105981749F0813009F188
:104EA00048F0823079F0833091F0809361051F9152
:104EB0000F910895913079F09230B9F79091600593
:104EC0009F5F0CC0992339F09330C1F3EECF91303E
:104ED000A9F3923051F7909160059150909360053D
:104EE000E4CF992359F3933001F7F5CFCF92DF92B6
:104EF000EF92FF92CF93C82F0E949FFA6B017C0123
:104F000024EA30E74DE75FE360911A0270911B02DB
:104F100080911C0290911D020F94BA1887FD18C051
:104F20008AEF90E0A0E0B0E08C0D9D1DAE1DBF1D8E
:104F30008093500590935105A0935205B09353056B
:104F4000C0931802CF91FF90EF90DF90CF9008951B
:104F500080E090E0DC01E8CF87DB3E98469A3C9801
:104F6000449A3A98429A0F98179A6DDF109260050A
:104F70000C9490EDFC0180E0309749F094919923D6
:104F800031F0907C903809F08F5F3196F7CF08951B
:104F9000AF92BF92CF92DF92EF92FF920F931F9347
:104FA000CF93DF93EC015B018A01FB01199587FD2B
:104FB00016C0C82ED12CF12CE12C2196F801C0820C
:104FC000D182E282F382CE01DF91CF911F910F91C6
:104FD000FF90EF90DF90CF90BF90AF900895982F03
:104FE000907E903CA9F48F7190E0B0E0A0E06C015D
:104FF0007D0156E0CC0CDD1CEE1CFF1C5A95D1F750
:10500000CE010196F50119958F73C82A2296D6CF45
:10501000982F907F903E11F58F7090E0B0E0A0E067
:105020006C017D0136E0CC0CDD1CEE1CFF1C3A95BA
:10503000D1F7CE010196F50119958F73C82A46E084
:10504000CC0CDD1CEE1CFF1C4A95D1F7CE0102965C
:10505000F50119958F73C82A2396B0CF982F987FA2
:10506000903F79F5877090E0B0E0A0E06C017D01A1
:1050700086E0CC0CDD1CEE1CFF1C8A95D1F7CE011E
:105080000196F50119958F73C82A96E0CC0CDD1CAA
:10509000EE1CFF1C9A95D1F7CE010296F5011995E9
:1050A0008F73C82A26E0CC0CDD1CEE1CFF1C2A9551
:1050B000D1F7CE010396F50119958F73C82A24966E
:1050C0007DCF982F907C903841F4807C803869F4B3
:1050D0002196CE01F5011995F8CF8E7F8D3F28F0EE
:1050E0002196CE01F5011995F8CFC12CD12C76016E
:1050F00065CF9CE0899F802D112491E0980F9093BB
:1051000025052CE0280F2093BC0730E02E5F3F4F91
:1051100040915A134217130619F014F080E00895D5
:1051200020915C139217D0F7662341F08E5F0E94A6
:1051300075FC8091BC078E5F0E9475FC8091BC0756
:1051400090915A13891750F320915C139091250583
:10515000291720F310925D1380935E1381E0089568
:1051600020912305022E000C330B8217130641F009
:105170008093230560E875E186E293E10C9447FD96
:105180000895EF92FF920F931F93CF93DF93CDB7C4
:10519000DEB72C970FB6F894DEBF0FBECDBFFC0173
:1051A00060817181828193816F3F710581059105D5
:1051B00009F0B8F482E293E1F7D9E0912A13F09173
:1051C0002B133196849190E02C960FB6F894DEBFA5
:1051D0000FBECDBFDF91CF911F910F91FF90EF9048
:1051E000089510915D1300915E1320912605211101
:1051F0000FC048E152E1602F812F0E940AFE90E02B
:1052000080E0180F10935D1300935E139927DCCF95
:10521000E0902A13F0902B1326E233E13A8329839E
:10522000212F30E03C832B83202F30E03E832D83E1
:1052300018861F822FEF3FEF3A8729871C861B862F
:1052400022E732E2AE014F5F5F4FBF01C7010E940C
:1052500067ECB70186E293E10E9447FD8F81988554
:10526000D0CF4F925F926F927F928F929F92BF9218
:10527000CF92DF92EF92FF920F931F93CF93DF9322
:1052800000D000D01F921F92CDB7DEB77C016A011B
:105290004901FB0190818CE0989F800D1124982F8B
:1052A000F7012081822F880F820F880F80935D1372
:1052B00090935E134115510569F1FA82E9827C836E
:1052C0006B83011120C0AE014B5F5F4FB401C6017B
:1052D0005FDE6C018D819E81AF81B885892B8A2B21
:1052E0008B2BC1F0CE0105964CDFF70180818F5FDB
:1052F0008083853140F3CE0101960E942F1CE3CFBD
:10530000B12C860129C08A01B12C26C04528462827
:105310004728B1F728960FB6F894DEBF0FBECDBF71
:10532000DF91CF911F910F91FF90EF90DF90CF9081
:10533000BF909F908F907F906F905F904F90089557
:10534000B39407C0B1102DC001151105C9F20F5F4C
:105350001F4F01151105A9F2AE014B5F5F4FB4015C
:10536000C60116DE6C014D805E806F80788441142A
:10537000510461047104A9F0F0E24F165104610474
:10538000710401F3D301C2018D97A109B1090297FC
:10539000A105B10530F04BE24416510461047104DB
:1053A00079F6F7018081482F4B0D5527551F46315F
:1053B000510534F0853020F0CE0101960E942F1C5B
:1053C00081E0411451046104710409F480E0B80ED5
:1053D000F70180818B0D8083BB2009F497CFBA94AD
:1053E000AE014B5F5F4FB401C801D2DD8C01CE012D
:1053F0000596C7DEF1CF2F923F924F925F926F9248
:105400007F928F929F92AF92BF92CF92DF92EF9254
:10541000FF920F931F93CF93DF9300D0CDB7DEB7EA
:105420004C013B015A012B83232E280181E08093FC
:10543000AD054091A6075091A7076091A80770910C
:10544000A907411551056105710571F0141615067E
:105450000CF080E08093A9051092A6071092A70790
:105460001092A8071092A9071091A90530909407EF
:1054700010929407311005C080916102882309F4CD
:1054800069C0C20177DD082F80E0C114D10411F09A
:10549000C60170DD1A821982E114F104B1F4402FC3
:1054A00050E0282F30E0CA01820F931F46976CF41A
:1054B00085E190E0841B950B821B930B97FD019671
:1054C000959587958A8381E0898301E029E23CE113
:1054D000A201BE016F5F7F4FCE010296C2DEE114D2
:1054E000F10489F08A81882321F01A8289818F5FF3
:1054F000898300E02CE23CE1A701BE016F5F7F4F92
:10550000CE010296AEDEC114D10451F000E029E2D2
:105510003CE1A601BE016F5F7F4FCE010296A1DE86
:1055200041E04127B30181E00E94E4FCC40122DD97
:10553000412FB40194E1981B892F0E94E4FC332091
:1055400049F0111102C0AB80B22CA114B104C1F01A
:10555000F50119950F900F900F90DF91CF911F914A
:105560000F91FF90EF90DF90CF90BF90AF909F9002
:105570008F907F906F905F904F903F902F90089505
:1055800085DBE8CFCF92DF92EF92FF920F931F93CC
:1055900085EEC82E84E1D82EF12CE12C08EF14E121
:1055A00030E020E040E356E267EE74E18EEE94E1F5
:1055B00022DF1F910F91FF90EF90DF90CF90089521
:1055C000AF92BF92CF92DF92EF92FF920F931F9311
:1055D000CF93DF93CDB7DEB7ADB6BEB687ED93E11F
:1055E000C9DC90E001962DB73EB7281B390B0FB6EA
:1055F000F8943EBF0FBE2DBF8DB79EB701967C01BC
:1056000067ED73E10F94021880919B0704EA13E1A0
:10561000813031F00FE813E1823011F007EB13E134
:1056200088ECC82E83E1D82E29E236E240E356E228
:105630006AEC73E181ED93E1DEDE0FB6F894BEBE55
:105640000FBEADBEDF91CF911F910F91FF90EF90F4
:10565000DF90CF90BF90AF9008956FEF7FEF6CC851
:10566000E2E2F3E183AF64AFCA01F7CFF6CFCF93A5
:10567000DF93FC0125AD211104C021E025AF0E947C
:1056800053FBC0912813D0912913E0915713F09147
:10569000581382E01995E0915713F091581381E067
:1056A000199530E020E044E1BE0186E293E10E94DA
:1056B0004FFB29E533E147E1BE0186E293E10E9419
:1056C0004FFBE0915713F091581380E0DF91CF9199
:1056D00019944F925F926F927F928F929F92AF92A6
:1056E000BF92CF92DF92EF92FF921F93CF93DF93FF
:1056F000CDB7DEB760970FB6F894DEBF0FBECDBF53
:105700000E949FFA6B017C01809118028F3F09F47F
:1057100044C00E949FFA8090500590905105A0903F
:105720005205B0905305681979098A099B0997FDBC
:1057300034C08091FA129091FB128F5F8F7089179D
:1057400061F1E0911802E43008F05FC024E0E29FCC
:10575000F0011124EC55FD4F80819181A281B3812C
:105760008D879E87AF87B88B19821A821B821C8215
:105770001D821E821F82188619861A861B861C8629
:10578000AE014F5F5F4FBE01635F7F4F87E691E1E0
:105790000E94DCF08FEF8093180255DB8091620548
:1057A00082FF3CC080915F0581113AC091E09093E7
:1057B0005F0580916705892780939407109267059C
:1057C00083E080936102109262050E949FFA6C5000
:1057D0007E4F8F4F9F4F6093630570936405809356
:1057E00065059093660568E873E182E090E00E94A9
:1057F00028C616E01150A1F00E94CCC562E070E00E
:1058000080E090E00E9405FAF5CF809162029091CD
:105810006302A0916402B0916502A2CF10925F056D
:1058200080915B0590915C05A0915D05B0915E054E
:10583000A7019601281B390B4A0B5B0BDA01C90142
:10584000B7FF05C08091AB05882309F4BBC1D70120
:10585000C6018C599F4FAF4FBF4F80935B0590930C
:105860005C05A0935D05B0935E0560916005062E12
:10587000000C770B77FF03C07195619571099091CA
:10588000600580915A05981365C0633008F062C0C6
:10589000109260058091600580935A05643008F08D
:1058A00069C0809194078111E9C080912013909183
:1058B00021138952964441F480911902882309F4F6
:1058C000EFC08150809319020E94CEAC8090E00717
:1058D0009090E107A090E207B090E30781110E9449
:1058E000DBACD501C4013AE0B695A79597958795AD
:1058F0003A95D1F78F3F4FEF9407A105B10520F0FE
:105900008FEF9FEFA0E0B0E0969587952091610220
:105910002111D8C03091AB05311183C18091201382
:10592000909121138952964409F462C18091AD058A
:1059300081115EC18091560590915705A09158053F
:10594000B0915905C81AD90AEA0AFB0AF7FC5EC1E8
:1059500080D95CC1633009F09DCF8091600587FDDF
:1059600007C081E0880F880F8093600564E092CFC4
:105970008FEFF8CF8091BB0721E030E040E050E0AE
:10598000882309F456C08090B7079090B807A0907C
:10599000B907B090BA0781149104A104B104E9F1E8
:1059A00070E090E080E00F94BE1820E030E040E826
:1059B0005EE30F941F192B013C01C701B601681962
:1059C00079098A099B090F94BE189B01AC01C30198
:1059D000B2010F94782020E030E04AE754E40F94BD
:1059E0001F194B015C0120E030E040EA52E40F94C3
:1059F000C32124E630E040E050E087FF12C020E001
:105A000030E040EF51E4C501B4010F94C3212AE016
:105A100030E040E050E087FF04C021E030E040E0AB
:105A200050E0C092B707D092B807E092B907F09261
:105A3000BA07079B21C0A09160050A2E000CBB0B82
:105A40000F942C1F24E030E040E050E00F94061F3C
:105A50008091A6079091A707A091A807B091A907E8
:105A6000820F931FA41FB51F8093A6079093A707CB
:105A7000A093A807B093A90710926005D701C601AB
:105A80008856954CAF4FBF4F80935605909357055E
:105A9000A0935805B093590581E08093610205CF2A
:105AA0008CE08093190280915405909155050097E0
:105AB00029F00197909355058093540581E08093D8
:105AC000610202CF009741F0409154055091550575
:105AD0004817590708F022CF8091AB05811111C0FA
