:100000000C94DE140C941E150C941E150C941E15E5
:100010000C941E150C941E150C941E150C941E1594
:100020000C941E150C941E150C941E150C941E1584
:100030000C941E150C941E150C941E150C941E1574
:100040000C941E150C946B2E0C941E150C941E15FE
:100050000C941E150C94EB280C941E150C945FB197
:100060000C941E150C94AF8A0C94A58A0C941E1542
:100070000C941E150C941E150C941E150C941E1534
:100080000C941E150C941E150C941E150C941E1524
:100090000C941E150C941E150C941E150C941E1514
:1000A0000C941E150C941E150C941E150C941E1504
:1000B0000C941E150C941E150C941E150C941E15F4
:1000C0000C941E150C941E150C941E150C941E15E4
:1000D0000C941E150C941E150C941E150C941E15D4
:1000E0000C941E15084AD73B3BCE016E84BCBFFD65
:1000F000C12F3D6C74319ABD56833DDA3D00C77FF8
:1001000011BED9E4BB4C3E916BAAAABE0000008090
:100110003F05A84CCDB2D44EB93836A9020C50B91F
:10012000918688083CA6AAAA2ABE000000803F004B
:100130004E414E494E495459494E46CDCCCC3D0ACC
:10014000D7233C17B7D13877CC2B329595E6241FAF
:10015000B14F0A000020410000C84200401C462068
:10016000BCBE4CCA1B0E5AAEC59D744142530050D2
:100170004C410063616E63656C005072696E74205F
:1001800041626F72746564004D3235005061757361
:10019000696E672E2E2E00726573756D65004D3287
:1001A0003400454550524F4D2056657273696F6E4D
:1001B000204572726F7200454550524F4D20496E76
:1001C000646578204572726F7200454550524F4DFC
:1001D00020435243204572726F72003F0049676EA0
:1001E0006F726500526573657400496E6974696168
:1001F0006C697A6520454550524F4D0046696C2E1A
:10020000204469612E004F6666004F6E00452069EC
:100210006E206D6D5E3300200820466163740020FF
:1002200008204D6178002008204D696E004D696EF0
:100230002054726176656C205370656564004D6969
:100240006E2056656C6F63697479004D617820404B
:10025000205370656564004D6178204520416363DB
:10026000656C004D6178204020416363656C0054EB
:10027000726176656C20416363656C0052657472CF
:1002800061637420416363656C00416363656C0066
:10029000402073746570732F6D6D00416476616EDC
:1002A0006365642053657474696E6773003F00432F
:1002B000616E63656C00496E6974004D34323800BC
:1002C000496E697469616C697A6520454550524F81
:1002D0004D0046696C616D656E740054656D7065A6
:1002E0007261747572650053746570732F6D6D0063
:1002F0004A756E6374696F6E20446576004163636E
:10030000656C65726174696F6E004D617820537021
:1003100065656420286D6D2F73290053657420482E
:100320006F6D65204F66667365747300436F6E660C
:10033000696775726174696F6E00426564004E6F23
:100340007A7A6C650046616E20537065656400437F
:100350006F6E66696775726174696F6E005265735E
:10036000746F72652044656661756C7473004C6FC0
:1003700061642053657474696E67730053746F729F
:10038000652053657474696E6773005072656865A3
:100390006174202420436F6E6600416476616E6351
:1003A00065642053657474696E6773004D61696E8E
:1003B000003F004261636B0053746F70004E6F200A
:1003C0004D65646961005072696E742066726F6D6C
:1003D000204D65646961004368616E6765204D6505
:1003E000646961004D323100436F6E6669677572F2
:1003F0006174696F6E0054656D70657261747572B9
:1004000065004D6F74696F6E00526573756D652080
:100410005072696E740054756E650053746F70206D
:100420005072696E74005061757365205072696E08
:100430007400496E666F2053637265656E003F00FD
:100440005374617274205072696E740043616E63FC
:10045000656C005072696E740043616E6E6F74203B
:10046000656E746572207375626469723A20000269
:10047000202E2E004D61696E002100486F74656E5C
:100480006420746F6F20636F6C64004261636B0063
:1004900050726F63656564004D6F766520457874B2
:1004A0007275646572004D6F74696F6E0044697394
:1004B00061626C65205374657070657273004D38AD
:1004C00034004175746F20486F6D65004732380005
:1004D0004D61696E00507265686561742024204228
:1004E00065640050726568656174202420456E64FF
:1004F0000054656D7065726174757265006F016B93
:1005000001436F6F6C646F776E0050726568656150
:100510007420240046616E20537065656400426556
:1005200064004E6F7A7A6C65004D61696E00466CAE
:100530006F770046616E20537065656400426564A4
:10054000004E6F7A7A6C65005370656564004D618A
:10055000696E006F70656E005452494747455245B9
:1005600044003A20007A5F6D696E00795F6D696EB4
:1005700000785F6D696E005265706F7274696E67A6
:1005800020656E6473746F70207374617475730A80
:100590000000000000000000000000000057617231
:1005A0006E696E673A20486F6D696E672042756D9F
:1005B000702044697669736F72203C20310A000212
:1005C0000204000048430000484300003443000098
:1005D000A0400000A0400000004000004843000090
:1005E0004843000034430000000000000000000009
:1005F000000053657474696E67732053746F72657D
:100600006400290A002062797465733B2063726379
:10061000200053657474696E67732053746F72653C
:100620006420280048617264636F646564204465D7
:100630006661756C742053657474696E6773204CC1
:100640006F616465640020286D6D290020460020DC
:10065000420020480020204D3134352053004D61A8
:1006600074657269616C2068656174757020706171
:1006700072616D65746572730020204D31343920CC
:1006800043203B20556E69747320696E2043656C6E
:10069000736975730A0054656D7065726174757263
:1006A0006520556E697473002020473231203B006D
:1006B0004C696E65617220556E69747300454550D2
:1006C000524F4D206461746173697A65206572725E
:1006D0006F722E0A00290A002062797465733B202C
:1006E00063726320002073746F7265642073657495
:1006F00074696E67732072657472696576656420CB
:100700002800202863616C63756C6174656429211D
:100710000A0020213D2000454550524F4D204352B4
:1007200043206D69736D61746368202D2028737494
:100730006F7265642920002053697A653A20004968
:100740006E6465783A200000002F4400002F4400BA
:1007500000C84200401C460000A0420000A0420029
:1007600000C8430000C842B80B0000B80B0000648A
:1007700000000010270000204D61726C696E3D562C
:100780003837290A00454550524F4D20766572731F
:10079000696F6E206D69736D6174636820284545CB
:1007A00050524F4D3D0020436F756E7420583A00F3
:1007B000426564004531004500626564002C207389
:1007C000797374656D2073746F707065642120484F
:1007D00065617465725F49443A20004572723A203F
:1007E0004D415854454D50004D415854454D5020B1
:1007F0007472696767657265640048656174696EE3
:1008000067204661696C65640048656174696E675C
:10081000206661696C6564004572723A204D494EEC
:1008200054454D50004D494E54454D502074726909
:1008300067676572656400544845524D414C2052CB
:10084000554E4157415900546865726D616C205294
:10085000756E6177617900202F002042403A0020B8
:10086000403A0000002100240027002A002D00301B
:1008700000330001010000040107010A017C3C3E35
:100880005E2B3D3F2F5B5D3B2C2A225C00434F4D8E
:100890004D554E49434154494F4E004452595255CB
:1008A0004E004552524F525300494E464F00454369
:1008B000484F00506C656173652052657365740024
:1008C0005052494E5445522048414C54454400250D
:1008D000533A20255300706F7765726F6666004B40
:1008E000494C4C45442E20005072696E746572204C
:1008F00068616C7465642E206B696C6C28292063B8
:10090000616C6C6564210A00006563686F3A00459C
:1009100072726F723A0020440020204D3230302035
:100920005300202844697361626C6564293A00466B
:10093000696C616D656E742073657474696E67733C
:100940000020204D3230312058004D617820416325
:1009500063656C65726174696F6E2028756E697469
:10096000732F7332290020204D3230332058004D30
:100970006178206665656472617465732028756EA0
:100980006974732F73290020520020204D323034B7
:10099000205000416363656C65726174696F6E20FD
:1009A00028756E6974732F7332292028503C707239
:1009B000696E742D616363656C3E20523C72657490
:1009C000726163742D616363656C3E20543C747284
:1009D0006176656C2D616363656C3E2900204A0079
:1009E00020540020530020204D3230352042004159
:1009F0006476616E6365642028423C6D696E5F7346
:100A000065676D656E745F74696D655F75733E20B3
:100A1000533C6D696E5F66656564726174653E2006
:100A2000543C6D696E5F74726176656C5F66656576
:100A300064726174653E204A3C6A756E635F6465EA
:100A4000763E290020440020490020204D333031DB
:100A5000205000486F74656E64205049440020495E
:100A60006E76616C69642065787472756465722055
:100A70000047322F47332062616420706172616DDC
:100A800065746572730A00536C6565702E2E2E00B6
:100A9000436C69636B20746F20526573756D652EAE
:100AA0002E2E004E6F204D6F76652E00456E642011
:100AB00066696C65206C6973740A00426567696ECB
:100AC0002066696C65206C6973740A004E6F206D36
:100AD000656469610A00706175736500286E6F2036
:100AE00066696C65290043757272656E742066696B
:100AF0006C653A20004E6F74205344207072696E0A
:100B000074696E670A005344207072696E74696E6E
:100B100067206279746520002E0A0044656C657454
:100B2000696F6E206661696C65642C2046696C652E
:100B30003A200046696C652064656C657465643AAA
:100B4000002569730025696D202569730025696892
:100B50002025696D20256973002569642025696851
:100B60002025696D20256973002569792025696430
:100B7000202569682025696D2025697300507269F8
:100B80006E742074696D653A20006F6B006F666645
:100B900000AE08A908A2089B088D084445425547A5
:100BA0003A004D31313320530057616E68616F2038
:100BB0006933204F46462E00434F4E4649475F4516
:100BC00058504F5254004D4541545041434B0043FF
:100BD0004F4F4C45525F54454D504552415455522C
:100BE00045004348414D4245525F54454D504552A2
:100BF0004154555245004241425953544550504981
:100C00004E470041524353004D4F54494F4E5F4DA4
:100C10004F44455300544845524D414C5F50524F4C
:100C200054454354494F4E00455854454E4445445D
:100C30005F4D323000435553544F4D5F4649524D3E
:100C4000574152455F55504C4F4144004C464E5F12
:100C50005752495445004C4F4E475F46494C454E0C
:100C6000414D45004155544F5245504F52545F53EA
:100C7000445F5354415455530053445F57524954B1
:100C80004500524550454154004D554C54495F561E
:100C90004F4C554D45005344434152440050524F30
:100CA0004D50545F535550504F525400484F535479
:100CB0005F414354494F4E5F434F4D4D414E445366
:100CC00000454D455247454E43595F5041525345AB
:100CD0005200434153455F4C494748545F42524993
:100CE0004748544E45535300544F47474C455F4C7B
:100CF000494748545300534F4654574152455F505B
:100D00004F574552004255494C445F504552434568
:100D10004E54004C4556454C494E475F4441544162
:100D2000005A5F50524F42450052554E4F555400A5
:100D30004155544F4C4556454C005052494E545F16
:100D40004A4F420050524F47524553530041555469
:100D50004F5245504F52545F54454D5000415554E9
:100D60004F5245504F52545F504F5300564F4C55C1
:100D70004D455452494300454550524F4D0042495C
:100D80004E4152595F46494C455F5452414E53467D
:100D900045520053455249414C5F584F4E5F584FA2
:100DA0004646004649524D574152455F4E414D45DA
:100DB0003A4D61726C696E206275676669782D3292
:100DC0002E312E782028466562203139203230328B
:100DD000332031383A31343A35392920534F55527E
:100DE00043455F434F44455F55524C3A67697468C9
:100DF00075622E636F6D2F4D61726C696E466972FC
:100E00006D776172652F4D61726C696E2050524F23
:100E1000544F434F4C5F56455253494F4E3A312E33
:100E200030204D414348494E455F545950453A574B
:100E3000616E68616F2069332045585452554445AE
:100E4000525F434F554E543A3120555549443A6309
:100E5000656465326132662D343161322D34373448
:100E6000382D396231322D6335356336326633368B
:100E7000376666002F2F004D31343520533C696EA4
:100E80006465783E206F7574206F662072616E67AE
:100E9000652028302D31290A003F4A206F757420C3
:100EA0006F662072616E67652028302E30312074A5
:100EB0006F20302E33290A002058004F4646004F3D
:100EC0004E003B200020204D61783A200020002079
:100ED000204D696E3A2000203B200020204D323109
:100EE00031205300250A0046523A0020466C6F77A5
:100EF0003A200064697300656E0043290A0061624C
:100F00006C656420286D696E2074656D70200043E7
:100F10006F6C6420657874727564657320617265A6
:100F20002000486F6D652025732046697273740038
:100F30004F666673657473204170706C69656400F8
:100F40004572723A20546F6F206661722100546FAF
:100F50006F206661722066726F6D207265666572C1
:100F6000656E636520706F696E740A004545505266
:100F70004F4D204F4B0A004D383400446F6E6520B2
:100F80007072696E74696E672066696C650A004DDF
:100F90003737004D333100496E76616C69642065E6
:100FA000787472756465720A0020204D32303620E4
:100FB0005800486F6D65206F666673657400436105
:100FC000703A0020746F6F206C6F6E6720657874C4
:100FD000727573696F6E2070726576656E74656484
:100FE0000A0020636F6C6420657874727573696F92
:100FF0006E2070726576656E7465640A0020573ADB
:1010000000436F6F6C696E672E2E2E0045312025D0
:10101000530020573A0042656420436F6F6C696E3D
:10102000672E2E2E004265642048656174696E67E4
:101030002E2E2E00206661696C6564212042616459
:10104000206865617465722069640A005049442013
:101050004175746F74756E650023646566696E65AD
:101060002044454641554C545F004B6420004B6979
:1010700020004B7020002066696E697368656421EA
:101080002050757420746865206C617374204B70F7
:101090002C204B6920616E64204B6420636F6E735B
:1010A00074616E74732066726F6D2062656C6F7709
:1010B00020696E746F20436F6E6669677572617424
:1010C000696F6E2E680A00504944204175746F7430
:1010D000756E6500206661696C6564212074696DB8
:1010E000656F75740A00504944204175746F7475BA
:1010F0006E6500206661696C6564212054656D70C1
:101100006572617475726520746F6F2068696768B5
:101110000A00504944204175746F74756E65005023
:101120004944204379636C65730025532025692F5A
:10113000256900204B643A2000204B693A200020AA
:101140004B703A200020436C6173736963205049EF
:1011500044200A002054753A2000204B753A2000A4
:10116000206D61783A2000206D696E3A200020647D
:101170003A200020626961733A2000486561746911
:101180006E672E2E2E002073746172740A0050490F
:1011900044204175746F74756E6500206661696CDA
:1011A0006564212054656D70657261747572652087
:1011B000746F6F20686967680A0050494420417560
:1011C000746F74756E6500504944204175746F7476
:1011D000756E65004572723A207574663820666FC8
:1011E0006E74206E6F7420696E697469616C697ABF
:1011F00065642E004572723A207574663820666FF9
:101200006E74206E6F7420696E697469616C697A9E
:1012100065642E004572723A207574663820666FD8
:101220006E74206E6F7420696E697469616C697A7E
:1012300065642E0020003A003A002568753A253092
:101240003268750025303268753A2530326875008D
:101250002530326875272530326875002568756439
:101260002025303268753A25303268750042656451
:1012700000456E636C6F7375726500450020002534
:101280000020202020202020002020202000657227
:1012900072001FE0201020102010102010202010BD
:1012A000201030300840048003001FE03FF03FF082
:1012B0003FF01FE01FE03FF03FF03FF00FC007801E
:1012C00003003FFFF038007030FC3020FC10207825
:1012D000102030102C00D02E31D02F7BD02F7BD07F
:1012E0002E31D02C00D020301020781020FC10306F
:1012F000FC303800703FFFF03FFFF038007031865F
:10130000302387102787902F87D02F03D0203010CD
:101310002078102078102030102F03D02F87D0276E
:1013200087902387103186303800703FFFF01FFF11
:10133000F81FFFF8041040020820020820041040A3
:101340000820801041001041000820800410400057
:1013500000001FFFF81FFFF8000C0F00FE0702251A
:1013600003BB017FFE08FE08FE05080806000040DA
:10137000F0C88888987810050808060000C0F8882A
:1013800088888888F80505050600012030F8302097
:101390000508080600002070F820202020E005093C
:1013A000090600FF2070A8A8B888887020070505E6
:1013B000070001D86C366CD80509090600FFF8A8AB
:1013C0008888888888A8F8050A0A0600FE205050F8
:1013D000505088A8A8887003030306000340A0406B
:1013E000FFFFFFFFFFFFFFFFFFFFFFFFFFFFFFFF0D
:1013F000FFFFFFFFFFFF0000000605FF01070706D4
:10140000020080808080800080030303060105A025
:10141000A0A005060606000050F85050F850050937
:10142000090600FF2070A8A07028A87020050707F3
:10143000060000C8C810204098980507070600005D
:1014400040A0A040A89068010303060205808080A8
:101450000309090601FF20404080808040402003AE
:1014600009090601FF8040402020204040800507F8
:101470000706000020A8702070A8200505050600BA
:10148000012020F820200203030601FFC040800550
:101490000101060003F8020202060100C0C00507B0
:1014A00007060000081010204040800507070600CE
:1014B00000708898A8C8887003070706010040C01C
:1014C00040404040E00507070600007088081020F3
:1014D00040F8050707060000F80810300888700576
:1014E000070706000010305090F810100507070697
:1014F0000000F880F0080888700507070600003033
:101500004080F0888870050707060000F808101072
:1015100020202005070706000070888870888870E2
:101520000507070600007088887808106002050526
:10153000060100C0C000C0C00206060601FFC0C010
:1015400000C04080030505060101204080402005C1
:101550000303060002F800F80305050601018040B8
:10156000204080050707060000708810202000201A
:101570000507070600007088B8A8B880700507073F
:10158000060000708888F88888880507070600002C
:10159000F04848704848F00507070600007088804A
:1015A00080808870050707060000F04848484848D2
:1015B000F0050707060000F88080F08080F8050736
:1015C00007060000F88080F080808005070706008D
:1015D000007088808098887005070706000088885A
:1015E00088F8888888030707060100E040404040EB
:1015F00040E0050707060000381010101090600545
:1016000007070600008890A0C0A09088050707067D
:101610000000808080808080F80507070600008831
:10162000D8A8888888880507070600008888C8A881
:101630009888880507070600007088888888887061
:10164000050707060000F08888F0808080050707FE
:1016500006000070888888A89068050707060000C3
:10166000F08888F0A0908805070706000070888041
:1016700070088870050707060000F8202020202049
:101680002005070706000088888888888870050775
:101690000706000088888888505020050707060044
:1016A0000088888888A8A850050707060000888851
:1016B00050205088880507070600008888502020A1
:1016C0002020050707060000F80810204080F803D6
:1016D00009090601FFE080808080808080E00507A6
:1016E0000706000080404020101008030909060189
:1016F000FFE020202020202020E005030306000535
:101700002050880501010600FEF8030303060105C9
:1017100080402005050506000070087888780507D8
:10172000070600008080F0888888F005050506001F
:101730000070808088700507070600000808788818
:101740008888780505050600007088F08070050718
:1017500007060000304840E040404005070706000B
:10176000FE7088888878087005070706000080806A
:10177000F0888888880307070601004000C04040C1
:1017800040E00409090601FE10003010101010900E
:101790006005070706000080808890E090880307B6
:1017A00007060100C04040404040E0050505060036
:1017B00000D0A8A8A8A8050505060000B0C888881C
:1017C00088050505060000708888887005070706EB
:1017D00000FEF0888888F080800507070600FE7804
:1017E000888888780808050505060000B0C880804C
:1017F0008005050506000078807008F005070706DB
:1018000000002020F820202018050505060000888B
:101810008888986805050506000088888850200596
:1018200005050600008888A8A850050505060000E3
:1018300088502050880507070600FE8888885020B9
:101840004080050505060000F8102040F80309094E
:101850000601FF2040404080404040200109090629
:1018600002FF8080808080808080800309090601DB
:10187000FF804040402040404080050303060002B6
:1018800048A890FF4D6564696120496E69742046DF
:1018900061696C0053442063617264206F6B0A00BD
:1018A0006F70656E526F6F74206661696C65640A53
:1018B00000766F6C756D652E696E6974206661695E
:1018C0006C65640A004E6F20534420636172640AA1
:1018D00000534420636172642072656C65617365B6
:1018E000640A000A4D3234004D3233202573002E35
:1018F0000A006F70656E206661696C65642C204615
:10190000696C653A200046696C652073656C656397
:101910007465640A002053697A653A200046696C50
:1019200065206F70656E65643A2000454E44205313
:101930005542524F5554494E450A002220706F734C
:10194000002220706172656E743A22005355425233
:101950004F5554494E452043414C4C2074617267A9
:1019600065743A220053756263616C6C204F766532
:1019700072666C6F77004578636565646564206D99
:10198000617820535542524F5554494E4520646565
:101990007074683A0057726974696E6720746F20BA
:1019A00066696C653A2000667265736800646F69E9
:1019B0006E67002066696C653A20004E6F772000E4
:1019C0002F6175746F25632E67006D61726C696E8F
:1019D00066772E6F7267006275676669782D322EA2
:1019E000312E78001FFFFFFFFFFFFF6000000000A7
:1019F00001FF400000000000FF8000000000007FA9
:101A000083CF00000C303F87FF80000C301F8679A9
:101A100080000C000F8C30C7838C30E78C30CFC730
:101A2000CC31F38C30DCECEC33B98C30D86C6C33CB
:101A3000198C30D06C0C33198C30D86C0C33198C59
:101A400030DC6C0E3B198C30CF7C079F198C30C773
:101A50007C038F19400000000000026000000000BD
:101A600000061FFFFFFFFFFFF870012C0190012708
:101A700001B0012201C0011D01F001180110021383
:101A80000130020E016002090190020401C002FF50
:101A9000000003FA004003F5008003F000D003EBE0
:101AA000002004E6007004E100E004DC004005D7FB
:101AB00000C005D2004006CD00D006C8008007C394
:101AC000003008BE00F008B900C009B400B00AAF89
:101AD00000B00BAA00D00CA500000EA000500F9B78
:101AE00000C01096005012910000148C00C01587A1
:101AF00000B0178200B0197D00D01B7800001E7363
:101B00000040206E0090226900F024640040275FAE
:101B10000090295A00E02B5500102E500020304B29
:101B20000010324600E033410090353C001037375A
:101B30000070383200A0392D00B03A2800A03B23B5
:101B400000603C1E00103D1900903D1400103E0F37
:101B500000703E0A00C03E0500003F0000403FFB11
:101B6000FF803FF6FFC03FF1FF2020506C616E6E9A
:101B7000657242756666657242797465733A2000D3
:101B80002046726565204D656D6F72793A200020A0
:101B9000436F6D70696C65643A2046656220313927
:101BA00020323032330A00204C6173742055706447
:101BB000617465643A20323032332D30322D313940
:101BC000207C20417574686F723A20286E6F6E65B4
:101BD0002C2064656661756C7420636F6E6669673E
:101BE000290A004D61726C696E20627567666978BA
:101BF0002D322E312E780A0020536F667477617271
:101C0000652052657365740A0020576174636864C7
:101C10006F672052657365740A002042726F776E99
:101C2000206F75742052657365740A0020457874BE
:101C300065726E616C2052657365740A00506F772F
:101C4000657255700A0073746172740A0047323805
:101C50005859004D31303031006F6B006572726F32
:101C6000722077726974696E6720746F2066696C80
:101C7000650A00446F6E6520736176696E67206641
:101C8000696C652E0A00456E6473746F707300256D
:101C90005320256320256320256320256300205AD7
:101CA0003A0020593A0020583A00656E6473746F08
:101CB0007073206869743A20000000220025002813
:101CC000002B002E00310034000201000005010845
:101CD000010B0105050505070508080808020202B1
:101CE000020A0A08080404040401010101010101B7
:101CF000010303030303030303040707070C0C0C8E
:101D00000C0C0C0C0C020202020606060606060665
:101D1000060B0B0B0B0B0B0B0B0102102020080802
:101D2000102040102040800201020108040201013D
:101D30000204081020408080402010080402018026
:101D4000040201804020100804020108040201017D
:101D50000204081020408001020408102040800086
:101D6000000A0B02090C0D0E080703040100000015
:101D70000000000000000000000000000000000063
:101D80000000000000000000000000121110000020
:101D90000000000000000000000000000000000043
:101DA000000000000024F404D9201BC40C5C0E9831
:101DB00004C4095F0265077101F405F900FB04B36F
:101DC0000048048700C10369005803550003034518
:101DD00000BE023A008402310053022A0029022583
:101DE0000004022000E4011C00C8011900AF011723
:101DF00000980114008401130071011000610110AA
:101E00000051010E0043010D0036010B002B010BA8
:101E10000020010B00150109000C01090003010855
:101E200000FB000800F3000800EB000700E40006D8
:101E300000DE000600D8000600D2000600CC000537
:101E400000C7000500C2000500BD000400B9000481
:101E500000B5000400B1000400AD000400A90004B6
:101E600000A5000300A20003009F0004009B0003E4
:101E70000098000300950002009300030090000307
:101E8000008D0002008B0003008800020086000223
:101E90000084000300810002007F0002007D000238
:101EA000007B00020079000200770001007600024A
:101EB000007400020072000100710002006F000255
:101EC000006D0001006C0002006A00010069000260
:101ED0000067000100660001006500010064000267
:101EE000006200010061000100600001005F00026B
:101EF000005D0001005C0001005B0001005A000170
:101F0000005900010058000100570001005600016F
:101F1000005500010054000100530000005300016F
:101F2000005200010051000100500001004F00016B
:101F3000004E0000004E0001004D0001004C000169
:101F4000004B0000004B0001004A00010049000165
:101F50000048000000480001004700010046000062
:101F6000004600010045000000450001004400015A
:101F70000043000000430001004200000042000155
:101F8000004100000041000100400001003F00004E
:101F9000003F0001003E0000003E0001003D000047
:101FA000003D0001003C0000003C0000003C00013E
:101FB000003B0000003B0001003A0000003A000135
:101FC000003900000039000100380000003800002E
:101FD0000038000100370000003700010036000023
:101FE000003600000036000100350000003500001A
:101FF000003500010034000000340000003400010E
:102000000033000000330000003300010032000004
:1020100000320000003200010031000000310000F9
:1020200000310001003000000030000000300001ED
:10203000002F0000002F0000002F0000002F0001E3
:10204000002E0000002E0000002E0001002D0000D8
:10205000002D0000002D0000002D0001002C0000CC
:10206000002C0000002C0000002C0001002B0000C0
:10207000002B0000002B0000002B0001002A0000B4
:10208000002A0000002A0000002A000100290000A8
:10209000002900000029000000290000002900019B
:1020A0000028000000280000002800000028000090
:1020B0000028000100270000002700000027000082
:1020C0000027000000270001002600000026000075
:1020D0000026000000260000002600010025000068
:1020E000002500000025000000250000002500005C
:1020F000002500010024000000240000002400004E
:102100000024000000240001002300000023000040
:102110000023000000230000002300000023000033
:102120000023000100220000002200000022000025
:102130000022000000220000002200010021000017
:10214000002100000021000000210000002100000B
:1021500000210000002100010020000000200000FC
:1021600000200000002000000020000000200000EF
:102170000020000000200001001F0000001F0000E0
:10218000001F0000001F0000001F0000001F0000D3
:10219000001F0001001E0000001E0000001E0000C5
:1021A000001E00000024F4D43050C38E20C2A24090
:1021B00017828B7011127A910D816CD90AA861E196
:1021C00008C7586607615143061E4B5D05C145A708
:1021D000041A411104093D9803713931034036DB7B
:1021E0000265339102D4305402802E1D02632CEE1E
:1021F00001752AC501B028A001102781018F25642F
:10220000012B244B01E0223401AC211F018D200D54
:1022100001801FFC00841EED00971DDF00B81CD25A
:1022200000E61BC600201BBC00641AB200B219A84D
:10223000000A19A0006A189900D117910040178B65
:1022400000B516840031167E00B31579003A157377
:1022500000C7146F0058146A00EE136600881363F9
:102260000025135E00C7125B006C12570015125454
:1022700000C111510070114F0021114B00D61049BF
:10228000008D1047004610440002104200C00F406D
:1022900000800F3E00420F3C00060F3B00CB0E3883
:1022A00000930E37005C0E3500270E3400F30D321C
:1022B00000C10D3100900D3000600D2E00320D2D4B
:1022C00000050D2C00D90C2B00AE0C2900850C2923
:1022D000005C0C2700350C27000E0C2600E80B24B0
:1022E00000C40B2400A00B23007D0B23005A0B21FC
:1022F00000390B2100180B2000F80A1F00D90A1E14
:1023000000BB0A1E009D0A1D00800A1D00630A1CF6
:1023100000470A1B002C0A1B00110A1A00F7091AB1
:1023200000DD091900C4091900AB09190092091749
:10233000007B091800630917004C091600360916BE
:1023400000200916000A091500F5081500E0081418
:1023500000CC081400B8081400A408140090081356
:10236000007D0812006B081300580812004608127E
:10237000003408110023081100120811000108118F
:1023800000F0071000E0071000D0071000C0071091
:1023900000B0070F00A107100091070E0083070F80
:1023A0000074070F0065070E0057070E0049070E5F
:1023B000003B070D002E070E0020070D0013070D30
:1023C0000006070D00F9060C00ED060D00E0060CF6
:1023D00000D4060C00C8060C00BC060C00B0060CAD
:1023E00000A4060B0099060C008D060B0082060B5C
:1023F0000077060B006C060B0061060A0057060BFF
:10240000004C060A0042060A0038060A002E060A98
:102410000024060A001A060A001006090007060A28
:1024200000FD050900F4050900EB050900E20509B6
:1024300000D9050900D0050900C7050900BE050936
:1024400000B5050800AD050800A50509009C0508B4
:1024500000940508008C050800840508007C050828
:1024600000740508006C050700650508005D050798
:1024700000560508004E05070047050700400508FF
:102480000038050700310507002A05070023050766
:10249000001C050600160507000F050700080506C5
:1024A0000002050700FB040600F5040700EE040621
:1024B00000E8040600E2040700DB040600D5040679
:1024C00000CF040600C9040600C3040600BD0406CC
:1024D00000B7040600B1040500AC040600A604061B
:1024E00000A00405009B0406009504050090040666
:1024F000008A04050085040500800406007A0405AE
:102500000075040500700405006B040500660405F1
:1025100000610405005C0405005704050052040531
:10252000004D04050048040500430405003E040472
:10253000003A04050035040500300404002C0405AD
:102540000027040400230405001E0404001A0404E8
:102550000016040500110404000D0404000904051C
:10256000000404040000040400FC030400F8030455
:1025700000F4030400F0030400EC030400E8030487
:1025800000E4030400E0030400DC030400D80304B7
:1025900000D4030400D0030400CC030400C80303E8
:1025A00000C50303003A2E00007B1D000018110037
:1025B000004A090000DB0400007C02000041010029
:1025C00000A10000004D6F766520246D6D00302E57
:1025D000303235004D6F766520302E316D6D004DF7
:1025E0006F766520316D6D004D6F76652031306DF1
:1025F0006D004D6F76652041786973004D6F76658B
:10260000202A004D6F766520400020002000200029
:1026100020002000486F6D696E67204661696C6517
:102620006400FFFFFF43616E6E6F74206F70656E14
:10263000207375626469722000220A00556E6B6E09
:102640006F776E20636F6D6D616E643A202200209B
:102650004500205A0020590020204D3932205800D2
:1026600053746570732070657220756E69740062B2
:102670007573793A2070617573656420666F722096
:10268000696E7075740A00627573793A20706175AD
:1026900073656420666F7220757365720A006275D7
:1026A00073793A2070726F63657373696E670A009D
:1026B0004D656469612052656D6F766564004D6596
:1026C00064696120496E736572746564004D3131CF
:1026D000322053687574646F776E0053544F5050B6
:1026E00045442E20005072696E7465722073746FB9
:1026F000707065642064756520746F206572726FF8
:1027000072732E2046697820746865206572726F36
:102710007220616E6420757365204D3939392074DB
:102720006F20726573746172742E202854656D7009
:102730006572617475726520697320726573657462
:102740002E2053657420697420616674657220724E
:10275000657374617274696E67290A004E6F204355
:102760006865636B73756D2077697468206C696E3A
:1027700065206E756D6265722C204C617374204CFF
:10278000696E653A20004D3239004E6F204368650E
:10279000636B73756D2077697468206C696E652052
:1027A0006E756D6265722C204C617374204C696E7D
:1027B000653A2000636865636B73756D206D69739E
:1027C0006D617463682C204C617374204C696E6574
:1027D0003A20004C696E65204E756D626572206905
:1027E00073206E6F74204C617374204C696E652089
:1027F0004E756D6265722B312C204C617374204CC8
:10280000696E653A20004D3131300053657269615F
:102810006C20737461747573206D69736D6174637A
:10282000680A0053442072656164206572726F7299
:102830000A004B494C4C20627574746F6E2F70699E
:102840006E0A002121204B494C4C20636175736551
:10285000642062792000746F6F206D756368206951
:102860006E6163746976652074696D65202D2063DF
:10287000757272656E7420636F6D6D616E643A205F
:10288000002121204B494C4C206361757365642005
:1028900062792000DB0FC93F45BCDA3F8FB30240AD
:1028A000FCF0274056946140FE4B9B4084A5D840E5
:1028B000E0231841346A5641E859974164DBD54119
:1028C0006E271742B4B75542CE1A9742C8AED542CA
:1028D000B5885A43D40684BFA65FA7BF7443E0BF40
:1028E00010B11AC01C2C58C0E8F697C0B849D6C021
:1028F0004E4E17C124D355C1802497C1A0B5D5C170
:10290000121A17C244AE55C2781797C26CACD5C222
:1029100067885AC320746F6F206C6F6E672065786C
:1029200074727573696F6E2070726576656E74650A
:10293000640A0020636F6C64206578747275736933
:102940006F6E2070726576656E7465640A006F6BD9
:102950000A00526573656E643A200020453A0020F3
:102960005A3A0020593A00583A004572726F722064
:1029700077726974696E6720746F20454550524FB5
:102980004D210A0057616E68616F206933205265DE
:102990006164792E005072696E74696E672E2E2EF6
:1029A000005072696E7420506175736564002F2F3A
:1029B000616374696F6E3A00A9D25FDB11241FBE98
:1029C000CFEFD1E2DEBFCDBF00E00CBF84B7809374
:1029D000DF1314BE0FB6F894A8958091600088614B
:1029E00080936000109260000FBE13E0A0E0B2E0A0
:1029F000EAE6FFEC01E00BBF02C007900D92A6359E
:102A0000B107D9F723E1A6E5B3E001C01D92AF3DC0
:102A1000B207E1F714E1CDEDD4E100E006C0219763
:102A20000109802FFE010E944FE4CC3DD10780E0D8
:102A30000807A9F70E94A8D30C94A4E70C940000FF
:102A40000F931F93CF93DF93CDB7DEB760970FB689
:102A5000F894DEBF0FBECDBF8C01DC01ED91FC917F
:102A60000280F381E02DBE016F5F7F4F19958823AF
:102A700009F464C08981807CC9F56F81637070E05E
:102A8000762F6627770F770F8885B4E08B9FC0017C
:102A90001124682B792B898582958695869583707C
:102AA000682B6F5F7F4F90E080E02A852370220FB4
:102AB0003B8537FB332730F9232B3E813F70230FB3
:102AC0003327331F2750310904C0660F771F881F33
:102AD000991F2A95D2F760960FB6F894DEBF0FBE05
:102AE000CDBFDF91CF911F910F910895803419F5DB
:102AF00068856695669570E090E080E0CB01772769
:102B000066272A85622B098510E0102F0027012EE9
:102B1000000C220B330B602B712B822B932B6F5FDE
:102B20007F4F8F4F9F4F4AE0660F771F881F991F77
:102B30004A95D1F7D0CF8BE0F801848360E070E054
:102B4000CB01C9CF0895FC0182810895CF93DF9313
:102B5000C091E610D091E71081E0CE31D105E4F0CC
:102B600020E030E040E05FE36091E2107091E3101C
:102B70008091E4109091E5100E946AE40E94AEE515
:102B80006C1B7D0B77FF03C071956195710981E026
:102B9000633071050CF080E0DF91CF910895FC0166
:102BA00090E1AEE4B4E001900D929A95E1F70895BA
:102BB000CF92DF92EF92FF9280918F03882309F4E6
:102BC00057C0C0908B03D0908C03E0908D03F090A1
:102BD0008E0320E030E0A901C701B6010E94D8DFD2
:102BE000882309F445C020E030E040E05FE3C701FE
:102BF000B6010E943DE09B01AC010E943DE02BED3F
:102C00003FE049E450E40E943DE09B01AC0160E0FC
:102C100070E080E89FE30E9446E56B017C01C09272
:102C20008603D0928703E0928803F0928903609133
:102C3000060270910702072E000C880B990B0E9468
:102C4000DEDF2AE037ED43E25CE30E943DE0A701CE
:102C500096010E943DE060935E0270935F02809354
:102C6000600290936102FF90EF90DF90CF90089503
:102C7000C12CD12C80E8E82E8FE3F82ED0CFCF9254
:102C8000DF92EF92FF92FC01C080D180E280F3805E
:102C900020E030E0A901C701B6010E94D8DF87FF1C
:102CA00068C0C701B601905820E030E040E251E42E
:102CB0000E943DE020E030E040EA50E40E946AE4F7
:102CC00020E030E040E251E40E9446E50E94AEE59B
:102CD0009B0160E22031F7E23F0730F0C90160E17B
:102CE00077E20E9428E4605D60936003283E83E001
:102CF000380708F445C0C90168EE73E00E9428E473
:102D0000CB016AE070E00E9428E4805D809361035B
:102D100080E22436310558F0C90164E670E00E9473
:102D200028E4CB016AE070E00E9428E4805D809393
:102D3000620380E22A30310558F0EAE0F0E0C90190
:102D4000BF010E9428E4CB01BF010E9428E4805DFE
:102D500080936303C9016AE070E00E9428E4805D0B
:102D60008093640380E693E0FF90EF90DF90CF9034
:102D7000089520E030E040E251E4C701B60198CF69
:102D800080E2C4CF8F929F92AF92BF92CF92DF9298
:102D9000EF92FF92FC01C080D180E280F38020E0BE
:102DA00030E040E251E4C701B6010E943DE020E07E
:102DB00030E040E251E40E943DE04B015C0120E044
:102DC00030E0A901C701B6010E94D8DF20E030E061
:102DD00040EA50E487FF04C020E030E040EA50ECD5
:102DE000C501B4010E946AE420E030E040E251E411
:102DF0000E9446E50E94AEE59B018BE237FF05C0CD
:102E000022273327261B370B8DE280935F03C901EE
:102E100068EE73E00E943CE4CB01EAE0F0E0BF0121
:102E20000E943CE4805D80936003C90164E670E029
:102E30000E943CE4CB01BF010E943CE4805D809392
:102E40006103C901BF010E943CE4282FCB01BF01EF
:102E50000E943CE4805D809362038EE28093630372
:102E6000205D209364038FE593E0FF90EF90DF9067
:102E7000CF90BF90AF909F908F9008958F929F9228
:102E8000AF92BF92CF92DF92EF92FF92CF93FC016D
:102E9000C080D180E280F38020E030E040E251E465
:102EA000C701B6010E943DE020E030E048EC52E46A
:102EB0000E943DE04B015C0120E030E040E251EC3B
:102EC000C701B6010E94D8DF181654F420E030E0A4
:102ED00048EC52E4C701B6010E9490E687FD86C027
:102EE00020E030E0A901C701B6010E94D8DF87FFCA
:102EF0006EC060E070E080EA90ECA50194010E9451
:102F00006AE420E030E040E251E40E9446E50E949D
:102F1000AEE56B017C01F7FC5FC020E137E240E0E9
:102F200050E00E94D4E3CA01B9012AE030E040E059
:102F300050E00E94D4E3605D60935F03C701B60177
:102F400028EE33E040E050E00E94D4E39AE0892E7E
:102F5000912CA12CB12CCA01B901A50194010E94A8
:102F6000D4E3605D60936003C701B60124E630E0FE
:102F700040E050E00E94D4E3CA01B901A5019401E8
:102F80000E94D4E3605D609361038EE280936203EC
:102F9000C701B601A50194010E94D4E3C62FCA015E
:102FA000B901A50194010E94D4E3605D60936303BD
:102FB000C05DC09364038FE593E0CF91FF90EF90E5
:102FC000DF90CF90BF90AF909F908F90089560E07A
:102FD00070E080EA90E491CFF094E094D094C094B3
:102FE000C11CD11CE11CF11C6DE2A6CF20E030E039
:102FF000A901C701B6010E94D8DF87FF6AC060E05F
:1030000070E080EA90ECA50194010E946AE420E05F
:1030100030E040E251E40E9446E50E94AEE54B01FB
:103020005C0120E030E0A901C701B6010E9490E6F2
:1030300087FD0BC020E030E040E251E4C701B6015B
:103040000E94D8DF60E287FD13C0B7FC47C0C5010E
:10305000B40128EE33E040E050E00E94D4E3CA011E
:10306000B9012AE030E040E050E00E94D4E3605D26
:1030700060936003C501B40124E630E040E050E015
:103080000E94D4E38AE0C82ED12CE12CF12CCA0195
:10309000B901A70196010E94D4E3605D60936103CA
:1030A0008EE280936203C501B401A70196010E94DC
:1030B000D4E3C62FCA01B901A70196010E94D4E347
:1030C000605D60936303C05DC093640380E693E03A
:1030D00074CF60E070E080EA90E495CFB094A09463
:1030E00090948094811C911CA11CB11C6DE2C0CFF6
:1030F00024E6829FC001112481589F4F6FEF70E03A
:103100000E943CE4262F81E3643609F080E280933C
:10311000610390E22A3040F03AE0822F632F0E9450
:103120000FE40E940FE4905D90936203822F6AE0A7
:103130000E940FE4905D9093630385E280936403A3
:1031400081E693E008956091060270910702072ED0
:10315000000C880B990B0E94DEDF2AE037ED43E27A
:103160005CE30E943DE0209186033091870340910B
:103170008803509189030E943DE060935E02709342
:103180005F028093600290936102089580913F06F0
:10319000811104C080911D06809379060895809165
:1031A00081128823C1F0815080938112E1EBF0E11C
:1031B000882351F08150990B2BE1289FF001299F22
:1031C000F00D1124ED58FE4E8BE1A6E9B0E101901F
:1031D0000D928A95E1F720918112211105C080910D
:1031E0008B12806480938B1281E090E0A0E0B0E0CD
:1031F000211103C080E090E0DC01809328069093C9
:103200002906A0932A06B0932B061092210681E08E
:103210008093380683E080934D020895CF93DF9327
:10322000EC01CB01BA010E94DEDF29EC38EC48EC5E
:103230005EE30E9446E520E030E040E05FE30E946C
:103240006AE40E94B3E56883DF91CF9108950E94FC
:10325000DEDF29EC38EC48EC5EE30E9446E520E036
:1032600030E040E05FE30E946AE40E94B3E5862F0D
:103270003FCFE0913F0686E0E802F0011124E65FCF
:10328000F94F80911D0690E0958384830895CF9334
:10329000DF9300D01F92CDB7DEB70E94B3E50E9446
:1032A000DCDF69837A838B839C83CE010196E7DC24
:1032B0000F900F900F900F90DF91CF9108958F9204
:1032C0009F92AF92BF92CF92DF92EF92FF92CF93F5
:1032D0006B017C0120E030E0A9010E94D8DF87FD6E
:1032E000D6C06DEB77E386E095E3A70196010E94D7
:1032F0006AE46B017C0120E030E0A9010E94D8DF84
:1033000087FFCAC0C701B601905820E030E040E214
:1033100051E40E943DE020E030E048EC52E40E949D
:103320003DE020E030E040EA50E40E946AE420E022
:1033300030E040E251E40E9446E50E94AEE56B01B8
:103340007C0160E280E4C81682E4D8068FE0E806DB
:10335000F1048CF0C701B60120E432E44FE050E004
:103360000E94D4E3CA01B9012AE030E040E050E015
:103370000E94D4E3605D60935D0360E280EAC8165A
:1033800086E8D80681E0E806F1048CF0C701B601B2
:1033900020EA36E841E050E00E94D4E3CA01B901D6
:1033A0002AE030E040E050E00E94D4E3605D6093AA
:1033B0005E0360E280E1C81687E2D806E104F1040A
:1033C0008CF0C701B60120E137E240E050E00E94F6
:1033D000D4E3CA01B9012AE030E040E050E00E94A5
:1033E000D4E3605D60935F0360E288EEC81683E01B
:1033F000D806E104F1048CF0C701B60128EE33E0F1
:1034000040E050E00E94D4E3CA01B9012AE030E074
:1034100040E050E00E94D4E3605D60936003C70128
:10342000B60124E630E040E050E00E94D4E38AE0B8
:10343000882E912CA12CB12CCA01B901A5019401AF
:103440000E94D4E3605D609361038EE28093620327
:10345000C701B601A50194010E94D4E3C62FCA0199
:10346000B901A50194010E94D4E3605D60936303F8
:10347000C05DC09364038DE593E0CF91FF90EF9022
:10348000DF90CF90BF90AF909F908F9008956DEB9D
:1034900077E386E095EB29CF20E030E040E251E48D
:1034A000C701B60136CFCF92DF92EF92FF92CF9352
:1034B000DF9300D01F92CDB7DEB76B017C0120E017
:1034C00030E0A9010E94D8DF87FD1AC06DEB77E3D9
:1034D00086E095E3A70196010E946AE469837A83F6
:1034E0008B839C83CE010196CADB0F900F900F90C7
:1034F0000F90DF91CF91FF90EF90DF90CF900895E4
:103500006DEB77E386E095EBE5CF8F929F92AF92DC
:10351000BF92CF92DF92EF92FF92CF936B017C012B
:1035200020E030E0A9010E94D8DF87FD93C06DEB59
:1035300077E386E095E3A70196010E946AE46B01B8
:103540007C0120E030E040E251E40E943DE020E0D8
:1035500030E04AE754E40E943DE04B015C0120E08A
:1035600030E0A901C701B6010E94D8DF20E030E0B9
:1035700040EA50E487FF04C020E030E040EA50EC2D
:10358000C501B4010E946AE420E030E040E251E469
:103590000E9446E50E94AEE56B017C01C114D10496
:1035A000E104F10409F45BC0F7FE59C0F094E09423
:1035B000D094C094C11CD11CE11CF11C8DE28093FD
:1035C0005F03C701B60128EE33E040E050E00E94FF
:1035D000D4E38AE0882E912CA12CB12CCA01B90128
:1035E000A50194010E94D4E3605D609360038EE2C4
:1035F00080936103C701B60124E630E040E050E06B
:103600000E94D4E3CA01B901A50194010E94D4E348
:10361000605D60936203C701B601A50194010E9439
:10362000D4E3C62FCA01B901A50194010E94D4E3D5
:10363000605D60936303C05DC09364038FE593E0B6
:10364000CF91FF90EF90DF90CF90BF90AF909F9081
:103650008F9008956DEB77E386E095EB6CCF80E279
:10366000AECFCF93DF93EC01CB01BA010E94DEDF36
:1036700020E030E048EC52E40E9446E5688379831C
:103680008A839B83DF91CF910895CF93DF93EC01E1
:10369000CB01BA010E94DEDF20E030E048EC52E4CA
:1036A0000E9446E5688379838A839B83DF91CF916B
:1036B00008950E94DEDF20E030E048EC52E40E94F2
:1036C00046E5FDCDCF93DF93EC01CB01BA010E941B
:1036D000DEDF2AE037ED43E25DE30E9446E50E942B
:1036E000B3E5688379838A839B83DF91CF910895C3
:1036F0000E94DEDF2AE037ED43E25DE30E9446E50B
:10370000C6CDCF93DF93EC01CB01BA010E94DEDF7F
:103710002AE037ED43E25DE30E9446E56883798362
:103720008A839B83DF91CF9108950E94DEDF2AE098
:1037300037ED43E25DE30E9446E5B5CECF93DF93DC
:10374000EC01CB01BA010E94DEDF688379838A83B2
:103750009B83DF91CF9108950E94DEDFA4CECF92AC
:10376000DF92EF92FF92CF93DF9300D01F92CDB7FD
:10377000DEB70E94DEDF20E030E048EC52E40E9439
:1037800046E56B017C0120E030E0A9010E94D8DF12
:103790002DEB37E346E055E387FF04C02DEB37E31D
:1037A00046E055EBC701B6010E946AE469837A835B
:1037B0008B839C83CE01019661DB0F900F900F905D
:1037C0000F90DF91CF91FF90EF90DF90CF90089511
:1037D000CF93DF93EC01CB01BA010E94DEDF0E94A0
:1037E000AEE579836883DF91CF910895CF93DF931E
:1037F000EC01CB01BA010E94DEDF20E030E04AE7B5
:1038000054E40E9446E5688379838A839B83DF9131
:10381000CF9108950E94DEDF20E030E04AE754E4D3
:103820000E9446E572CECF93DF93C091E610D0910F
:10383000E710209729F16091E2107091E3108091D8
:10384000E4109091E5100E94AEE56E5F7F4F2497E3
:103850006C177D07ACF470937304609372040E943C
:1038600033B1605C73468F4F9F4F609374047093C5
:1038700075048093760490937704DF91CF91089537
:1038800010927404109275041092760410927704CA
:10389000F4CFCF93DF93C091E610D091E71020973B
:1038A00029F16091E2107091E3108091E410909101
:1038B000E5100E94AEE56E5F7F4F24976C177D0781
:1038C000ACF470937304609372040E9433B1605C33
:1038D00073468F4F9F4F6093740470937504809369
:1038E000760490937704DF91CF9108951092740439
:1038F000109275041092760410927704F4CFC9CF19
:10390000CF93DF93EC018D810E94E58A60E08B818B
:10391000DF91CF910C940DB0DF92EF92FF920F9355
:103920001F93CF93DF938C01C62FD22FF32EE42E5B
:10393000D52EE6DF0E943FB18C2F80640E94D98A89
:103940008D2D0E94D98A8E2D0E94D98A8F2D0E949A
:10395000D98A8D2F0E94D98A87E8C11101C085E9D3
:103960000E94D98ACC3011F40E94DE8AC0E00E9405
:10397000DE8AF801868387FF04C0CF3F11F0CF5F56
:10398000F6CFDF91CF911F910F91FF90EF90DF90D5
:10399000089561E0FC0183810E940DB08FEF0C94CB
:1039A000D98A0F931F93CF938C01AADF0E943FB156
:1039B000C82F882369F08DEF0E94D98A0E943FB1F9
:1039C000C82FC801E6DF8C2FCF911F910F9108956A
:1039D00082E1F8018483F5CF8F929F92AF92BF92DC
:1039E000CF92DF92EF92FF920F931F93CF93DF93CB
:1039F000EC016A017B01590120E030E0A90167E395
:103A00008BDFA501980167E1CE0186DF811125C01A
:103A10008F81833039F089E0CC0CDD1CEE1CFF1C5B
:103A20008A95D1F7A701960169E1CE0175DF11E012
:103A3000882319F010E087E08C83CE01AADF812F64
:103A4000DF91CF911F910F91FF90EF90DF90CF907A
:103A5000BF90AF909F908F90089589E08C8310E085
:103A6000ECCFCF93DF93EC016EBDFA01CA019E5FEC
:103A70000DB407FEFDCF20812EBD0DB407FEFDCF96
:103A800021812EBD3296E817F90791F70DB407FE94
:103A9000FDCF8FEF0E94D98A8FEF0E94D98A0E94B2
:103AA000DE8A8E838F71853041F083E18C83CE0175
:103AB00070DF80E0DF91CF91089581E0FBCF0F931D
:103AC0001F93CF93DF93EC018B011ADF0E943FB16C
:103AD00081110BC085E18C8310E0CE015ADF812F6C
:103AE000DF91CF911F910F910895A8016CEFCE0146
:103AF000B8DF182F882371F3F0CF0F931F93CF9364
:103B0000DF93EC0189018F81833039F089E0440F24
:103B1000551F661F771F8A95D1F79A01AB0168E19F
:103B2000CE01FADE811127C0A8016EEFCE0199DF28
:103B3000182F8823A9F00E943FB1182F8823C1F0C5
:103B400020E030E0A9016DE0CE01E6DE882321F01F
:103B500086E18C8310E004C00E94DE8A8111F8CFD8
:103B6000CE0117DF812FDF91CF911F910F91089523
:103B700087E18C83F5CF86E0ECCF1F93CF93DF9363
:103B8000EC01BEDE20E030E0A9016CE0CE01C4DE35
:103B900011E0882319F010E083E08C83CE01F9DE78
:103BA000812FDF91CF911F9108951F93CF93DF93C2
:103BB000EC018F81833039F089E0440F551F661F77
:103BC000771F8A95D1F79A01AB0162E1CE01A4DE9D
:103BD00011E0882319F010E085E08C83CE01D9DE56
:103BE000812FDF91CF911F9108958F929F92AF9275
:103BF000BF92EF92FF920F931F93CF93DF938C01AD
:103C0000EB017A010E9433B14B015C012CE2820E80
:103C100021E0921EA11CB11C0E94DE8AF80186835D
:103C20008F3F69F40E9433B1681979098A099B09A9
:103C300097FDF2CF81E1F8018483C0E021C08E3F7F
:103C400069F5F1E0EF1AF1088FEF8EBDFE012FEF5D
:103C50000DB407FEFDCF8EB581932EBDCF018C1B19
:103C60009D0B8E159F05A0F30DB407FEFDCF8EB5FD
:103C7000CE0DDF1D88830E94DE8A0E94DE8AC1E0AD
:103C8000C80187DE8C2FDF91CF911F910F91FF909C
:103C9000EF90BF90AF909F908F9008958FE0CBCF23
:103CA0000F931F93CF93DF93EC018B0129DE40E04C
:103CB00052E0B801CE01DF91CF911F910F9195CFC6
:103CC0000F931F93CF93DF93EC0189018F81833092
:103CD00039F089E0440F551F661F771F8A95D1F789
:103CE0009A01AB0161E1CE0117DE811109C040E00C
:103CF00052E0B801CE01DF91CF911F910F9175CFA6
:103D000084E08C83CE0145DE80E0DF91CF911F916E
:103D10000F9108958F929F92AF92BF92CF92DF92B0
:103D2000EF92FF920F931F93CF93DF93EC01162F27
:103D30001F821C824B830E9433B16B017C0120EDFA
:103D4000C20E27E0D21EE11CF11CA89561E08B8118
:103D50000E940DB08B8190E0FC01E75EF24E249151
:103D60008D52934EFC018491882399F090E0880F46
:103D7000991FFC01ED59F74FA591B491FC01E7544F
:103D8000F34E859194918FB7F894EC912E2B2C9350
:103D90008FBF209A289A219A2398229A81E00E9424
:103DA000E58A85E08D830E94E58A0AE08FEF0E9414
:103DB000D98A0150D9F7A89520E030E0A90160E048
:103DC000CE01AADD8E83813079F00E9433B16C1967
:103DD0007D098E099F0997FDEFCF81E08C83CE018D
:103DE000D8DD1A8280E065C0A8952AEA31E040E07B
:103DF00050E068E0CE0190DD853031F581E08F83C1
:103E0000A8958F81812C912C5401823029F4812C2A
:103E1000912CA12C80E4B82E20E030E0A90167E3CA
:103E2000CE017ADDA501940169E2CE0175DD8E83B4
:103E30008823F1F00E9433B16C197D098E099F0926
:103E400097FDEACF8AE0CACF04E00E94DE8A8E8323
:103E50000150D9F78A3A11F482E0D1CF0E9433B1F0
:103E60006C197D098E099F0997FDBFCF82E0B6CFFF
:103E70008F818230B9F420E030E0A9016AE3CE01FD
:103E80004BDD882311F088E0A9CF0E94DE8A807C78
:103E9000803C11F483E08F830E94DE8A0E94DE8AD8
:103EA0000E94DE8ACE0175DD81E08A83173070F4CE
:103EB0001D83DF91CF911F910F91FF90EF90DF90C5
:103EC000CF90BF90AF909F908F90089588E18C83A2
:103ED00089CF0F931F93CF93DF93EC018B0120E0E9
:103EE00030E0A90169E018DD811109C040E150E02E
:103EF000B801CE01DF91CF911F910F9176CE80E175
:103F00008C83CE0146DD80E0DF91CF911F910F9130
:103F10000895EF92FF920F931F93CF937B018A0135
:103F2000C2E48F3F09F0C4E580E20E94817E8C2FBD
:103F30000E94817E8AE30E94817EF7016081718107
:103F4000828193810E94D5A887E598E00E94887EAF
:103F5000F80160817181828193810E94D5A862E01D
:103F600070E080E090E0CF911F910F91FF90EF9073
:103F70000C9499B04091900321E0422764E070E0F6
:103F80000C94A0A84091900321E0422761E070E0EA
:103F90000C94A0A84091900321E042276CE070E0CF
:103FA0000C94A0A84091900321E0422761E070E0CA
:103FB0000C94A0A84091900321E0422768E070E0B3
:103FC0000C94A0A84091900321E0422762E070E0A9
:103FD0000C94A0A84091900321E042276CE070E08F
:103FE0000C94A0A841E061E070E00C94A0A840917E
:103FF000900321E042270C94A0A862E070E00C94AA
:10400000CCB064E070E00C94CCB061E070E00C9453
:10401000CCB061E070E00C94CCB06CE070E00C943B
:10402000CCB0CF93C82FCB010E94887E82E695E06A
:104030000E94887E83E595E0CC2311F088E595E029
:10404000CF910C94FF89CF93DF93CDB7DEB720E2F9
:10405000488559856F818E810E9464ACDF91CF9134
:10406000089560911D068FEF0C94D5D080911D06A8
:10407000682F0C94D5D06FEF80911D060C94D5D08D
:1040800068E679E482E00C941FD16AE679E481E085
:104090000C941FD16CE679E480E00C941FD16AE1A6
:1040A00077E483E00C941FD180914D02882341F086
:1040B0006091D8037091D90341E081E00C94FFAB8B
:1040C0000895FC0120E03EE2DB014D91BD0140324C
:1040D00049F0283011F430833196DB0111974C916F
:1040E000408331962F5F2B3079F710820895CF935C
:1040F0008091FD0FC1E08823C9F08091FE0F90915F
:10410000FF0F4091F50F5091F60F6091F70F7091EE
:10411000F80FDC01ED91FC910288F389E02D25EF89
:104120003DE01995C82F811104C0C0E08C2FCF91BC
:1041300008954091F90F5091FA0F6091FB0F709123
:10414000FC0F4115510561057105B9F08091FE0F15
:104150009091FF0FDC01ED91FC910288F389E02D35
:1041600025EF3DE01995882301F31092F90F109285
:10417000FA0F1092FB0F1092FC0F1092FD0FD6CF8A
:10418000CF92DF92EF92FF92CF936B017C01C42F0D
:104190008091F50F9091F60FA091F70FB091F80F65
:1041A0008C159D05AE05BF0521F1A1DF811108C069
:1041B000C0E08C2FCF91FF90EF90DF90CF900895CB
:1041C0008091FE0F9091FF0FDC01ED91FC91008832
:1041D000F189E02D25EF3DE0B701A601199588236F
:1041E00039F3C092F50FD092F60FE092F70FF092EC
:1041F000F80FCC2321F081E08093FD0FDACFC1E0EE
:10420000D8CF4F925F926F927F928F929F92AF9290
:10421000BF92CF92DF92EF92FF920F931F93CF93B3
:10422000DF93EC01423051056105710590F480E0A7
:10423000DF91CF911F910F91FF90EF90DF90CF9082
:10424000BF90AF909F908F907F906F905F904F90B6
:10425000089589859A85AB85BC850196A11DB11D00
:1042600084179507A607B70710F38F898031C1F52A
:10427000852E962EA72EBB248B899C89AD89BE895D
:10428000880E991EAA1EBB1E280139016A017B01F6
:1042900041E0C501B40174DF882349F29F89903160
:1042A00081F5DD24EE24FF24F601EE0FFF1FEB5015
:1042B000F24F118300839A89923008F4B9CF4D816F
:1042C0005E816F817885840E951EA61EB71E809232
:1042D000F90F9092FA0FA092FB0FB092FC0FA8CFAB
:1042E000803209F0A4CF8B899C89AD89BE894A01AF
:1042F0005B01E7E0B694A79497948794EA95D1F789
:10430000BFCFE894C7F8DD24EE24FF24F601EE0FBA
:10431000FF1FEE0FFF1FEB50F24F4082518262826F
:104320007382C9CFCF92DF92EF92FF920F931F93C8
:10433000CF93DF93FC0181859285A385B485019697
:10434000A11DB11D84179507A607B70750F480E09B
:10435000DF91CF911F910F91FF90EF90DF90CF9061
:10436000089587898031A9F5BB27A72F962F852F20
:10437000C388D488E588F6888C0D9D1DAE1DBF1DB1
:10438000E9016A017B018F014091F50F5091F60F11
:104390006091F70F7091F80F84179507A607B7077C
:1043A00049F5F8018789803161F5B701A6015527E4
:1043B00066277727440F551F4B50524FFA018081D3
:1043C0009181B0E0A0E088839983AA83BB8381E0D8
:1043D000BFCF803209F0BBCFC388D488E588F68888
:1043E000DB01CA01C7E0B695A79597958795CA9551
:1043F000D1F7C2CF40E0BC01CD01C2DE8111D1CFE7
:10440000A6CFB701A6014F77552766277727440F18
:10441000551F440F551F4B50524FFA018081918117
:10442000A281B381BF70CFCF4F925F926F927F9284
:10443000AF92BF92CF92DF92EF92FF920F931F93B2
:10444000CF93DF9300D01F92CDB7DEB78C014983A5
:104450005A836B837C835901C12CD12C7601412C6A
:1044600082E0582E612C712C49815A816B817C81AC
:104470009E012F5F3F4FC80155DF882319F1F801D6
:104480008585A301920104C0220F331F441F551FCD
:104490008A95D2F7DA01C901C80ED91EEA1EFB1EA1
:1044A00049815A816B817C8187898031F1F481E077
:1044B000483F5F4F61057105B8F2F501C082D182B6
:1044C000E282F3820F900F900F900F90DF91CF91C7
:1044D0001F910F91FF90EF90DF90CF90BF90AF9022
:1044E0007F906F905F904F90089581E0483F5F4FBD
:1044F0006F4F7F4008F4B8CFE0CF8F929F92AF927A
:10450000BF92CF92DF92EF92FF920F931F93CF93C0
:10451000DF93EC018B8181110EC080E0DF91CF91A0
:104520001F910F91FF90EF90DF90CF90BF90AF90D1
:104530009F908F90089509891A892B893C890417C7
:1045400015072607370748F34A015B01823031F42B
:1045500088869986AA86BB8681E0E0CF8114910483
:10456000A104B10449F4188619861A861B861C8298
:104570001D821E821F82F0CF088519852A853B8502
:10458000E98DFA8D858590E00996B901A801415021
:10459000510961097109082E04C0769567955795F0
:1045A00047950A94D2F775016401E1E0CE1AD1086B
:1045B000E108F10804C0F694E794D794C7948A956B
:1045C000D2F7C416D506E606F70620F0012B022B1B
:1045D000032B09F58D899E89AF89B88D8C839D83C6
:1045E000AE83BF838E010C5F1F4FC114D104E10461
:1045F000F10409F4ADCF4C815D816E817F8198011A
:10460000898D9A8D8FDE91E0C91AD108E108F108F1
:104610008111EBCF82CFC41AD50AE60AF70AE2CF9E
:104620002F923F924F925F926F927F928F929F92C2
:10463000AF92BF92CF92DF92EF92FF920F931F93B0
:10464000CF93DF93EC014B017A018B81811115C06F
:104650008FEF9FEFDF91CF911F910F91FF90EF9020
:10466000DF90CF90BF90AF909F908F907F906F9092
:104670005F904F903F902F900895898180FFE8CF01
:1046800089899A89AB89BC89488559856A857B85E2
:10469000841B950BA60BB70BA70170E060E0841795
:1046A0009507A607B70708F47C0167011E0124E0FF
:1046B000220E311CC114D10409F4A7C048855985C4
:1046C0006A857B855A0181E0B822898D9A8D2A01FD
:1046D0003B0129E076946794579447942A95D1F743
:1046E0002B81FC01223079F5628D738D848D958D3F
:1046F000640D751D861D971D00E012E00A191B0947
:10470000C016D10608F486010115E2E01E0771F417
:104710004090F50F5090F60F6090F70F7090F80FE3
:10472000641575058605970509F04CC040E028DD45
:10473000882309F48DCFB5016B50724FA801C401D5
:104740000E9447E751C0148111501421A114B104F3
:1047500071F411110CC0452B462B472B51F58D8957
:104760009E89AF89B88D8C839D83AE83BF83E98D8D
:10477000FA8D4C805D806E807F8022E0421A510865
:1047800061087108858504C0440C551C661C771CA3
:104790008A95D2F786859785A089B189480E591EDA
:1047A0006A1E7B1EC301B201610F711D811D911D27
:1047B000A3CF4C815D816E817F819101B3DD811139
:1047C000D6CF46CFA091FE0FB091FF0FED91FC9197
:1047D00011970088F189E02D9401AB01BC01CD0156
:1047E0001995882309F434CF800E911E8885998508
:1047F000AA85BB85800F911FA11DB11D8887998750
:10480000AA87BB87C01AD10A55CFC70123CF0F9300
:104810001F93CF93DF93FC012381222331F080E0AB
:10482000DF91CF911F910F9108958B01EC01FB0156
:104830008789803139F582E08B831D8A1E8A1F8A21
:10484000188E808D918DB0E0A0E025E0880F991F33
:10485000AA1FBB1F2A95D1F7898B9A8BAB8BBC8B78
:104860001A8F098F81E08983188619861A861B861C
:104870001C821D821E821F82188A1C861D861E862F
:104880001F86CECF803259F683E08B83428D538DC5
:10489000648D758D4D8B5E8B6F8B788F9E012F5E37
:1048A0003F4FC801C1DD8111DBCFB9CFCF93DF937B
:1048B000EC01462F41706C857D858E859F8560DC7F
:1048C000882351F0888920E2829FC00111248B50F7
:1048D000924FDF91CF91089590E080E0FACFCF938F
:1048E000DF93EC018B81882339F1898187FF21C017
:1048F00061E0CE01DBDFFC01892BF1F08081853E98
:10490000D9F08B81823040F489899A89AB89BC893E
:10491000848F958FA68FB78F8D899E89938F828F75
:104920008D899E89AF89B88DB58BA48B89818F774E
:104930008983DF91CF91DBCB81E0888380E0DF91B9
:10494000CF910895CF93DF93EC01C9DF1B82DF91F4
:10495000CF910895CF93DF93EB01FC0123812111C7
:1049600004C080E0DF91CF9108952250223028F4D6
:104970008FE28883198281E0F5CF60E097DF0097AE
:1049800081F3DC0160E080E09EE22D91203299F01D
:10499000883031F49E01260F311DF90190836F5F3D
:1049A0009E01260F311DAD0141505109FA01408190
:1049B000F90140836F5F8F5F8B3039F7FE01E60F9F
:1049C000F11D1082D8CF3F924F925F926F927F92EB
:1049D0008F929F92AF92BF92CF92DF92EF92FF920F
:1049E0000F931F93CF93DF93CDB7DEB72C970FB6FE
:1049F000F894DEBF0FBECDBF5C01DC0159968D90EF
:104A00009C90F40181859285A385B4859C01AD01BC
:104A10002F5F3F4F4F4F5F4F29873A874B875C8708
:104A2000D50114964D905D906D907C901797411430
:104A300051046104710409F458C0BFEF4B1A5B0ABA
:104A40006B0A7B0A312C730162011D821E821F8258
:104A50001886F40181859285A385B4852D813E81D8
:104A60004F815885281739074A075B0708F054C05B
:104A700089859A85AB85BC858C159D05AE05BF05DE
:104A800050F482E0C82ED12CE12CF12C92E0492E7A
:104A9000512C612C712C9E012F5F3F4FB701A60155
:104AA000C40140DC8823C1F189819A81AB81BC813A
:104AB000892B8A2B8B2B01F1260137019FEF491A95
:104AC000590A690A790A2D813E814F8158852F5FE5
:104AD0003F4F4F4F5F4F2D833E834F8358873FEFAC
:104AE000C31AD30AE30AF30AB4CF4080518062802C
:104AF000738033243394A7CFC414D504E604F70499
:104B000011F70FEF1FEF2FEF3FE0B701A601C40130
:104B100078DB782E81111AC0712C872D2C960FB658
:104B2000F894DEBF0FBECDBFDF91CF911F910F91E3
:104B3000FF90EF90DF90CF90BF90AF909F908F90BD
:104B40007F906F905F904F903F900895F501448162
:104B5000558166817781411551056105710531F0F7
:104B600097018601C4014DDB8823B1F2D50114966B
:104B7000CD92DD92ED92FC921797332051F0D70140
:104B8000C6010196A11DB11DF40180839183A2830A
:104B9000B383F50185899689A789B08D892B8A2BE6
:104BA0008B2B09F0BACFC58AD68AE78AF08E81812D
:104BB00080688183B2CF40E050E0BA019ECCFC0116
:104BC00023812111BFCE08952F923F924F925F9281
:104BD0006F927F928F929F92AF92BF92CF92DF920D
:104BE000EF92FF920F931F93CF93DF93CDB7DEB772
:104BF000C454D1090FB6F894DEBF0FBECDBF7C01FF
:104C00004B015A01222E19821C821C8E1F8E6115A7
:104C1000710511F410E0ADC1DC0113968C91811186
:104C2000F9CFFA0180818B018F32C9F4DB01139631
:104C30008C9113978250823058F059966D917C91E7
:104C4000CE014C96E4DD8E01045E1F4F882311F3E4
:104C5000C5015C010196F50120812F32D1F39E013F
:104C60002F5F3F4F6901290130E2332E2496CFAEEA
:104C700024972596DFAE25973E013CE1630E711C1B
:104C800022963FAE229721963FAE21973FAE3EAE91
:104C90003DAE3CAE3BAE3AAE39AE38AE3FAA950122
:104CA00090E047E0D9018D91882361F18F3251F175
:104CB0008E3239F44A3009F4ADCF98E04AE09D01D4
:104CC000F1CFEDE7F8E02491222321F03196821311
:104CD000FACFA0CF491708F49DCF813208F49ACFBC
:104CE0008F3709F497CF3FE9380F3A3108F420EEB7
:104CF000E7E3F0E0EC0FFD1FE90FF11D820F808369
:104D00009F5FDDCF8FA9803209F484CF5901D9018B
:104D10008C912F5F3F4F8F32C9F38823A1F0081584
:104D2000190511F0C8010EDE24969FAD2497259633
:104D30008FAD25974C145D0411F4962D872D8601B7
:104D4000C92ED82E9DCFF801818D928DD7015A960C
:104D50009C938E935997C8012EDFC12CF801808552
:104D60009185A285B38541895289638974898417A5
:104D70009507A607B70708F052C025E0B695A79596
:104D8000979587952A95D1F7F82FFF70DF2ED801D8
:104D900013968C91823008F43DCF41E050E0BE0183
:104DA0006E5B7F4FC8013CDC019709F033CFF801FF
:104DB00080859185A285B3854F96A11DB11D808701
:104DC0009187A287B387F0E2DF9EB00111246B5078
:104DD000724F6115710509F41DCFDB018C91882399
:104DE00041F0853E09F04BC0CC2029F0CC24C3947F
:104DF000B5CFC1100EC08091F50F9091F60FA09124
:104E0000F70FB091F80FF70184879587A687B787CA
:104E1000D08ADB018C918111E9CFCC24C394822DFF
:104E20008274823409F0F6CECC2009F4C3C0F701B5
:104E3000D08861E0C7013ADD009709F4EBCE20E2AB
:104E4000DC011D922A95E9F72BE0FE01F796DC01C3
:104E500001900D922A95E1F721E238E2FC01318BB5
:104E6000208B40E058E057874687338B228B318F69
:104E7000208F578B468B3BD981110AC0CBCE4BE09C
:104E800050E0CE01C7960E943AE7892B09F066CF21
:104E90002D2D30E0F901B5E0EE0FFF1FBA95E1F7D7
:104EA000DF01AB50B24F1B968C91817121F0822DA6
:104EB000827109F01BC1D70159968D919C915A9727
:104EC0004091F50F5091F60F6091F70F7091F80F28
:104ED0001C964D935D936D937C931F975096DC9237
:104EE0005097EB50F24F84889588B12CA12C540137
:104EF0009924882455968D929D92AD92BC92589794
:104F0000428D538D70E060E0482959296A297B2938
:104F100055964D935D936D937C935897A5E0220F22
:104F2000331FAA95E1F7D901AB50B24F1B962C91D4
:104F3000287109F0CEC0848D958DA68DB78DF701AF
:104F4000818B928BA38BB48B81E08383822D8F70B6
:104F5000F7018183148215821682178210861186CA
:104F60001286138611E024FE04C0C7010E949AA98C
:104F7000182FCE014C9623DECE01019620DE812F24
:104F8000CC5BDF4F0FB6F894DEBF0FBECDBFDF9115
:104F9000CF911F910F91FF90EF90DF90CF90BF9036
:104FA000AF909F908F907F906F905F904F903F90C9
:104FB0002F900895D80113968C911397823009F49D
:104FC00029CE51968D919D910D90BC91A02D803E42
:104FD0009F4FAF41B10508F01DCEC801F4DC882316
:104FE00009F418CE84D8882309F414CED801599630
:104FF000ED91FC915A9714968D909D90AD90BC9038
:105000001797B2E08B1A9108A108B108858504C0F2
:10501000880C991CAA1CBB1C8A95D2F7868597859B
:10502000A089B189880E991EAA1EBB1E81E08093BB
:10503000FD0F8092F50F9092F60FA092F70FB092AD
:10504000F80FE5EFFDE080E092E0DF019C011D92AA
:1050500021503040E1F7DD24D394D8015996ED91E9
:10506000FC918481D816C0F48091FE0F9091FF0FBF
:10507000DC01ED91FC910288F389E02D25EF3DE004
:10508000B501A4014D0D511D611D711D1995882398
:1050900009F4C0CDD394E1CF258580E092E0A0E073
:1050A000B0E004C0880F991FAA1FBB1F2A95D2F732
:1050B000F8014189528963897489840F951FA61F5D
:1050C000B71F818B928BA38BB48B85EF9DE0D12C86
:1050D000B6CE203159F497012F5E3F4FA5D98823D2
:1050E00029F084E0D70113968C9330CFD701139623
:1050F0001C9290CD1F93CF93DF9300D000D01F92CE
:105100001F92CDB7DEB7182F6091E6107091E710AF
:10511000072E000C880B990B0E94DEDF6D837E83C7
:105120008F8398878091E2109091E310A091E41012
:10513000B091E51089839A83AB83BC83AE014B5F4A
:105140005F4FBE016F5F7F4F80E80E94891F6091B3
:10515000070670910806072E000C880B990B0E9419
:10516000DEDF6D837E838F83988780910306909125
:105170000406A0910506B091060689839A83AB8345
:10518000BC83AE014B5F5F4FBE016F5F7F4F8FEF00
:105190000E94891F609109061F3F39F08CE21802B6
:1051A000F0011124E252FF4E628570E08FE598E035
:1051B0000E94E3896091090670E08AE598E00E9408
:1051C000E38928960FB6F894DEBF0FBECDBFDF91FE
:1051D000CF911F9108950F930FB70F9300916E0019
:1051E0000D7F00936E0078940F930BB70F930CB75D
:1051F0000F921F922F933F934F935F936F937F93E1
:105200008F939F93AF93BF93EF93FF9311240E94CB
:105210008863FF91EF91BF91AF919F918F917F91A3
:105220006F915F914F913F912F911F900F900CBF05
:105230000F910BBF0F910260F89400936E000F91D5
:105240000FBF0F911895CF93DF9310925702CEEDB9
:10525000D0E1198618860E94131C1A862C98CFEF6D
:10526000D5E0198618860E9485671A86809102010A
:10527000807280930001DF91CF9108958F929F9269
:10528000AF92BF92CF92DF92EF92FF920F931F9354
:10529000CF93DF93B0E4A0E06A2F70E0AB014B0F37
:1052A000511D55954795411119C0EBE6FAE16591FD
:1052B0007491072E000C880B990B0E94DEDFDF91A2
:1052C000CF911F910F91FF90EF90DF90CF90BF9003
:1052D000AF909F908F900895B42FE0CFA41711F056
:1052E000B41303C0E7E6FBE1E2CF9A012150310994
:1052F000220F331F220F331FF901E759F54EE590B6
:10530000F490F901E359F54EC591D4918E159F059E
:1053100018F3A42FC817D90708F4BECFF901E5592F
:10532000F54E05911491F901E159F54EC590D490CF
:105330008E199F09BC0190E080E00E94DCDF4B01E8
:105340005C01B601601B710B072E000C880B990BDA
:105350000E94DEDF9B01AC01C501B4010E943DE06B
:105360004B015C01CE19DF09BE0190E080E00E9494
:10537000DCDF9B01AC01C501B4010E9446E56B0175
:105380007C01B801110F880B990B0E94DEDF9B0195
:10539000AC01C701B6010E946AE491CFEF92FF927F
:1053A0000F931F93CF93DF93C82F7B018A018091C6
:1053B0005C06833090F00E94AC80C7010E94887E1A
:1053C0008DEB97E00E94887ECF3F41F589EB97E017
:1053D0000E94887E8AE00E94817E35DFA8958091B8
:1053E0005E0481113EC081E080935E0482E0809380
:1053F0005C0629DFD5E1D15019F1A895409A69E101
:1054000070E080E090E00E9499B0409860E570E024
:1054100080E090E00E9499B0A895EDCFC7FDDACF6B
:1054200087EB97E00E94887E6C2F0C2E000C770B88
:10543000880B990B0E94F6A78AE00E94817ECACF52
:10544000409A60EB77E0CF3F11F064EB77E040E00B
:10545000C801DF91CF911F910F91FF90EF900C94B5
:10546000048ADF91CF911F910F91FF90EF900895E3
:105470004F925F926F927F929F92AF92BF92CF9224
:10548000DF92EF92FF920F931F93CF93DF93EC0184
:105490006B015A01922EFA01408051806280738024
:1054A000A30192016D817E818F8198850E94D8DF52
:1054B0008823A1F04D825E826F8278867724739470
:1054C00020E030E0A901F501608171818281938142
:1054D0000E9490E618160CF0712C7C828C81823030
:1054E000A1F0833009F457C08130C9F52D813E8188
:1054F0004F815885F60160817181828193810E947C
:10550000D8DF87FD2CC082E08C830E9433B12B0151
:105510003C01B701FF0C880B990B0E94DEDF9B0159
:10552000AC016D817E818F8198850E9469E49B0129
:10553000AC01F60160817181828193810E9490E6C5
:1055400087FD1DC09801A8EEB3E00E9400E4460E5E
:10555000571E681E791E488259826A827B82DF91BB
:10556000CF911F910F91FF90EF90DF90CF90BF9060
:10557000AF909F907F906F905F904F90089588813B
:105580009981AA81BB81481A590A6A0A7B0A77FC69
:10559000E6CF83E08C8347E358E067E478E0892D29
:1055A000DF91CF911F910F91FF90EF90DF90CF90FF
:1055B000BF90AF909F907F906F905F904F90EECE96
:1055C0004BED57E068EE77E0E9CECF93DF93A895F7
:1055D0008091E0109091E1100E9410A86093E21079
:1055E0007093E3108093E4109093E510809101068E
:1055F0009091020643DE6093030670930406809345
:10560000050690930606C091E010D091E1108091BC
:10561000460290914702C817D90710F480E0D0DF06
:105620008091E6109091E710181619066CF480919D
:105630004402909145028C179D0730F448E158E0F0
:1056400065E278E080E0AADE2091E9053091EA0584
:1056500080910106909102068217930710F48FEF54
:10566000AFDF8091070690910806181619069CF482
:1056700020914202309143028091010690910206EE
:105680002817390740F448E158E065E278E08FEFE9
:10569000DF91CF9183CEDF91CF9108952F923F92EA
:1056A0004F925F926F927F928F929F92AF92BF9232
:1056B000CF92DF92EF92FF920F931F93CF93DF93DE
:1056C000CDB7DEB762970FB6F894DEBF0FBECDBF81
:1056D00080915C0681111AC0A89562960FB6F89465
:1056E000DEBF0FBECDBFDF91CF911F910F91FF9015
:1056F000EF90DF90CF90BF90AF909F908F907F9072
:105700006F905F904F903F902F90089580916D041F
:105710008111E3CF81E080936D0480919703811123
:1057200003C010926D04D9CF50DF109297030E94EE
:1057300033B16D837E838F83988760914A02709125
:105740004B02072E000C880B990B0E94DEDF9B0199
:10575000AC016091E2107091E3108091E41090919F
:10576000E5100E9490E6181614F480E029DF60919D
:10577000E6107091E710072E000C880B990B0E9421
:10578000DEDF69837A838B839C8334E0E32EF12C04
:1057900008E210E020E0AE014F5F5F4F62EE70E183
:1057A0008CEC90E165DE2091E2103091E3104091A5
:1057B000E4105091E51029873A874B875C87609108
:1057C000480270914902072E000C880B990B0E9429
:1057D000DEDF9B01AC0169857A858B859C850E9403
:1057E00090E618160CF015C260914A0270914B02B7
:1057F000072E000C880B990B0E94DEDF9B01AC0189
:1058000069857A858B859C850E94D8DF87FF01C2D8
:1058100080916504811109C08EED90E1909364043C
:105820008093630481E08093650400916304109188
:105830006404D80118966D917C91072E000C880B9A
:10584000990B0E94DEDF6B017C0120E030E0A901B2
:105850000E94D8DF8823C9F0D80114962D913D917C
:105860004D915C9117972D873E874F87588BC701C5
:10587000B6010E9469E44B015C0120E030E040E2A7
:1058800051EC0E94D8DF87FF07C081E0F8018387D1
:10589000C12CD12C7601D5C020E030E040E251E4AB
:1058A000C501B4010E9490E618165CF481E0D801AD
:1058B0001B968C93C12CD12C2FE7E22E23E4F22EE1
:1058C000C0C0F8018385882349F0138614861586A5
:1058D00016861786148E158E168E178ED8019496FE
:1058E000CD90DD90ED90FC9097971C962D913D9179
:1058F0004D915C911F97C501B4010E946AE4762E18
:10590000672E582E492E20E030E0A9010E94D8DFF2
:1059100087FD7AC1A701960160E070E08FE793E40C
:105920000E9446E5698B7A8B382E292E272D362D3D
:10593000452D542D0E94D8DF87FF03C079886A88DF
:105940002101872D962DA52DB42DF80184879587EB
:10595000A687B78720A131A142A153A1C501B401F7
:105960000E943DE04B015C01D80154968D929D92BE
:10597000AD92BC925797272D362D452D542DC7013A
:10598000B6010E943DE02B013C01F801408E518E92
:10599000628E738EC48CD58CE68CF78C2D853E85FB
:1059A0004F85588960897189828993890E9469E449
:1059B000D80198962D913D914D915C919B970E94B5
:1059C0003DE0A70196010E9469E420ED3CEC4CE427
:1059D0005DE30E943DE0A70196010E946AE46B012D
:1059E0007C01F801C48ED58EE68EF78E2D853E851E
:1059F0004F855889208B318B428B538BA3019201A9
:105A0000C501B4010E946AE4A70196010E946AE4FC
:105A100020E030E0A9010E946AE46B017C0120E0F3
:105A200030E0A9010E94D8DF87FD32CF20E030E0CE
:105A30004FE753E4C701B6010E9490E618160CF434
:105A400039CFC701B6010E94AEE5759567956093A1
:105A5000E8108091740490917504A0917604B0913F
:105A600077040097A105B105E1F02D813E814F81BA
:105A70005885281B390B4A0B5B0BDA01C901B7FDAE
:105A800010C069857A858B859C850E94AEE5209142
:105A9000720430917304621773070CF4BCC00E9447
:105AA000131C20E030E046E153E46091030670915E
:105AB000040680910506909106060E9490E618164D
:105AC00014F48FEF7DDD8091930390919403A09166
:105AD0009503B09196030097A105B10501F12D81C1
