:100000000C945E180C949E180C949E180C949E18D8
:100010000C949E180C949E180C949E180C949E1888
:100020000C949E180C949E180C949E180C949E1878
:100030000C949E180C949E180C949E180C949E1868
:100040000C949E180C94959E0C949E180C949E18DB
:100050000C949E180C94729A0C949E180C94E6F3CF
:100060000C949E180C94A3510C9499510C949E18C6
:100070000C949E180C949E180C949E180C949E1828
:100080000C941A490C949E180C949E180C949E186B
:100090000C949E180C949E180C949E180C949E1808
:1000A0000C949E180C949E180C94EC480C949E187A
:1000B0000C949E180C949E180C949E180C949E18E8
:1000C0000C949E180C949E180C949E180C949E18D8
:1000D0000C949E180C949E180C949E180C949E18C8
:1000E0000C949E18084AD73B3BCE016E84BCBFFDE2
:1000F000C12F3D6C74319ABD56833DDA3D00C77FF8
:1001000011BED9E4BB4C3E916BAAAABE0000008090
:100110003F05A84CCDB2D44EB93836A9020C50B91F
:10012000918688083CA6AAAA2ABE000000803F004B
:100130000D9407030D94A50C4E414E494E49545958
:10014000494E46CDCCCC3D0AD7233C17B7D13877A2
:10015000CC2B329595E6241FB14F0A0000204100B8
:1001600000C84200401C4620BCBE4CCA1B0E5AAE02
:10017000C59D7400407A10F35A00A0724E18090011
:1001800010A5D4E80000E87648170000E40B5402FC
:100190000000CA9A3B000000E1F505000080969837
:1001A00000000040420F000000A086010000001087
:1001B0002700000000E803000000006400000000C9
:1001C000000A00000000000100000000002C76D8AA
:1001D00088DC674F0823DFC1DFAE59E1B1B796E590
:1001E000E3E453C63AE651997696E8E6C28426EBF4
:1001F000898C9B62ED407C6FFCEFBC9C9F40F2BA07
:10020000A56FA5F490055A2AF75C936B6CF9676D9E
:10021000C11BFCE0E40D47FEF520E6B500D0ED90F3
:100220002E0300943577050080841E080000204EC0
:100230000A000000C80C333333330F986E12831159
:1002400041EF8D2114893BE65516CFFEE6DB18D130
:10025000844B381BF77C1D901DA4BBE42420328402
:10026000725E228100C9F124ECA1E53D27434F4D88
:100270004D554E49434154494F4E004452595255F1
:100280004E004552524F525300494E464F0045438F
:10029000484F0053544F505045442E20005072692F
:1002A0006E7465722073746F707065642064756518
:1002B00020746F206572726F72732E2046697820E9
:1002C000746865206572726F7220616E6420757348
:1002D00065204D39393920746F20726573746172ED
:1002E000742E202854656D70657261747572652076
:1002F00069732072657365742E2053657420697468
:100300002061667465722072657374617274696EBF
:1003100067290A004E6F20436865636B73756D2013
:1003200077697468206C696E65206E756D626572A0
:100330002C204C617374204C696E653A20004E6F1E
:1003400020436865636B73756D2077697468206CF2
:10035000696E65206E756D6265722C204C617374D8
:10036000204C696E653A2000636865636B73756D38
:10037000206D69736D617463682C204C6173742007
:100380004C696E653A20004C696E65204E756D6251
:100390006572206973206E6F74204C617374204CF9
:1003A000696E65204E756D6265722B312C204C6133
:1003B0007374204C696E653A20004D313130005322
:1003C000657269616C20737461747573206D6973F3
:1003D0006D617463680A005344207265616420652E
:1003E00072726F720A00746F6F206D756368206996
:1003F0006E6163746976652074696D65202D206374
:10040000757272656E7420636F6D6D616E643A20F3
:10041000002121204B494C4C206361757365642099
:1004200062792000627573793A2070617573656432
:1004300020666F7220696E7075740A006275737938
:100440003A2070617573656420666F7220757365FC
:10045000720A00627573793A2070726F6365737304
:10046000696E670A004D656469612052656D6F763B
:100470006564004D6564696120496E7365727465D9
:100480006400506C6561736520526573657400503B
:1004900052494E5445522048414C5445440025533E
:1004A0003A20255300706F7765726F6666004B497E
:1004B0004C4C45442E20005072696E746572206861
:1004C000616C7465642E206B696C6C2829206361F3
:1004D0006C6C6564210A006563686F3A004572724E
:1004E0006F723A004F4646004F4E0042696C696E8B
:1004F000656172204C6576656C696E67204772692C
:10050000643A0A004F46460A004661646520486521
:10051000696768742000426564204C6576656C6983
:100520006E6720004661696C656420746F20656E9B
:1005300061626C6520426564204C6576656C696E0D
:10054000670A00496E76616C6964206D6573682E78
:100550000A0050726F62696E6720506F696E740096
:1005600025532025692F2569002E0A002F0050727F
:100570006F62696E67206D65736820706F696E7455
:100580002000202844525952554E29004732392024
:100590004175746F20426564204C6576656C696EA8
:1005A00067003F20284C2C522C462C4229206F7586
:1005B00074206F6620626F756E64732E0A003F2888
:1005C00056296572626F7365206C6576656C20696B
:1005D0006D706C61757369626C652028302D3429EB
:1005E0002E0A00426164205A2076616C75650A000B
:1005F0004E6F2062696C696E656172206772696412
:100600000A004163637572616379204465637265B2
:100610006173696E67210044656372656173696E19
:100620006720416363757261637920446574656313
:100630007465642E0A004732385A0041636375724C
:100640006163793A2000206F6620004469642000CD
:100650004733342061626F727465642E0A0041630F
:1006600063757261637920416368696576656400CA
:100670005461726765742061636375726163792088
:1006800061636869657665642E0A00313A323D25FA
:1006900073000A5A322D5A313D0050726F62696EF2
:1006A00067204661696C65640050726F62696E67AD
:1006B000206661696C65640A0047333420497465BB
:1006C000726174696F6E3A202569000A47333420DD
:1006D000497465726174696F6E3A20003F28412940
:1006E0006D706C696669636174696F6E206F757493
:1006F000206F6620626F756E64732028302E352D52
:10070000322E30292E0A003F285429617267657401
:10071000206163637572616379206F7574206F6601
:1007200020626F756E64732028302E30312D312E8B
:1007300030292E0A003F2849297465726174696F57
:100740006E206F7574206F6620626F756E64732003
:1007500028312D3330292E0A0020204D343232200A
:1007600053005A204175746F2D416C69676E0020EB
:10077000440020204D32303020530020284469733B
:1007800061626C6564293A0046696C616D656E74DE
:100790002073657474696E67730020204D323031A8
:1007A0002058004D617820416363656C6572617407
:1007B000696F6E2028756E6974732F73322900205B
:1007C000204D3230332058004D61782066656564D5
:1007D00072617465732028756E6974732F732900B4
:1007E00020520020204D3230342050004163636598
:1007F0006C65726174696F6E2028756E6974732FF1
:100800007332292028503C7072696E742D616363C5
:10081000656C3E20523C726574726163742D616335
:1008200063656C3E20543C74726176656C2D616327
:1008300063656C3E2900204A0020540020530020AC
:10084000204D323035204200416476616E6365642C
:100850002028423C6D696E5F7365676D656E745FDD
:1008600074696D655F75733E20533C6D696E5F669C
:10087000656564726174653E20543C6D696E5F7499
:10088000726176656C5F66656564726174653E2051
:100890004A3C6A756E635F6465763E2900204400B9
:1008A00020490020204D333031205000486F7465BE
:1008B0006E64205049440020440020490020204D0F
:1008C00033303420500042656420504944003B20BE
:1008D0000020496E76616C69642065787472756475
:1008E00065722000536C6565702E2E2E005A2050C4
:1008F000726F62652050617374204265640A005A09
:100900002050726F626520506173742042656400EC
:100910004732384C3000205A3A200020593A200003
:1009200042656420583A20004D65736820706F69F5
:100930006E74206F7574206F662072616E67650A31
:1009400000436C69636B20746F20526573756D652D
:100950002E2E2E004E6F204D6F76652E00456E6454
:100960002066696C65206C6973740A00426567696A
:100970006E2066696C65206C6973740A004E6F2086
:100980006D656469610A00706175736500286E6F3A
:100990002066696C65290043757272656E74206605
:1009A000696C653A20004E6F742053442070726960
:1009B0006E74696E670A005344207072696E7469C0
:1009C0006E67206279746520002E0A0044656C65AC
:1009D00074696F6E206661696C65642C2046696C71
:1009E000653A200046696C652064656C65746564D1
:1009F0003A002569730025696D2025697300256912
:100A0000682025696D2025697300256964202569A2
:100A1000682025696D20256973002569792025697D
:100A200064202569682025696D202569730050724E
:100A3000696E742074696D653A20006F6B006F6693
:100A400066008E02890282027B026D024445425595
:100A5000473A004D3131322053687574646F776EB8
:100A6000004D3131332053004672616E6B656E6804
:100A7000616F206933204F46462E00434F4E464952
:100A8000475F4558504F5254004D454154504143E3
:100A90004B00434F4F4C45525F54454D50455241DA
:100AA00054555245004348414D4245525F54454DCF
:100AB00050455241545552450042414259535445C4
:100AC0005050494E470041524353004D4F54494FF7
:100AD0004E5F4D4F44455300544845524D414C5F85
:100AE00050524F54454354494F4E00455854454E7B
:100AF0004445445F4D323000435553544F4D5F469B
:100B000049524D574152455F55504C4F4144004C5E
:100B1000464E5F5752495445004C4F4E475F464939
:100B20004C454E414D45004155544F5245504F5252
:100B3000545F53445F5354415455530053445F57DB
:100B40005249544500524550454154004D554C546E
:100B5000495F564F4C554D45005344434152440064
:100B600050524F4D50545F535550504F52540048BF
:100B70004F53545F414354494F4E5F434F4D4D4196
:100B80004E445300454D455247454E43595F5041F1
:100B90005253455200434153455F4C494748545FC7
:100BA0004252494748544E45535300544F47474CCF
:100BB000455F4C494748545300534F4654574152A0
:100BC000455F504F574552004255494C445F504590
:100BD0005243454E54004C4556454C494E475F44A0
:100BE000415441005A5F50524F42450052554E4FBA
:100BF0005554004155544F4C4556454C00505249B0
:100C00004E545F4A4F420050524F47524553530093
:100C10004155544F5245504F52545F54454D50002A
:100C20004155544F5245504F52545F504F53005608
:100C30004F4C554D455452494300454550524F4D38
:100C40000042494E4152595F46494C455F5452411A
:100C50004E534645520053455249414C5F584F4E02
:100C60005F584F4646004649524D574152455F4EE8
:100C7000414D453A4D61726C696E206275676669D7
:100C8000782D322E312E7820284665622032382089
:100C9000323032332031373A34333A303729205327
:100CA0004F555243455F434F44455F55524C3A6759
:100CB00069746875622E636F6D2F4D61726C696E19
:100CC0004669726D776172652F4D61726C696E2035
:100CD00050524F544F434F4C5F56455253494F4E1D
:100CE0003A312E30204D414348494E455F545950CA
:100CF000453A4672616E6B656E68616F206933209C
:100D000045585452554445525F434F554E543A311D
:100D100020555549443A63656465326132662D3425
:100D20003161322D343734382D396231322D63350B
:100D300035633632663336376666002F2F004D3105
:100D4000343520533C696E6465783E206F7574209D
:100D50006F662072616E67652028302D31290A0088
:100D60003F4A206F7574206F662072616E67652040
:100D700028302E303120746F20302E33290A002085
:100D8000580020204D61783A2000200020204D6935
:100D90006E3A2000203B200020204D32313120537C
:100DA00000536F667420656E6473746F70730025F2
:100DB0000A0046523A0020466C6F773A20003A20EB
:100DC0000020536572766F2000206F7574206F6667
:100DD0002072616E67650A00536572766F20006449
:100DE000697300656E0043290A0061626C656420C6
:100DF000286D696E2074656D702000436F6C6420EF
:100E000065787472756465732061726520004D3475
:100E1000323120696E636F72726563742070617223
:100E2000616D657465722075736167650A004D6553
:100E3000736820706F696E74206F7574206F662000
:100E400072616E67650A004F666673657473204150
:100E500070706C696564004572723A20546F6F203F
:100E60006661722100546F6F206661722066726F36
:100E70006D207265666572656E636520706F696E60
:100E8000740A00454550524F4D204F4B0A00290A25
:100E90000020746F20003F5A206F7574206F662009
:100EA00072616E6765202800290A0020746F200097
:100EB0003F59206F7574206F662072616E676520E0
:100EC000282D00290A0020746F20003F58206F75DC
:100ED00074206F662072616E676520282D003F28A0
:100EE0005929206F7574206F6620626F756E647368
:100EF0002E0A003F285829206F7574206F662062E3
:100F00006F756E64732E0A0020696E6465782069BF
:100F10006E76616C69642028312E2E32292E0A00EB
:100F20003F2853292050726F62652D706F7369746A
:100F3000696F6E003F2853292069732072657175AF
:100F4000697265642E0A004D383400446F6E652066
:100F50007072696E74696E672066696C650A004D0F
:100F60003737004D333100496E76616C6964206516
:100F7000787472756465720A0020204D3230362014
:100F80005800486F6D65206F666673657400436135
:100F9000703A0047322F47332062616420706172DB
:100FA000616D65746572730A00203B0020204D3826
:100FB00035312058005A2D50726F6265204F666699
:100FC0007365740020573A00436F6F6C696E672E2B
:100FD0002E2E0045312025530020573A00426564EB
:100FE00020436F6F6C696E672E2E2E004265642061
:100FF00048656174696E672E2E2E002364656669EC
:101000006E652044454641554C545F00006265645E
:10101000004B6420004B6920004B70200020666963
:101020006E6973686564212050757420746865204A
:101030006C617374204B702C204B6920616E6420AE
:101040004B6420636F6E7374616E74732066726F8D
:101050006D2062656C6F7720696E746F20436F6ED0
:1010600066696775726174696F6E2E680A0050490F
:1010700044204175746F74756E6500206661696CFB
:101080006564212074696D656F75740A0050494468
:10109000204175746F74756E6500206661696C65BA
:1010A00064212054656D7065726174757265207479
:1010B0006F6F20686967680A005049442041757461
:1010C0006F74756E6500504944204379636C657395
:1010D0000025532025692F256900204B643A200004
:1010E000204B693A2000204B703A200020436C616D
:1010F0007373696320504944200A00204E6F206FAB
:1011000076657273686F6F740A002054753A200018
:10111000204B753A2000206D61783A2000206D69DF
:101120006E3A200020643A200020626961733A2000
:101130000048656174696E672E2E2E0020737461FD
:1011400072740A00504944204175746F74756E655D
:1011500000206661696C6564212054656D7065725C
:10116000617475726520746F6F20686967680A0022
:10117000504944204175746F74756E650050494440
:10118000204175746F74756E6500206661696C65C9
:10119000642120426164206865617465722069641D
:1011A0000A00504944204175746F74756E6500459E
:1011B00072723A207574663820666F6E74206E6F96
:1011C0007420696E697469616C697A65642E004582
:1011D00072723A207574663820666F6E74206E6F76
:1011E0007420696E697469616C697A65642E004562
:1011F00072723A207574663820666F6E74206E6F56
:101200007420696E697469616C697A65642E002066
:10121000003A003A002568753A2530326875002595
:10122000303268753A25303268750025303268757D
:1012300027253032687500256875642025303268AE
:10124000753A25303268750042656400456E636CFE
:101250006F73757265004500200025002020202056
:10126000202020002020202000657272001FE02036
:1012700010201020101020102020102010303008D6
:1012800040048003001FE03FF03FF03FF01FE01FED
:10129000E03FF03FF03FF00FC0078003003FFFF05A
:1012A00038007030FC3020FC102078102030102CDA
:1012B00000D02E31D02F7BD02F7BD02E31D02C00E0
:1012C000D020301020781020FC1030FC3038007016
:1012D0003FFFF03FFFF03800703186302387102742
:1012E00087902F87D02F03D02030102078102078BF
:1012F000102030102F03D02F87D0278790238710FE
:101300003186303800703FFFF01FFFF81FFFF804F0
:1013100010400208200208200410400820801041DC
:10132000001041000820800410400000001FFFF85A
:101330001FFFF863616E63656C005072696E742004
:1013400041626F72746564004D323500506175738F
:10135000696E672E2E2E00726573756D65004D32B5
:101360003400454550524F4D2056657273696F6E7B
:10137000204572726F7200454550524F4D20496EA4
:10138000646578204572726F7200454550524F4D2A
:1013900020435243204572726F72003F0049676ECE
:1013A0006F726500526573657400496E6974696196
:1013B0006C697A6520454550524F4D0046696C2E48
:1013C000204469612E004F6666004F6E004520691B
:1013D0006E206D6D5E33002008204661637400202E
:1013E00008204D6178002008204D696E004D696E1F
:1013F0002054726176656C205370656564004D6998
:101400006E2056656C6F63697479004D6178204079
:10141000205370656564004D617820452041636309
:10142000656C004D6178204020416363656C005419
:10143000726176656C20416363656C0052657472FD
:1014400061637420416363656C00416363656C0094
:1014500050726F6265205A204F6666736574005043
:10146000726F62652059204F666673657400507212
:101470006F62652058204F66667365740040207364
:10148000746570732F6D6D00416476616E63656481
:101490002053657474696E6773003F0043616E6327
:1014A000656C00496E6974004D34323800496E69CC
:1014B0007469616C697A6520454550524F4D00460C
:1014C000696C616D656E740054656D7065726174F0
:1014D0007572650053746570732F6D6D0050726F77
:1014E0006265204F666673657473004A756E637437
:1014F000696F6E2044657600416363656C65726157
:1015000074696F6E004D61782053706565642028A2
:101510006D6D2F73290053657420486F6D65204FE2
:1015200066667365747300436F6E66696775726192
:1015300074696F6E00000C0F00FE07022503BB01EB
:101540007FFE08FE08FE05080806000040F0C88877
:1015500088987810050808060000C0F888888888F0
:1015600088F80505050600012030F8302005080838
:101570000600002070F820202020E0050909060060
:10158000FF2070A8A8B8888870200705050700010B
:10159000D86C366CD80509090600FFF8A888888839
:1015A0008888A8F8050A0A0600FE20505050508886
:1015B000A8A8887003030306000340A040FFFFFFB4
:1015C000FFFFFFFFFFFFFFFFFFFFFFFFFFFFFFFF2B
:1015D000FFFFFF0000000605FF010707060200806D
:1015E000808080800080030303060105A0A0A00581
:1015F000060606000050F85050F85005090906008C
:10160000FF2070A8A07028A870200507070600001A
:10161000C8C8102040989805070706000040A0A001
:1016200040A8906801030306020580808003090931
:101630000601FF20404080808040402003090906C9
:1016400001FF804040202020404080050707060021
:101650000020A8702070A8200505050600012020A4
:10166000F820200203030601FFC0408005010106A7
:101670000003F8020202060100C0C00507070600C9
:101680000008101020404080050707060000708801
:1016900098A8C8887003070706010040C040404072
:1016A00040E0050707060000708808102040F80594
:1016B0000707060000F808103008887005070706BD
:1016C000000010305090F81010050707060000F8D1
:1016D00080F008088870050707060000304080F099
:1016E000888870050707060000F8081010202020E1
:1016F000050707060000708888708888700507074E
:101700000600007088887808106002050506010050
:10171000C0C000C0C00206060601FFC0C000C04035
:1017200080030505060101204080402005030306D3
:101730000002F800F8030505060101804020408002
:101740000507070600007088102020002005070705
:101750000600007088B8A8B880700507070600006A
:10176000708888F8888888050707060000F04848D0
:10177000704848F005070706000070888080808860
:1017800070050707060000F04848484848F005077C
:1017900007060000F88080F08080F8050707060043
:1017A00000F88080F08080800507070600007088C0
:1017B0008080988870050707060000888888F88868
:1017C0008888030707060100E04040404040E005EC
:1017D0000707060000381010101090600507070674
:1017E00000008890A0C0A090880507070600008030
:1017F0008080808080F805070706000088D8A888C8
:101800008888880507070600008888C8A8988888FF
:101810000507070600007088888888887005070714
:10182000060000F08888F080808005070706000029
:1018300070888888A89068050707060000F08888E7
:10184000F0A090880507070600007088807008885F
:1018500070050707060000F820202020202005073B
:1018600007060000888888888888700507070600B2
:10187000008888888850502005070706000088885F
:101880008888A8A8500507070600008888502050BF
:10189000888805070706000088885020202020053A
:1018A0000707060000F80810204080F80309090621
:1018B00001FFE080808080808080E00507070600CF
:1018C00000804040201010080309090601FFE020B5
:1018D000202020202020E00503030600052050885A
:1018E0000501010600FEF803030306010580402000
:1018F00005050506000070087888780507070600CA
:10190000008080F0888888F005050506000070805A
:10191000808870050707060000080878888888789E
:101920000505050600007088F080700507070600B1
:1019300000304840E04040400507070600FE708840
:1019400088887808700507070600008080F088887E
:1019500088880307070601004000C0404040E004BB
:1019600009090601FE1000301010101090600507E4
:101970000706000080808890E09088030707060132
:1019800000C04040404040E0050505060000D0A8EA
:10199000A8A8A8050505060000B0C8888888050520
:1019A0000506000070888888700507070600FEF0AD
:1019B000888888F080800507070600FE7888888878
:1019C000780808050505060000B0C8808080050578
:1019D0000506000078807008F00507070600002063
:1019E00020F8202020180505050600008888889822
:1019F000680505050600008888885020050505064D
:101A000000008888A8A85005050506000088502019
:101A100050880507070600FE88888850204080050A
:101A20000505060000F8102040F80309090601FF2B
:101A30002040404080404040200109090602FF80CC
:101A400080808080808080800309090601FF8040BB
:101A50004040204040408005030306000248A89013
:101A6000FF41425300504C410053746F7265205344
:101A7000657474696E6773004C6F6164205365749C
:101A800074696E67730050726F6265205A204F66EA
:101A900066736574004661646520486569676874AB
:101AA000004F6666004F6E00426564204C657665A7
:101AB0006C696E67004C6576656C20426564004712
:101AC00032394E00473239004175746F20486F6DCE
:101AD00065004D6F74696F6E0053572D4D6F6465CF
:101AE0000053746F77004465706C6F790053656CB8
:101AF000662D5465737400526573657400426564A5
:101B0000004E6F7A7A6C650046616E205370656591
:101B10006400436F6E66696775726174696F6E0009
:101B2000526573746F72652044656661756C747379
:101B3000004C6F61642053657474696E6773005361
:101B4000746F72652053657474696E6773005072A8
:101B50006568656174202420436F6E6600424C54B2
:101B60006F7563680050726F6265205A204F666619
:101B700073657400416476616E63656420536574B7
:101B800074696E6773004D61696E003F0042616366
:101B90006B0053746F70004E6F204D656469610077
:101BA0005072696E742066726F6D204D6564696154
:101BB000004368616E6765204D65646961004D3260
:101BC0003100436F6E66696775726174696F6E008C
:101BD00054656D7065726174757265004D6F7469DE
:101BE0006F6E00526573756D65205072696E74007A
:101BF00054756E650053746F70205072696E740076
:101C00005061757365205072696E7400496E666F1D
:101C10002053637265656E003F00537461727420D7
:101C20005072696E740043616E63656C0050726936
:101C30006E740043616E6E6F7420656E7465722001
:101C40007375626469723A200002202E2E004D6185
:101C5000696E002100486F74656E6420746F6F2098
:101C6000636F6C64004261636B0050726F63656503
:101C700064004D6F766520457874727564657200F6
:101C80004D6F74696F6E0044697361626C652053B7
:101C900074657070657273004D383400426564205D
:101CA0004C6576656C696E670053746F77205A2DAA
:101CB00050726F6265004D343032004465706C6F55
:101CC00079205A2D50726F6265004D3430310041D9
:101CD00075746F205A2D416C69676E00473334006C
:101CE0004175746F20486F6D6500473238004D6153
:101CF000696E0050726568656174202420426564D5
:101D00000050726568656174202420456E6400543B
:101D1000656D706572617475726500651A611A434C
:101D20006F6F6C646F776E005072656865617420C8
:101D3000240046616E20537065656400426564004E
:101D40004E6F7A7A6C65004D61696E00466C6F77F4
:101D50000046616E20537065656400426564004E04
:101D60006F7A7A6C65005370656564004D61696EC9
:101D7000006F70656E005452494747455245440014
:101D80003A20007A5F6D696E00795F6D696E007848
:101D90005F6D696E005265706F7274696E67206561
:101DA0006E6473746F70207374617475730A0020AD
:101DB000746F6F206C6F6E672065787472757369CD
:101DC0006F6E2070726576656E7465640A002063BC
:101DD0006F6C6420657874727573696F6E207072B1
:101DE0006576656E7465640A00486F6D65202573BD
:101DF00020466972737400000000000000000000BB
:101E00000000005761726E696E673A20486F6D6915
:101E10006E672042756D702044697669736F722019
:101E20003C20310A0002020400003E4300003E4311
:101E3000000016430000A0400000A0400000004049
:101E400053544F505045442E20005072696E7465B3
:101E5000722073746F707065642064756520746F90
:101E6000206572726F72732E2046697820746865DF
:101E7000206572726F7220616E6420757365204DEB
:101E800039393920746F20726573746172742E2031
:101E90002854656D70657261747572652069732070
:101EA00072657365742E20536574206974206166B1
:101EB0007465722072657374617274696E67290A41
:101EC00000206572726F72202D20726573746172CA
:101ED000742077697468204D3939390A00424C54AE
:101EE0006F7563680021212053544F502063616C4B
:101EF0006C65642062656361757365206F662000A0
:101F000000003E4300003E43000016430000000076
:101F1000000000000000000053657474696E677370
:101F20002053746F72656400290A00206279746519
:101F3000733B20637263200053657474696E67732A
:101F40002053746F72656420280048617264636F67
:101F50006465642044656661756C742053657474AF
:101F6000696E6773204C6F616465640020286D6D35
:101F70002900203B204C6576656C696E6720002047
:101F8000204D3432302053004175746F2042656417
:101F9000204C6576656C696E670020460020420023
:101FA00020480020204D3134352053004D617465A8
:101FB0007269616C2068656174757020706172610E
:101FC0006D657465727300204A0020204732392005
:101FD0005720490020204D3134392043203B2055E3
:101FE0006E69747320696E2043656C736975730A3A
:101FF0000054656D706572617475726520556E6907
:102000007473002020473231203B004C696E6561BB
:102010007220556E69747300454550524F4D2064CF
:1020200061746173697A65206572726F722E0A003D
:10203000290A002062797465733B20637263200073
:102040002073746F7265642073657474696E67734E
:1020500020726574726965766564202800202863A3
:10206000616C63756C6174656429210A0020213DEF
:102070002000454550524F4D20435243206D697317
:102080006D61746368202D202873746F72656429F4
:1020900020002053697A653A2000496E6465783AD9
:1020A000200000002F4400002F440000C8420040E0
:1020B0001C460000A0420000A0420000C8430000EF
:1020C000C042B80B0000B80B0000640000001027ED
:1020D0000000204D61726C696E3D563837290A0048
:1020E000454550524F4D2076657273696F6E206D75
:1020F00069736D617463682028454550524F4D3DAA
:102100000020436F756E7420583A004265640045A4
:1021100031004500626564002C2073797374656D2D
:102120002073746F707065642120486561746572F6
:102130005F49443A20004572723A204D4158544557
:102140004D50004D415854454D5020747269676799
:10215000657265640048656174696E6720466169EF
:102160006C65640048656174696E67206661696CBE
:102170006564004572723A204D494E54454D5000F9
:102180004D494E54454D50207472696767657265BC
:102190006400544845524D414C2052554E415741E0
:1021A0005900546865726D616C2052756E6177617B
:1021B0007900202F002042403A0020403A007C3C29
:1021C0003E5E2B3D3F2F5B5D3B2C2A225C004D6524
:1021D00064696120496E6974204661696C005344EA
:1021E0002063617264206F6B0A006F70656E526FBE
:1021F0006F74206661696C65640A00766F6C756D3A
:10220000652E696E6974206661696C65640A004EAA
:102210006F20534420636172640A00534420636159
:1022200072642072656C65617365640A000A4D32E0
:1022300034004D3233202573002E0A006F70656E16
:10224000206661696C65642C2046696C653A2000E3
:1022500046696C652073656C65637465640A00206B
:1022600053697A653A200046696C65206F70656E27
:1022700065643A2000454E4420535542524F555410
:10228000494E450A002220706F730022207061724F
:10229000656E743A2200535542524F5554494E458B
:1022A0002043414C4C207461726765743A2200539C
:1022B000756263616C6C204F766572666C6F770037
:1022C0004578636565646564206D61782053554287
:1022D000524F5554494E452064657074683A005712
:1022E000726974696E6720746F2066696C653A2044
:1022F00000667265736800646F696E6700206669C6
:102300006C653A20004E6F7720002F6175746F2541
:10231000632E67006D61726C696E66772E6F7267EF
:10232000006275676669782D322E312E78001FFFA6
:10233000FFFFFFFFFF600000000001FF4000000002
:102340000000FF8000000000007F83CF00000C3001
:102350003F87FF80000C301F867980000C000F8CB7
:1023600030C7838C30E78C30CFC7CC31F38C30DC76
:10237000ECEC33B98C30D86C6C33198C30D06C0CDD
:1023800033198C30D86C0C33198C30DC6C0E3B1943
:102390008C30CF7C079F198C30C77C038F1940008D
:1023A0000000000002600000000000061FFFFFFFA9
:1023B000FFFFF85C005E016800540176004A018569
:1023C00000400198003601AD002C01C7002201E554
:1023D0000018010A010E01350104016A01FA00A981
:1023E00001F000F701E6005602DC00CA02D2005AF2
:1023F00003C8000C04BE00EA04B400FF05AA00589C
:1024000007A000060996001C0B8C00AE0D8200CDC3
:1024100010780085146E00D7186400AE1D5A00E0D5
:102420002250002C284600442D3C00DE313200C8EA
:10243000352800E8381E00453B1400F73C0A002010
:102440003E00002020506C616E6E657242756666BB
:10245000657242797465733A200020467265652082
:102460004D656D6F72793A200020436F6D70696C15
:1024700065643A2046656220323820323032330AB1
:1024800000204C61737420557064617465643A2057
:10249000323032332D30322D3234207C204175746D
:1024A000686F723A202862792043726F737366698D
:1024B0007265290A004D61726C696E2062756766EB
:1024C00069782D322E312E780A0020536F6674778A
:1024D0006172652052657365740A002057617463E8
:1024E00068646F672052657365740A002042726FDA
:1024F000776E206F75742052657365740A002045ED
:10250000787465726E616C2052657365740A005050
:102510006F77657255700A0073746172740A0047B0
:1025200032385859004D31303031006F6B006572D0
:10253000726F722077726974696E6720746F20669B
:10254000696C650A00446F6E6520736176696E6719
:102550002066696C652E0A004D323900456E647341
:10256000746F707300255320256320256320256335
:1025700020256300205A3A0020593A0020583A009A
:10258000656E6473746F7073206869743A2000001C
:10259000000A0B02090C0D0E0807030401000000DD
:1025A000000000000000000000000000000000002B
:1025B00000000000000000000000001211100000E8
:1025C000000000000000000000000000000000000B
:1025D000000000000024F404D9201BC40C5C0E98F9
:1025E00004C4095F0265077101F405F900FB04B337
:1025F0000048048700C103690058035500030345E0
:1026000000BE023A008402310053022A002902254A
:102610000004022000E4011C00C8011900AF0117EA
:102620000098011400840113007101100061011071
:102630000051010E0043010D0036010B002B010B70
:102640000020010B00150109000C0109000301081D
:1026500000FB000800F3000800EB000700E40006A0
:1026600000DE000600D8000600D2000600CC0005FF
:1026700000C7000500C2000500BD000400B9000449
:1026800000B5000400B1000400AD000400A900047E
:1026900000A5000300A20003009F0004009B0003AC
:1026A00000980003009500020093000300900003CF
:1026B000008D0002008B00030088000200860002EB
:1026C0000084000300810002007F0002007D000200
:1026D000007B000200790002007700010076000212
:1026E000007400020072000100710002006F00021D
:1026F000006D0001006C0002006A00010069000228
:10270000006700010066000100650001006400022E
:10271000006200010061000100600001005F000232
:10272000005D0001005C0001005B0001005A000137
:102730000059000100580001005700010056000137
:102740000055000100540001005300000053000137
:10275000005200010051000100500001004F000133
:10276000004E0000004E0001004D0001004C000131
:10277000004B0000004B0001004A0001004900012D
:10278000004800000048000100470001004600002A
:102790000046000100450000004500010044000122
:1027A000004300000043000100420000004200011D
:1027B000004100000041000100400001003F000016
:1027C000003F0001003E0000003E0001003D00000F
:1027D000003D0001003C0000003C0000003C000106
:1027E000003B0000003B0001003A0000003A0001FD
:1027F00000390000003900010038000000380000F6
:1028000000380001003700000037000100360000EA
:1028100000360000003600010035000000350000E1
:1028200000350001003400000034000000340001D5
:1028300000330000003300000033000100320000CC
:1028400000320000003200010031000000310000C1
:1028500000310001003000000030000000300001B5
:10286000002F0000002F0000002F0000002F0001AB
:10287000002E0000002E0000002E0001002D0000A0
:10288000002D0000002D0000002D0001002C000094
:10289000002C0000002C0000002C0001002B000088
:1028A000002B0000002B0000002B0001002A00007C
:1028B000002A0000002A0000002A00010029000070
:1028C0000029000000290000002900000029000163
:1028D0000028000000280000002800000028000058
:1028E000002800010027000000270000002700004A
:1028F000002700000027000100260000002600003D
:10290000002600000026000000260001002500002F
:102910000025000000250000002500000025000023
:102920000025000100240000002400000024000015
:102930000024000000240001002300000023000008
:1029400000230000002300000023000000230000FB
:1029500000230001002200000022000000220000ED
:1029600000220000002200000022000100210000DF
:1029700000210000002100000021000000210000D3
:1029800000210000002100010020000000200000C4
:1029900000200000002000000020000000200000B7
:1029A0000020000000200001001F0000001F0000A8
:1029B000001F0000001F0000001F0000001F00009B
:1029C000001F0001001E0000001E0000001E00008D
:1029D000001E00000024F4D43050C38E20C2A24058
:1029E00017828B7011127A910D816CD90AA861E15E
:1029F00008C7586607615143061E4B5D05C145A7D0
:102A0000041A411104093D9803713931034036DB42
:102A10000265339102D4305402802E1D02632CEEE5
:102A200001752AC501B028A001102781018F2564F6
:102A3000012B244B01E0223401AC211F018D200D1C
:102A400001801FFC00841EED00971DDF00B81CD222
:102A500000E61BC600201BBC00641AB200B219A815
:102A6000000A19A0006A189900D117910040178B2D
:102A700000B516840031167E00B31579003A15733F
:102A800000C7146F0058146A00EE136600881363C1
:102A90000025135E00C7125B006C1257001512541C
:102AA00000C111510070114F0021114B00D6104987
:102AB000008D1047004610440002104200C00F4035
:102AC00000800F3E00420F3C00060F3B00CB0E384B
:102AD00000930E37005C0E3500270E3400F30D32E4
:102AE00000C10D3100900D3000600D2E00320D2D13
:102AF00000050D2C00D90C2B00AE0C2900850C29EB
:102B0000005C0C2700350C27000E0C2600E80B2477
:102B100000C40B2400A00B23007D0B23005A0B21C3
:102B200000390B2100180B2000F80A1F00D90A1EDB
:102B300000BB0A1E009D0A1D00800A1D00630A1CBE
:102B400000470A1B002C0A1B00110A1A00F7091A79
:102B500000DD091900C4091900AB09190092091711
:102B6000007B091800630917004C09160036091686
:102B700000200916000A091500F5081500E00814E0
:102B800000CC081400B8081400A40814009008131E
:102B9000007D0812006B0813005808120046081246
:102BA0000034081100230811001208110001081157
:102BB00000F0071000E0071000D0071000C0071059
:102BC00000B0070F00A107100091070E0083070F48
:102BD0000074070F0065070E0057070E0049070E27
:102BE000003B070D002E070E0020070D0013070DF8
:102BF0000006070D00F9060C00ED060D00E0060CBE
:102C000000D4060C00C8060C00BC060C00B0060C74
:102C100000A4060B0099060C008D060B0082060B23
:102C20000077060B006C060B0061060A0057060BC6
:102C3000004C060A0042060A0038060A002E060A60
:102C40000024060A001A060A001006090007060AF0
:102C500000FD050900F4050900EB050900E205097E
:102C600000D9050900D0050900C7050900BE0509FE
:102C700000B5050800AD050800A50509009C05087C
:102C800000940508008C050800840508007C0508F0
:102C900000740508006C050700650508005D050760
:102CA00000560508004E05070047050700400508C7
:102CB0000038050700310507002A0507002305072E
:102CC000001C050600160507000F0507000805068D
:102CD0000002050700FB040600F5040700EE0406E9
:102CE00000E8040600E2040700DB040600D5040641
:102CF00000CF040600C9040600C3040600BD040694
:102D000000B7040600B1040500AC040600A60406E2
:102D100000A00405009B040600950405009004062D
:102D2000008A04050085040500800406007A040575
:102D30000075040500700405006B040500660405B9
:102D400000610405005C04050057040500520405F9
:102D5000004D04050048040500430405003E04043A
:102D6000003A04050035040500300404002C040575
:102D70000027040400230405001E0404001A0404B0
:102D80000016040500110404000D040400090405E4
:102D9000000404040000040400FC030400F803041D
:102DA00000F4030400F0030400EC030400E803044F
:102DB00000E4030400E0030400DC030400D803047F
:102DC00000D4030400D0030400CC030400C80303B0
:102DD00000C50303005D2E0000891D00001D1100C9
:102DE000004C090000DB0400007C020000410100EF
:102DF00000A10000004D6F766520246D6D00302E1F
:102E0000303235004D6F766520302E316D6D004DBE
:102E10006F766520316D6D004D6F76652031306DB8
:102E20006D004D6F76652041786973004D6F766552
:102E3000202A004D6F7665204000200020002000F1
:102E400020002000486F6D696E67204661696C65DF
:102E50006400FFFFFF50726F62696E672046616910
:102E60006C65640A0050726F62696E672046616922
:102E70006C656400205A3A200020593A20004265CF
:102E80006420583A200043616E6E6F74206F706545
:102E90006E207375626469722000220A00556E6BA1
:102EA0006E6F776E20636F6D6D616E643A202200E5
:102EB000204500205A0020590020204D393220584A
:102EC0000053746570732070657220756E697400AC
:102ED000DB0FC93F45BCDA3F8FB30240FCF027400F
:102EE00056946140FE4B9B4084A5D840E023184196
:102EF000346A5641E859974164DBD5416E27174241
:102F0000B4B75542CE1A9742C8AED542B5885A4397
:102F1000D40684BFA65FA7BF7443E0BF10B11AC038
:102F20001C2C58C0E8F697C0B849D6C04E4E17C101
:102F300024D355C1802497C1A0B5D5C1121A17C298
:102F400044AE55C2781797C26CACD5C267885AC3D5
:102F500020746F6F206C6F6E672065787472757364
:102F6000696F6E2070726576656E7465640A002004
:102F7000636F6C6420657874727573696F6E20700E
:102F8000726576656E7465640A006F6B0A0052653F
:102F900073656E643A200020453A00205A3A0020BA
:102FA000593A00583A0000002200250028002B0062
:102FB0002E003100340002010000050108010B0160
:102FC00000002100240027002A002D0030003300DB
:102FD00001010000040107010A01050505050705B7
:102FE00008080808020202020A0A08080404040485
:102FF00001010101010101010303030303030303B1
:10300000040707070C0C0C0C0C0C0C0C020202023F
:1030100006060606060606060B0B0B0B0B0B0B0B28
:1030200001021020200808102040102040800201DA
:1030300002010804020101020408102040808040BF
:1030400020100804020180040201804020100804BE
:10305000020108040201010204081020408001025C
:103060000408102040804572726F72207772697474
:10307000696E6720746F20454550524F4D210A00FC
:103080004672616E6B656E68616F206933205265B0
:103090006164792E005072696E74696E672E2E2EEF
:1030A000005072696E7420506175736564002F2F33
:1030B000616374696F6E3A0098009A0011241FBE14
:1030C000CFEFD1E2DEBFCDBF00E00CBF84B780936D
:1030D000161514BE0FB6F894A8958091600088610B
:1030E00080936000109260000FBE13E0A0E0B2E099
:1030F000E2EEF6E302E00BBF02C007900D92AC37A0
:10310000B107D9F725E1ACE7B3E001C01D92A631C4
:10311000B207E1F718E1CDE5D8E100E006C021975C
:103120000109802FFE010F940518CC35D10780E0EE
:103130000807A9F70F9469040D94601B0C94000014
:10314000CF93DF93EC01CB01BA010F94441120E03F
:1031500030E040E251E40F94FC18688379838A835D
:103160009B83DF91CF910895CF93DF93EC01CB0147
:10317000BA010F9444112AE037ED43E25DE30F9466
:10318000FC180F946919688379838A839B83DF9184
:10319000CF910895CF93DF93EC01CB01BA010F9447
:1031A00044112AE037ED43E25DE30F94FC18688395
:1031B00079838A839B83DF91CF910895CF93DF93A7
:1031C000EC01CB01BA010F944411688379838A839F
:1031D0009B83DF91CF910895CF93DF93EC01CB01D7
:1031E000BA010F94441120E030E048EC52E40F940F
:1031F000FC18688379838A839B83DF91CF9108953C
:10320000CF93DF93EC01CB01BA010F9444110F94DB
:10321000641979836883DF91CF910895CF93DF9309
:10322000EC01CB01BA010F94441120E030E04AE7F1
:1032300054E40F94FC18688379838A839B83DF911D
:10324000CF910895FC0184910895FC018081089537
:10325000FC01A081B1811C92A281B3818C918F5F0E
:103260008C930280F381E02D90818CE0989F800DFB
:103270001124E5EEF2E113AE84AF0895009751F00A
:10328000FC0180E09191992331F0907C9038D1F34A
:103290008F5FF8CF80E00895119800C090910201EF
:1032A00087FD9095917090930001119A00C000C025
:1032B000119800C09091020186FD909591709093B5
:1032C0000001119A00C000C0119800C09091020145
:1032D00085FD9095917090930001119A00C000C0F7
:1032E000119800C09091020184FD90959170909387
:1032F0000001119A00C000C0119800C09091020115
:1033000083FD9095917090930001119A00C000C0C8
:10331000119800C09091020182FD90959170909358
:103320000001119A00C000C0119800C090910201E4
:1033300081FD9095917090930001119A00C000C09A
:10334000119800C080910201817080930001119A50
:1033500000C000C0089590E080E00895CF93DF930F
:10336000C0911012D091111281E0CE31D105E4F05C
:1033700020E030E040E05FE360910C1270910D12AC
:1033800080910E1290910F120F9420180F946419CF
:103390006C1B7D0B77FF03C071956195710981E00E
:1033A000633071050CF080E0DF91CF910895CF93E9
:1033B000DF93DB01F9019C919130C1F0943080F0F2
:1033C00094509C938830D1F480819181009771F062
:1033D000019791838083480F591FEA01188206C024
:1033E0008C3539F49C5F9C93943041F4DF91CF91FC
:1033F00008958B3339F781E08C93F8CF20813181A8
:10340000B9016F5F7F4F71836083420F531FEA01E1
:103410008883808191818F3591056CF7E7CF0F9379
:103420001F9381E0009138141091391420913A14BF
:1034300030913B14409134145091351460913614FE
:1034400070913714041715072607370708F480E032
:103450001F910F91089590E080E008952091D0048D
:10346000833021F425FD0CC024FD0CC030E0A901FF
:1034700002C0559547958A95E2F7CA018170089573
:1034800081E0089580E008958091EC0484FD0BC0F4
:103490008091EE0487FD07C09091EF04937081E066
:1034A00019F480E0089581E008952FEB280F2A3168
:1034B00008F047C0E22FF0E08091EC049091ED0419
:1034C000A091EE04B091EF0404C0B695A79597952E
:1034D00087952A95D2F780FD02C081700895EE523B
:1034E000FB4FE081EE2341F18091890790918A079B
:1034F000E80FF92FF11D808190ED980F9A3030F090
:103500008E3251F4818180538A3098F4F093C6044E
:10351000E093C50481E008958D3211F08B3249F4B7
:10352000818190ED980F9A3088F38E3211F4828168
:10353000EACFF0E0E0E0EACF1092C6041092C504B2
:10354000E9CF80E00895B1DF882341F081E0209148
:10355000C5043091C604232B09F480E008950F942C
:10356000441120E030E048EC52E40F94FC180C9435
:10357000DECB0F94441120E030E040E251E40F94A0
:10358000FC180C945DCB0F9444112AE037ED43E214
:103590005DE30F94FC180C9444CB0F9444112AE083
:1035A00037ED43E25DE30F94FC180C94D2CC0F94FA
:1035B00044110C94D2CC0F94441120E030E048EC3C
:1035C00052E40F94FC180C9410C50F9444110F94FE
:1035D0006419CB010C9489BA0F94441120E030E0B7
:1035E0004AE754E40F94FC180C9405CD0C944FA4B6
:1035F0000C944FA40C9401A40C9401A40C9401A469
:103600000C9401A463E972E084E690E00E946EBE2F
:1036100070E060E08AE090E00E946EBE6AEB72E0CB
:1036200084E690E00C946EBE8111ECCF68E270E00D
:1036300080E991E00C946EBE0E9460A0F5CF80916D
:103640006102882341F060917D0570917E0541E023
:1036500081E00C9488EE08950E949FD1E5CF0E94EE
:10366000CBB5D0CFCF92DF92EF92FF920F931F9303
:103670000E94BAF30091FE041091FF04209100050E
:10368000309101056B017C01C01AD10AE20AF30AEC
:103690009701860137FD11C02091FD0420952093EC
:1036A000FD046A547C4F8F4F9F4F6093FE047093CC
:1036B000FF04809300059093010581E09091FD0443
:1036C000911101C080E01F910F91FF90EF90DF906A
:1036D000CF900895CF93DF93C0911012D091111223
:1036E000209729F160910C1270910D1280910E12A9
:1036F00090910F120F9464196E5F7F4F24976C178F
:103700007D07ACF470930D0660930C060E94BAF32B
:10371000605A75418F4F9F4F60930E0670930F064E
:103720008093100690931106DF91CF910895109227
:103730000E0610920F061092100610921106F4CF8A
:10374000BF92CF92DF92EF92FF920F931F93CF938E
:10375000DF936B01E9014A3009F4DFC0453109F01C
:103760008AC0DB011296ED91FC911281C681D7814E
:1037700080910201809582708093000100C000005A
:1037800086E290E00197F0F7012F0295007F20E19B
:10379000B22EB10E88EF80DD00C0000086E290E01E
:1037A0000197F0F7103208F0A5C0812F807780686C
:1037B00073DD802F71DD00C0000086E290E001978C
:1037C000F0F780E869DD80E067DD00C0000086E298
:1037D00090E00197F0F78AEF5FDD00C0000086E21D
:1037E00090E00197F0F77E01B0E1EB0EF11C8881CB
:1037F000807F52DD89918295807F4EDDCE15DF0579
:10380000B1F700C0000086E290E00197F0F71F5F7B
:10381000005F1B11BFCF8091020182708093000175
:10382000D6011296ED91FC9180819281980F92833E
:103830002181921708F0EDC194819F5F9483938159
:10384000890F821710F08FEF820F8383458150E03C
:10385000440F551F70E060E0868197810F940C1B28
:1038600081E0DF91CF911F910F91FF90EF90DF905A
:10387000CF90BF900895FB0102811381423309F478
:10388000CAC108F4D2C1463409F4BFC1473409F4AF
:10389000C7C14B3329F789812B81D80112966C91CE
:1038A000129713964C91213009F404C2233009F089
:1038B000E5C138EF380F582F91E0431708F490E036
:1038C00041E0531708F040E031E0561708F430E0CB
:1038D000592F542B352319F4942309F4C1CFFA80BE
:1038E00030E0F901E056FD4FD08024563D4FF901FC
:1038F000E080DDC180EE810F8068807FCDDC812F8C
:103900008295807FC9DC00C0000086E290E00197CC
:10391000F0F780E8C1DC80E857CF80910101826038
:103920008093010180910201827080930001809157
:103930000101816080930101809102018170809377
:103940000001099A119A80910201809582708093FA
:10395000000100C0000086E290E00197F0F788E7E0
:1039600090E0CEE9DFE0FE013197F1F70197D9F75A
:1039700088EF92DC00C0000086E290E00197F0F74B
:1039800080E28ADC80E088DC00C0000086E290E013
:103990000197F0F780E080DC80E87EDC00C000006A
:1039A00086E290E00197F0F780E076DC80E174DC5D
:1039B00000C0000086E290E00197F0F7CE01019789
:1039C000F1F7CE010197F1F7CE010197F1F7CE01A2
:1039D0000197F1F7CE010197F1F7CE010197F1F7C9
:1039E000CE010197F1F7CE010197F1F7CE010197D2
:1039F000F1F7CE010197F1F7CE010197F1F7CE0172
:103A00000197F1F7CE010197F1F7CE010197F1F798
:103A10002197F1F780E240DC80E43EDC00C000004A
:103A200086E290E00197F0F780E236DC80E634DC55
:103A300000C0000086E290E00197F0F7D0E0C0E01F
:103A40008C2F8077806828DC8D2F26DC00C000005A
:103A500086E290E00197F0F780E81EDC80E01CDC55
:103A600000C0000086E290E00197F0F78AEF14DCD6
:103A700000C0000086E290E00197F0F790E2119814
:103A800000C080910201817080930001119A00C0F2
:103A900000C0119800C080910201817080930001E4
:103AA000119A00C000C0119800C08091020181707D
:103AB00080930001119A00C000C0119800C080914D
:103AC0000201817080930001119A00C000C011981A
:103AD00000C080910201817080930001119A00C0A2
:103AE00000C0119800C08091020181708093000194
:103AF000119A00C000C0119800C08091020181702D
:103B000080930001119A00C000C0119800C08091FC
:103B10000201817080930001119A00C000C01198C9
:103B200000C080910201817080930001119A00C051
:103B300000C0119800C08091020181708093000143
:103B4000119A00C000C0119800C0809102018170DC
:103B500080930001119A00C000C0119800C08091AC
:103B60000201817080930001119A00C000C0119879
:103B700000C080910201817080930001119A00C001
:103B800000C0119800C080910201817080930001F3
:103B9000119A00C000C0119800C08091020181708C
:103BA00080930001119A00C000C0119800C080915C
:103BB0000201817080930001119A00C000C000C012
:103BC0000000E6E2F0E03197F0F7915009F057CFAE
:103BD00088EF62DB00C0000086E290E00197F0F71A
:103BE000CF5FD05FC03209F02BCF80E055DB80EC97
:103BF00053DB00C0000086E290E00197F0F780916F
:103C000002018270809300012BCEF80185818883A8
:103C100027CE80E026CEB901C8010E9430F420CE24
:103C2000D80111968C9188831BCE443191F0473195
:103C300009F016CE1882D80112968C9112978983BA
:103C400015968C91159781508A8313968C918B834E
:103C500007CED80115964C91159750E0440F551F8B
:103C600070E060E016968D919C910F940C1BF8010A
:103C700012828081815083831482F2CD481708F428
:103C8000EFCD861708F4ECCDFA80E12CD12C24304E
:103C900070F426CEBE01C8010E9430F4898198815B
:103CA0009D0D98838E0D8983FF0C09F4D9CDF7FE05
:103CB000F6CFF0CF58E0580F382FFECDEF92FF929D
:103CC0000F931F93CF93DF93EC018B017A018A85C9
:103CD0009B858617970731F0888199810E9462F64B
:103CE0001B870A87B701888199810E9440EF2E8146
:103CF0003F81820F932F911D9F838E8390E080E000
:103D0000DF91CF911F910F91FF90EF9008959F92B7
:103D1000AF92BF92CF92DF92EF92FF920F931F93D9
:103D2000CF93DF93EC018B01942EA52E8A859B8582
:103D30008617970731F0888199810E9462F61B8768
:103D40000A8788859985019649F5BC800A818E810C
:103D5000080FC880D980D6015596ED91FC91C60117
:103D60001995B80EE92CFA2C10E0F70121917F018A
:103D7000211127C08E819F81810F911D9F838E838A
:103D800090E080E0DF91CF911F910F91FF90EF9035
:103D9000DF90CF90BF90AF909F9008950E811F81CC
:103DA000692D7A2D888199810E9440EF800F912F93
:103DB000911D288539852817390738F681E090E06C
:103DC000E1CF4B2D602FC6010E94BAF6080F180FE5
:103DD000CCCFDF92EF92FF920F931F93CF93DF939D
:103DE000EC01D62E1CAD0BAD7C0184E0E80EF11C7D
:103DF000E98DFA8DC7011995412F480F2D2D602FA0
:103E0000C7010E94BAF69BAD890F8BAF81E090E0AD
:103E1000DF91CF911F910F91FF90EF90DF90089568
:103E2000CF93C0911205CC2391F14CE050E060E2B9
:103E300070E084E095E00F940C1B80E2C43628F01B
:103E40008C2F64E60F94C517805D8093870590E200
:103E5000CA3040F02AE08C2F622F0F94C5170F94C0
:103E6000C517905D909388058C2F6AE00F94C51755
:103E7000905D9093890583E0E7E8F5E0A8E0B5E080
:103E800001900D928A95E1F785E280930B05CF9121
:103E90000895CF938091FA04811154C01092201399
:103EA00010922113109222131092EE121092ED1222
:103EB0001092F0121092EF121092F21281E08093A1
:103EC000F11282E28093F3121092F8121092F7121C
:103ED000ECE0F3E12AE133E18FEF81932E173F0706
:103EE000E1F7C1E0C09309132CE534ED3093FF12E4
:103EF0002093FE12C093001310920113109202132C
:103F000090E490930313109204132BE534ED309357
:103F10001B1320931A1321E132E03093EC1220930B
:103F2000EB1297E19093101391E19093111390E1AC
:103F300090930E1380930D1380930C130E946EF4D4
:103F4000C093FA0481E08093FC048FE092E19093A7
:103F5000A01180939F111092A2111092A111CF91E4
:103F60000895CF92DF92EF92FF920F931F93CF931A
:103F7000DF93CDB7DEB72C970FB6F894DEBF0FBE38
:103F8000CDBFF0902013E09021132091FC0421116B
:103F90001DC04FEC51E16E2D8F2D0E9425F790E052
:103FA00080E0F80EF0922013E092211399272C96CE
:103FB0000FB6F894DEBF0FBECDBFDF91CF911F913A
:103FC0000F91FF90EF90DF90CF900895C090ED1289
:103FD000D090EE1229EE32E13A8329832F2D30E082
:103FE0003C832B832E2D30E03E832D8318861F8249
:103FF0007A8769871C861B8607E81EE19E012F5F72
:104000003F4F42E259E1BC01C6010E94E2E5B60120
:1040100089EE92E10E9462F68F819885C2CF8091ED
:10402000C5049091C604009731F04AE050E070E07A
:1040300060E00D945F0F60E070E0CB010895809127
:10404000C5049091C604009731F04AE050E070E05A
:1040500060E00D94320E60E070E0CB010895EFDF78
:1040600097FD0AC0ECDF6F3F71058105910509F0EE
:104070002CF4E5DF862F089580E008958FEF0895F2
:10408000CF93C62F60DA882311F0CF91E8CF8C2F21
:10409000CF9108958091C5049091C604892B39F081
:1040A000DEDF91E0811101C090E0892F089591E059
:1040B000FCCFCF93DF93C82FD62F45DA882319F092
:1040C000DF91CF91E7CF8C2FF0D9811101C08D2FD7
:1040D000DF91CF910895B3DFCB010895CF93DF93A4
:1040E000EB0131DA882319F0DF91CF91F4CFCE01C3
:1040F000DF91CF9108950F931F93CF938091C504C3
:104100009091C604009709F1FC018F01C1912C2FF9
:104110002F7DA1F0C53431F0C53621F0C83511F03E
:10412000C83799F7F801108270E060E00F94DC0C5A
:10413000F801C083CF911F910F91089570E060E066
:10414000CF911F910F910D94DC0C60E070E0CB01DA
:10415000F1CFCF92DF92EF92FF926A017B01F3D908
:10416000882329F0FF90EF90DF90CF90C4CFC70154
:10417000B601FF90EF90DF90CF9008954F925F923D
:104180006F927F92AF92BF92CF92DF92EF92FF92A7
:104190000F931F93CF9388E9A82E82E0B82E9CE955
:1041A000E92E95E0F92E0AE211E12AE3C22E21E17F
:1041B000D22EC0E0F50181915F01C5D9882309F4B1
:1041C00076C099DF2B013C018C2F48D9882309F454
:1041D00064C0F8012081318142815381C301B20161
:1041E0000F942018F7016083718382839383CF5FDC
:1041F000F4E0EF0EF11C0C5F1F4F84E0C80ED11CE1
:10420000C330C1F685E49FD9882309F45BC073DF0E
:104210006B017C0183E022D9882371F02091361153
:10422000309137114091381150913911C701B601C1
:104230000F9420186B017C01C092A805D092A905AB
:10424000E092AA05F092AB0540E050E0BA0186E4A6
:1042500080DF20E030E0A9010F94471A18167CF4A3
:104260004ADF20E030E040E752E40F94FC1860930E
:104270002002709321028093220290932302CF9117
:104280001F910F91FF90EF90DF90CF90BF90AF9074
:104290007F906F905F904F900895F601208131815B
:1042A00042815381C301B2010F941F189BCFF801C3
:1042B00080819181A281B381F70180839183A28360
:1042C000B38395CF8091361190913711A091381119
:1042D000B09139118093A8059093A905A093AA05E0
:1042E000B093AB05B1CFAF92BF92CF92DF92EF9276
:1042F000FF920F931F93CF935C016B018A0181584A
:104300009B4F7C01DC01CC91C7FF3DC0FB011182BA
:104310001082CF5FD701CC93CC300CF053C08CE02F
:104320008A9DF0018B9DF00D1124CF018C0F911D02
:10433000C7FD9A952091A8122817190609F00CF4C8
:1043400041C0F60120813181FC01EE0FFF1FE80F13
:10435000F91FE05AFD4E81819281820F931FD8018F
:1043600011969C938E93808187FF3DC061E08F778B
:10437000CF911F910F91FF90EF90DF90CF90BF9062
:10438000AF900C9494F28CE08A9DF0018B9DF00D1F
:104390001124CF018C0F911DC7FD9A952091A81271
:1043A0002817190609F00CF4B4CFFC01EE0FFF1F1B
:1043B000E80FF91FE05AFD4E808160E08F770E9480
:1043C00094F2A7CFF6018081918104968034FCE9B4
:1043D0009F0710F480E49CE9D80111969C938E937A
:1043E0008FEFF7018083CF911F910F91FF90EF9096
:1043F000DF90CF90BF90AF900895CF93DF93CDB76C
:10440000DEB720E2488559856F818E810E94EDEEEE
:10441000DF91CF9108950F931F93522F2091E312B4
:104420003091E4122817390731F11092B4059093B6
:10443000E4128093E3128B0130E020E000936907DF
:1044400010936A0720936B0730936C0740936207C1
:10445000509363078856904421F41092810510927E
:104460007C0582E08093610281E08093790710925D
:10447000800510927F051F910F91089520E040E084
:1044800070E060E088E690E4C6CFCF930E94CBB5A1
:104490000E9460A0C82F882319F080E00E94709FBE
:1044A0008C2FC2D8CF91EACF88EA94E19093480745
:1044B00080934707E3CFCF93DF93C0917C05CC2354
:1044C000B1F0C150C0937C0589E0C89FE001112480
:1044D000CA5BDA4F6A817B812F814E818881998105
:1044E0009ADF888580938105DF91CF910895DF91D0
:1044F000CF91C4CFE0917C05E63028F581E08E0FA6
:1045000080937C054091690750916A0760916B0721
:1045100070916C07209162079091630780918105EB
:1045200039E0E39FF0011124EA5BFA4FA091E31216
:10453000B091E412B183A083428353836483758373
:10454000268397838087089580935E0720E040E06C
:1045500070E060E084EF96E25ECFCF93DF93CDB75B
:10456000DEB78E81282F082E000C330B90919E1100
:104570009217130609F08CF480939E119E01275F19
:104580003F4F4F8158856AE270E083E791E10F94D5
:1045900006111092721110927111DF91CF9108954E
:1045A0000F931F93CF93DF938C016F3F19F41092F9
:1045B0009E1160E020919E11862F062E000C990B13
:1045C0002817190609F014F560939E11C8010F947D
:1045D0008D10800F911FEC01C01BD10BCB32D10588
:1045E0003CF00197FC012491207C2038D1F3F3CFDB
:1045F000DD27AE01B80183E791E10F94AE10CD58ED
:10460000DE4E18821092721110927111DF91CF91CB
:104610001F910F910895CF9380913E05811109C09C
:104620008CE493E190937E0580937D0581E08093F7
:104630003E0560DF20E040E070E060E08FE19BE15C
:10464000EADEC1E0C09381050E9472A41092810548
:1046500032DFC093810560E081EA90E3A1DF88E466
:1046600093E19093480780934707CF9108950F9364
:104670001F930E94BAF30091390510913A052091D9
:104680003B0530913C05601B710B820B930B97FD32
:104690000EC086B186FB882780F991E08927349B7C
:1046A0008260079B02C0329B8460809338058091B2
:1046B000380581709091380591FD826090913705A1
:1046C000981749F0813009F148F0823079F0833051
:1046D00091F0809337051F910F910895913079F0F3
:1046E0009230B9F7909136059F5F0CC0992339F04D
:1046F0009330C1F3EECF9130A9F3923051F79091FE
:104700003605915090933605E4CF992359F39330B1
:1047100001F7F5CFCF92DF92EF92FF92CF93C82FA0
:104720000E94BAF36B017C0124EA30E74DE75FE3B6
:1047300060911A0270911B0280911C0290911D02DF
:104740000F943E1187FD18C08AEF90E0A0E0B0E022
:104750008C0D9D1DAE1DBF1D8093260590932705D2
:10476000A0932805B0932905C0931802CF91FF901C
:10477000EF90DF90CF90089580E090E0DC01E8CFEB
:1047800088DB3E98469A3C98449A3A98429A0F9809
:10479000179A6DDF109236050C9446E6FC0180E016
:1047A000309749F09491992331F0907C903809F03A
:1047B0008F5F3196F7CF0895AF92BF92CF92DF927D
:1047C000EF92FF920F931F93CF93DF93EC015B0166
:1047D0008A01FB01199587FD16C0C82ED12CF12C3A
:1047E000E12C2196F801C082D182E282F382CE01CF
:1047F000DF91CF911F910F91FF90EF90DF90CF90BD
:10480000BF90AF900895982F907E903CA9F48F713F
:1048100090E0B0E0A0E06C017D0156E0CC0CDD1C26
:10482000EE1CFF1C5A95D1F7CE010196F5011995A2
:104830008F73C82A2296D6CF982F907F903E11F57D
:104840008F7090E0B0E0A0E06C017D0136E0CC0C10
:10485000DD1CEE1CFF1C3A95D1F7CE010196F50147
:1048600019958F73C82A46E0CC0CDD1CEE1CFF1C8A
:104870004A95D1F7CE010296F50119958F73C82A92
:104880002396B0CF982F987F903F79F5877090E06E
:10489000B0E0A0E06C017D0186E0CC0CDD1CEE1CDC
:1048A000FF1C8A95D1F7CE010196F50119958F73FA
:1048B000C82A96E0CC0CDD1CEE1CFF1C9A95D1F7A3
:1048C000CE010296F50119958F73C82A26E0CC0C0B
:1048D000DD1CEE1CFF1C2A95D1F7CE010396F501D5
:1048E00019958F73C82A24967DCF982F907C903885
:1048F00041F4807C803869F42196CE01F501199548
:10490000F8CF8E7F8D3F28F02196CE01F5011995C5
:10491000F8CFC12CD12C760165CF9CE0899F802DEA
:10492000112491E0980F9093FB042CE0280F209322
:104930007F0730E02E5F3F4F40911D134217130653
:1049400019F014F080E0089520911F139217D0F70A
:10495000662341F08E5F0E9490F580917F078E5F05
:104960000E9490F580917F0790911D13891750F355
:1049700020911F139091FB04291720F3109220130C
:104980008093211381E008952091F904022E000CF8
:10499000330B8217130641F08093F90465E375E148
:1049A00089EE92E10C9462F60895EF92FF920F93D4
:1049B0001F93CF93DF93CDB7DEB72C970FB6F89444
:1049C000DEBF0FBECDBFFC0160817181828193810A
:1049D0006F3F71058105910509F0B8F485EE92E10C
:1049E000F8D9E091ED12F091EE123196849190E0B9
:1049F0002C960FB6F894DEBF0FBECDBFDF91CF91DE
:104A00001F910F91FF90EF90089510912013009146
:104A100021132091FC0421110FC04FEE51E1602FB2
:104A2000812F0E9425F790E080E0180F109320134B
:104A3000009321139927DCCFE090ED12F090EE1255
:104A400029EE32E13A832983212F30E03C832B8306
:104A5000202F30E03E832D8318861F822FEF3FEFFB
:104A60003A8729871C861B8627E83EE1AE014F5F07
:104A70005F4FBF01C7010E941DE5B70189EE92E1BA
:104A80000E9462F68F819885D0CF4F925F926F928D
:104A90007F928F929F92BF92CF92DF92EF92FF927E
:104AA0000F931F93CF93DF9300D000D01F921F92DC
:104AB000CDB7DEB77C016A014901FB0190818CE032
:104AC000989F800D1124982FF7012081822F880F45
:104AD000820F880F80932013909321134115510565
:104AE00069F1FA82E9827C836B83011120C0AE01F7
:104AF0004B5F5F4FB401C6015FDE6C018D819E810B
:104B0000AF81B885892B8A2B8B2BC1F0CE010596FE
:104B10004CDFF70180818F5F8083853140F3CE01C8
:104B200001960E942819E3CFB12C860129C08A0181
:104B3000B12C26C0452846284728B1F728960FB63D
:104B4000F894DEBF0FBECDBFDF91CF911F910F91C3
:104B5000FF90EF90DF90CF90BF909F908F907F90CD
:104B60006F905F904F900895B39407C0B1102DC01F
:104B700001151105C9F20F5F1F4F01151105A9F2AB
:104B8000AE014B5F5F4FB401C60116DE6C014D8074
:104B90005E806F8078844114510461047104A9F02F
:104BA000F0E24F1651046104710401F3D301C20114
:104BB0008D97A109B1090297A105B10530F04BE22B
:104BC000441651046104710479F6F7018081482F7D
:104BD0004B0D5527551F4631510534F0853020F0D7
:104BE000CE0101960E94281981E04114510461040C
:104BF000710409F480E0B80EF70180818B0D808389
:104C0000BB2009F497CFBA94AE014B5F5F4FB4015C
:104C1000C801D2DD8C01CE010596C7DEF1CF2F92FF
:104C20003F924F925F926F927F928F929F92AF923C
:104C3000BF92CF92DF92EF92FF920F931F93CF9389
:104C4000DF9300D0CDB7DEB74C013B015A012B8377
:104C5000232E280181E080938105409169075091BE
:104C60006A0760916B0770916C07411551056105EA
:104C7000710571F0141615060CF080E080937F0525
:104C80001092690710926A0710926B0710926C07D6
:104C900010917F053090570710925707311005C0CB
:104CA00080916102882309F469C0C20177DD082F71
:104CB00080E0C114D10411F0C60170DD1A8219829E
:104CC000E114F104B1F4402F50E0282F30E0CA0184
:104CD000820F931F46976CF485E190E0841B950B3F
:104CE000821B930B97FD0196959587958A8381E0AA
:104CF000898301E022E239E1A201BE016F5F7F4FAB
:104D0000CE010296C2DEE114F10489F08A81882383
:104D100021F01A8289818F5F898300E025E239E1E1
:104D2000A701BE016F5F7F4FCE010296AEDEC114B8
:104D3000D10451F000E022E239E1A601BE016F5F2B
:104D40007F4FCE010296A1DE41E04127B30181E011
:104D50000E94FFF5C40122DD412FB40194E1981BAC
:104D6000892F0E94FFF5332049F0111102C0AB805A
:104D7000B22CA114B104C1F0F50119950F900F9058
:104D80000F90DF91CF911F910F91FF90EF90DF90E7
:104D9000CF90BF90AF909F908F907F906F905F90DB
:104DA0004F903F902F90089586DBE8CFCF92DF920F
:104DB000EF92FF920F931F938AE9C82E84E1D82EB9
:104DC000F12CE12C0DEA14E130E020E045E452E260
:104DD0006CE974E183EA94E122DF1F910F91FF9067
:104DE000EF90DF90CF900895AF92BF92CF92DF9275
:104DF000EF92FF920F931F93CF93DF93CDB7DEB760
:104E0000ADB6BEB68AEA93E1C9DC90E001962DB753
:104E10003EB7281B390B0FB6F8943EBF0FBE2DBF0F
:104E20008DB79EB701967C016AEA73E10F948610F4
:104E300080915E0707E713E1813031F002E613E16C
:104E4000823011F00AE813E18BE9C82E83E1D82EF5
:104E50002EE332E245E452E26DE973E184EA93E144
:104E6000DEDE0FB6F894BEBE0FBEADBEDF91CF91B1
:104E70001F910F91FF90EF90DF90CF90BF90AF9078
:104E800008956FEF7FEF6DC8E5EEF2E183AF64AF99
:104E9000CA01F7CFF6CFCF93DF93FC0125AD2111E7
:104EA00004C021E025AF0E946EF4C091EB12D091B6
:104EB000EC12E0911A13F0911B1382E01995E09126
:104EC0001A13F0911B1381E0199530E020E044E1C2
:104ED000BE0189EE92E10E946AF42CE133E147E1E0
:104EE000BE0189EE92E10E946AF4E0911A13F091FA
:104EF0001B1380E0DF91CF9119944F925F926F92D4
:104F00007F928F929F92AF92BF92CF92DF92EF9259
:104F1000FF921F93CF93DF93CDB7DEB760970FB6A5
:104F2000F894DEBF0FBECDBF0E94BAF36B017C01C7
:104F3000809118028F3F09F444C00E94BAF3809018
:104F4000260590902705A0902805B090290568199E
:104F500079098A099B0997FD34C08091BD1290910F
:104F6000BE128F5F8F70891761F1E0911802E430F3
:104F700008F05FC024E0E29FF0011124EC55FD4FE2
:104F800080819181A281B3818D879E87AF87B88B05
:104F900019821A821B821C821D821E821F82188621
:104FA00019861A861B861C86AE014F5F5F4FBE01B5
:104FB000635F7F4F8AE291E10E9492E98FEF8093D5
:104FC000180255DB8091380582FF3CC08091350581
:104FD00081113AC091E09093350580913D05892774
:104FE0008093570710923D0583E0809361021092F1
:104FF00038050E94BAF36C507E4F8F4F9F4F6093DD
:10500000390570933A0580933B0590933C0568E819
:1050100073E182E090E00E946EBE16E01150A1F0B4
:105020000E9412BE62E070E080E090E00E9420F3F7
:10503000F5CF8091620290916302A0916402B091D9
:105040006502A2CF1092350580913105909132050D
:10505000A0913305B0913405A7019601281B390BA7
:105060004A0B5B0BDA01C901B7FF05C080918005CF
:10507000882309F4BBC1D701C6018C599F4FAF4F9C
:10508000BF4F8093310590933205A0933305B093C1
:10509000340560913605062E000C770B77FF03C0B0
:1050A000719561957109909136058091300598133D
:1050B00065C0633008F062C01092360580913605F5
:1050C00080933005643008F069C0809157078111E2
:1050D000E9C08091E3129091E4128856904441F423
:1050E00080911902882309F4EFC08150809319023E
:1050F0000E9493A68090A3079090A407A090A50774
:10510000B090A60781110E94A0A6D501C4013AE083
:10511000B695A795979587953A95D1F78F3F4FEF1D
:105120009407A105B10520F08FEF9FEFA0E0B0E05C
:1051300096958795209161022111D8C03091800504
:10514000311183C18091E3129091E412885690440A
:1051500009F462C18091810581115EC180912C05A5
:1051600090912D05A0912E05B0912F05C81AD90A4E
:10517000EA0AFB0AF7FC5EC181D95CC1633009F021
:105180009DCF8091360587FD07C081E0880F880F8D
:105190008093360564E092CF8FEFF8CF80917E0741
:1051A00021E030E040E050E0882309F456C08090D0
:1051B0007A0790907B07A0907C07B0907D078114C0
:1051C0009104A104B104E9F170E090E080E00F9453
:1051D000421120E030E040E85EE30F94A3112B0180
:1051E0003C01C701B601681979098A099B090F9426
:1051F00042119B01AC01C301B2010F94FC1820E0E5
:1052000030E04AE754E40F94A3114B015C0120E025
:1052100030E040EA52E40F94471A24E630E040E0E0
:1052200050E087FF12C020E030E040EF51E4C501BC
:10523000B4010F94471A2AE030E040E050E087FFC5
:1052400004C021E030E040E050E0C0927A07D09204
:105250007B07E0927C07F0927D07079B21C0A0911D
:1052600036050A2E000CBB0B0F94B01724E030E07B
:1052700040E050E00F948A178091690790916A0787
:10528000A0916B07B0916C07820F931FA41FB51FED
:105290008093690790936A07A0936B07B0936C079C
:1052A00010923605D701C6018856954CAF4FBF4FB7
:1052B00080932C0590932D05A0932E05B0932F0578
:1052C00081E08093610205CF8CE080931902809188
:1052D0002A0590912B05009729F0019790932B05B3
:1052E00080932A0581E08093610202CF009741F00C
:1052F00040912A0550912B054817590708F022CFF5
:1053000080918005811111C0223038F0243008F4DA
:105310003FC0243011F41092610285EE92E1BBDDB2
:1053200081E0809365078093800583E02DDB81E039
:1053300080930913E091E312F091E4121995109211
:10534000650780918005811127C0109257078091D1
:10535000E3129091E4128856904409F0FBCE0E942B
:10536000BAF3DC01CB018C199D09AE09BF0980900D
:105370002A0590902B05B12CA12C88169906AA0617
:10538000BB0608F0DFCE90932B0580932A05DACE7A
:1053900081E080936102C1CF89EE92E10E9432F6F2
:1053A00091E0811101C090E090938005882369F21B
:1053B0008091E3129091E41288569044B9F40E94CF
:1053C000BAF3DC01CB018C199D09AE09BF09C0906D
:1053D0002A05D0902B05F12CE12CC816D906EA0637
:1053E000FB0620F490932B0580932A0560960FB658
:1053F000F894DEBF0FBECDBFDF91CF911F91FF901C
:10540000EF90DF90CF90BF90AF909F908F907F9064
:105410006F905F904F90089548E9C40E4AE3D41E00
:10542000E11CF11CC0922C05D0922D05E0922E05B6
:10543000F0922F05809180058111D8CF8091610273
:105440008130A1F610926102D1CF009709F46DCF9F
:105450004FCFCF92DF92EF92FF920F931F93CF9394
:10546000DF93CDB7DEB72C970FB6F894DEBF0FBE33
:10547000CDBFF0902013E09021132091FC04211166
:105480001DC04FEA51E16E2D8F2D0E9425F790E04F
:1054900080E0F80EF0922013E092211399272C96C9
:1054A0000FB6F894DEBF0FBECDBFDF91CF911F9135
:1054B0000F91FF90EF90DF90CF900895C090ED1284
:1054C000D090EE1229EE32E13A8329832F2D30E07D
:1054D0003C832B832E2D30E03E832D8318861F8244
:1054E0007A8769871C861B8607E81EE19E012F5F6D
:1054F0003F4F45E259E1BC01C6010E94E2E5B60119
:1055000089EE92E10E9462F68F819885C2CF6F92F8
:105510007F928F929F92AF92BF92CF92DF92EF9243
:10552000FF920F931F93CF93DF9300D000D01F9271
:105530001F92CDB7DEB77C01162F5A014901862F85
:10554000660F990B9C0128563D4F690186E0682E35
:10555000712C10160CF03CC0AE014B5F5F4F62E245
:1055600079E1C70129D97C018D819E81AF81B88500
:105570000097A105B10561F18D339105A105B10534
:1055800009F474C08E379105A105B10509F46EC008
:105590008A329105A105B10589F517FF12C08CE487
:1055A00092E11E3F11F088E492E136E00302B0017F
:1055B00011240E94B11F66E070E00F94F217061BE1
:1055C0008DC086E592E166DC015009F051C000E033
:1055D000802F28960FB6F894DEBF0FBECDBFDF91A7
:1055E000CF911F910F91FF90EF90DF90CF90BF90E0
:1055F000AF909F908F907F906F9008958432910527
:10560000A105B105C9F48114910461F0E6E00E0230
:10561000B0011124C4010E94B11FB3010F94F2170D
:10562000061B97CFA114B104E1F0F6E00F02B00120
:105630001124C5010EDFF1CF80349105A105B1051C
:1056400081F40150F6018081082E000C990BAA0B01
:10565000BB0B89839A83AB83BC83CE010196A5D90A
:1056600078CFCE010596A1D9015073CF17FD97CF02
:1056700081E04D815E816F8178854D3351056105F3
:10568000710509F480E0810F8A30C4F001506AE0AE
:105690000F94D117D92E082E000C990BC096092E05
:1056A000000CAA0BBB0B89839A83AB83BC83CE010E
:1056B00001967BD9002309F48ACF8D2D082E000C8A
:1056C000990BC096092E000CAA0BBB0B89839A83F9
:1056D000AB83BC83CE01019668D90150002309F445
:1056E00076CF86E00802B0011124C7010E94B11FE5
:1056F00066E070E00F94F217061B6ACF6FEF7FEF42
:10570000A8CE8F929F92AF92BF92CF92DF92EF92EC
:10571000FF920F931F93CF93DF9300D01F92CDB7CB
:10572000DEB74C016B013AD8A82EC6010E943E1983
:10573000B12C23E130E07901E81AF10815E2EA140E
:10574000FB040CF41FE1812F90E09C012E5F3F4F82
:1057500040911D134217130611F00CF03FC009973A
:1057600020911F1328171906CCF12091830730913F
:1057700084074091810750918207609180071092C1
:1057800020131093211305E1C401C1DE01E0C1140F
:10579000D10499F083E192E17DDBEA14FB0404F586
:1057A000145F80911D13181740F020911F13412F93
:1057B0004950550B24171506ACF40F900F900F901D
:1057C0000F90DF91CF911F910F91FF90EF90DF909D
:1057D000CF90BF90AF909F908F90089500E0D7CF6B
:1057E000002359F380E290E0A0E0B0E089839A833F
:1057F000AB83BC838E2D880FE80EEE0CE092201355
:1058000010932113CE010196D0D8C60177DFD5CFF2
:105810000F931F93CF93DF93FC01EB0180916907F6
:1058200090916A07A0916B07B0916C07B7FD75C0A6
:1058300040916D0750916E0760916F0770917007EE
:10584000481759076A077B0714F4DB01CA018093E4
:10585000690790936A07A0936B07B0936C07209138
:1058600061022223B9F04091710750917207609153
:105870007307709174078C019D01040F151F261F7B
:10588000371FC901B8011995BC0180917707909124
:10589000780737DF80915707811109C0809166072B
:1058A000882309F43EC0809161028823D1F1809160
:1058B0007507909176070097B1F040916907509174
:1058C0006A0760916B0770916C07009171071091E6
:1058D00072072091730730917407400F511F621FA8
:1058E000731FFE011995E0916707F09168073097E3
:1058F00041F080916607811103C0809157078111A3
:1059000019958091570710925707882351F0DF911E
:10591000CF911F910F910C945B2280E090E0DC010D
:1059200096CFDF91CF911F910F9108956BE679E8A3
:105930008FEA9AE16DCF60EA78E189EB9AE168CF6E
:1059400064EB78E183EC9AE163CF6AEC78E18DEC6B
:105950009AE15ECF6EED78E187ED9AE159CF6CEE7A
:1059600078E18BED9AE154CF60E079E185EE9AE140
:105970004FCF6EE079E18CEE9AE14ACF8F929F9201
:10598000AF92BF92CF92DF92EF92FF920F931F934D
:10599000CF93DF93CDB7DEB72C970FB6F894DEBF69
:1059A0000FBECDBF982F862F5A017901C02E692FC7
:1059B0000E948D24882309F483C01091FC04C70140
:1059C000002369F10E94CE23D82E8090ED12909092
:1059D000EE12111140C01FEF03E10D192091830752
:1059E0003091840740918107509182076091800730
:1059F000C5018DDDDD2009F463C0B6E08B9F500149
:105A0000112481E192E146DA57E0A516B10408F4C9
:105A10003FC08FE092E135DAA81AB90AF5CF0E94AB
:105A20003E19D82E8090ED129090EE12112399F22B
:105A3000FE0133968AE0DF011D928A95E9F789EE2F
:105A400092E19A8389830EE51EE19E012F5F3F4F0D
:105A500045E259E112C0FE0133968AE0DF011D9252
:105A60008A95E9F789EE92E19A8389830EE51EE132
:105A70009E012F5F3F4F42E259E1B701C4010E94EE
:105A8000E2E5B40189EE92E10E9462F61F81A4CFA3
:105A900040917F07212F30E0A6E0DA9EC00111245B
:105AA0002E5F3F4F281739070CF49C0180E8821BBA
:105AB0008093201340932113C701CC20A1F0E1D99A
:105AC0002C960FB6F894DEBF0FBECDBFDF91CF91FD
:105AD0001F910F91FF90EF90DF90CF90BF90AF900C
